{
  "contractName": "ContinuousToken",
  "abi": [
    {
      "constant": false,
      "inputs": [
        {
          "name": "spender",
          "type": "address"
        },
        {
          "name": "value",
          "type": "uint256"
        }
      ],
      "name": "approve",
      "outputs": [
        {
          "name": "",
          "type": "bool"
        }
      ],
      "payable": false,
      "stateMutability": "nonpayable",
      "type": "function"
    },
    {
      "constant": true,
      "inputs": [],
      "name": "reserveRatio",
      "outputs": [
        {
          "name": "",
          "type": "uint256"
        }
      ],
      "payable": false,
      "stateMutability": "view",
      "type": "function"
    },
    {
      "constant": true,
      "inputs": [],
      "name": "totalSupply",
      "outputs": [
        {
          "name": "",
          "type": "uint256"
        }
      ],
      "payable": false,
      "stateMutability": "view",
      "type": "function"
    },
    {
      "constant": false,
      "inputs": [
        {
          "name": "from",
          "type": "address"
        },
        {
          "name": "to",
          "type": "address"
        },
        {
          "name": "value",
          "type": "uint256"
        }
      ],
      "name": "transferFrom",
      "outputs": [
        {
          "name": "",
          "type": "bool"
        }
      ],
      "payable": false,
      "stateMutability": "nonpayable",
      "type": "function"
    },
    {
      "constant": true,
      "inputs": [
        {
          "name": "_supply",
          "type": "uint256"
        },
        {
          "name": "_reserveBalance",
          "type": "uint256"
        },
        {
          "name": "_reserveRatio",
          "type": "uint32"
        },
        {
          "name": "_depositAmount",
          "type": "uint256"
        }
      ],
      "name": "calculatePurchaseReturn",
      "outputs": [
        {
          "name": "",
          "type": "uint256"
        }
      ],
      "payable": false,
      "stateMutability": "view",
      "type": "function"
    },
    {
      "constant": false,
      "inputs": [
        {
          "name": "spender",
          "type": "address"
        },
        {
          "name": "addedValue",
          "type": "uint256"
        }
      ],
      "name": "increaseAllowance",
      "outputs": [
        {
          "name": "",
          "type": "bool"
        }
      ],
      "payable": false,
      "stateMutability": "nonpayable",
      "type": "function"
    },
    {
      "constant": true,
      "inputs": [
        {
          "name": "_supply",
          "type": "uint256"
        },
        {
          "name": "_reserveBalance",
          "type": "uint256"
        },
        {
          "name": "_reserveRatio",
          "type": "uint32"
        },
        {
          "name": "_sellAmount",
          "type": "uint256"
        }
      ],
      "name": "calculateSaleReturn",
      "outputs": [
        {
          "name": "",
          "type": "uint256"
        }
      ],
      "payable": false,
      "stateMutability": "view",
      "type": "function"
    },
    {
      "constant": true,
      "inputs": [],
      "name": "version",
      "outputs": [
        {
          "name": "",
          "type": "string"
        }
      ],
      "payable": false,
      "stateMutability": "view",
      "type": "function"
    },
    {
      "constant": true,
      "inputs": [
        {
          "name": "owner",
          "type": "address"
        }
      ],
      "name": "balanceOf",
      "outputs": [
        {
          "name": "",
          "type": "uint256"
        }
      ],
      "payable": false,
      "stateMutability": "view",
      "type": "function"
    },
    {
      "constant": false,
      "inputs": [],
      "name": "renounceOwnership",
      "outputs": [],
      "payable": false,
      "stateMutability": "nonpayable",
      "type": "function"
    },
    {
      "constant": true,
      "inputs": [],
      "name": "owner",
      "outputs": [
        {
          "name": "",
          "type": "address"
        }
      ],
      "payable": false,
      "stateMutability": "view",
      "type": "function"
    },
    {
      "constant": true,
      "inputs": [],
      "name": "isOwner",
      "outputs": [
        {
          "name": "",
          "type": "bool"
        }
      ],
      "payable": false,
      "stateMutability": "view",
      "type": "function"
    },
    {
      "constant": true,
      "inputs": [],
      "name": "reserveBalance",
      "outputs": [
        {
          "name": "",
          "type": "uint256"
        }
      ],
      "payable": false,
      "stateMutability": "view",
      "type": "function"
    },
    {
      "constant": false,
      "inputs": [
        {
          "name": "spender",
          "type": "address"
        },
        {
          "name": "subtractedValue",
          "type": "uint256"
        }
      ],
      "name": "decreaseAllowance",
      "outputs": [
        {
          "name": "",
          "type": "bool"
        }
      ],
      "payable": false,
      "stateMutability": "nonpayable",
      "type": "function"
    },
    {
      "constant": false,
      "inputs": [
        {
          "name": "to",
          "type": "address"
        },
        {
          "name": "value",
          "type": "uint256"
        }
      ],
      "name": "transfer",
      "outputs": [
        {
          "name": "",
          "type": "bool"
        }
      ],
      "payable": false,
      "stateMutability": "nonpayable",
      "type": "function"
    },
    {
      "constant": true,
      "inputs": [
        {
          "name": "owner",
          "type": "address"
        },
        {
          "name": "spender",
          "type": "address"
        }
      ],
      "name": "allowance",
      "outputs": [
        {
          "name": "",
          "type": "uint256"
        }
      ],
      "payable": false,
      "stateMutability": "view",
      "type": "function"
    },
    {
      "constant": false,
      "inputs": [
        {
          "name": "newOwner",
          "type": "address"
        }
      ],
      "name": "transferOwnership",
      "outputs": [],
      "payable": false,
      "stateMutability": "nonpayable",
      "type": "function"
    },
    {
      "constant": true,
      "inputs": [],
      "name": "scale",
      "outputs": [
        {
          "name": "",
          "type": "uint256"
        }
      ],
      "payable": false,
      "stateMutability": "view",
      "type": "function"
    },
    {
      "inputs": [],
      "payable": false,
      "stateMutability": "nonpayable",
      "type": "constructor"
    },
    {
      "anonymous": false,
      "inputs": [
        {
          "indexed": true,
          "name": "from",
          "type": "address"
        },
        {
          "indexed": true,
          "name": "to",
          "type": "address"
        },
        {
          "indexed": false,
          "name": "value",
          "type": "uint256"
        }
      ],
      "name": "Transfer",
      "type": "event"
    },
    {
      "anonymous": false,
      "inputs": [
        {
          "indexed": true,
          "name": "owner",
          "type": "address"
        },
        {
          "indexed": true,
          "name": "spender",
          "type": "address"
        },
        {
          "indexed": false,
          "name": "value",
          "type": "uint256"
        }
      ],
      "name": "Approval",
      "type": "event"
    },
    {
      "anonymous": false,
      "inputs": [
        {
          "indexed": true,
          "name": "previousOwner",
          "type": "address"
        },
        {
          "indexed": true,
          "name": "newOwner",
          "type": "address"
        }
      ],
      "name": "OwnershipTransferred",
      "type": "event"
    },
    {
      "constant": false,
      "inputs": [
        {
          "name": "reciever",
          "type": "address"
        },
        {
          "name": "value",
          "type": "uint256"
        }
      ],
      "name": "mint",
      "outputs": [],
      "payable": true,
      "stateMutability": "payable",
      "type": "function"
    },
    {
      "constant": false,
      "inputs": [
        {
          "name": "_amount",
          "type": "uint256"
        }
      ],
      "name": "burn",
      "outputs": [],
      "payable": false,
      "stateMutability": "nonpayable",
      "type": "function"
    },
    {
      "constant": true,
      "inputs": [
        {
          "name": "_amount",
          "type": "uint256"
        }
      ],
      "name": "calculateContinuousMintReturn",
      "outputs": [
        {
          "name": "mintAmount",
          "type": "uint256"
        }
      ],
      "payable": false,
      "stateMutability": "view",
      "type": "function"
    },
    {
      "constant": true,
      "inputs": [
        {
          "name": "_amount",
          "type": "uint256"
        }
      ],
      "name": "calculateContinuousBurnReturn",
      "outputs": [
        {
          "name": "burnAmount",
          "type": "uint256"
        }
      ],
      "payable": false,
      "stateMutability": "view",
      "type": "function"
    }
  ],
  "bytecode": "0x60806040526040805190810160405280600381526020017f302e3300000000000000000000000000000000000000000000000000000000008152506000908051906020019062000051929190620011e9565b50670de0b6b3a7640000608555608554600a026086556207a1206087553480156200007b57600080fd5b50701c35fedd14ffffffffffffffffffffffff600160206080811015156200009f57fe5b0181905550701b0ce43b323fffffffffffffffffffffff60016021608081101515620000c757fe5b01819055507019f0028ec1ffffffffffffffffffffffff60016022608081101515620000ef57fe5b01819055507018ded91f0e7fffffffffffffffffffffff600160236080811015156200011757fe5b01819055507017d8ec7f0417ffffffffffffffffffffff600160246080811015156200013f57fe5b01819055507016ddc6556cdbffffffffffffffffffffff600160256080811015156200016757fe5b01819055507015ecf52776a1ffffffffffffffffffffff600160266080811015156200018f57fe5b01819055507015060c256cb2ffffffffffffffffffffff60016027608081101515620001b757fe5b0181905550701428a2f98d72ffffffffffffffffffffff60016028608081101515620001df57fe5b01819055507013545598e5c23fffffffffffffffffffff600160296080811015156200020757fe5b0181905550701288c4161ce1dfffffffffffffffffffff6001602a6080811015156200022f57fe5b01819055507011c592761c666fffffffffffffffffffff6001602b6080811015156200025757fe5b018190555070110a688680a757ffffffffffffffffffff6001602c6080811015156200027f57fe5b0181905550701056f1b5bedf77ffffffffffffffffffff6001602d608081101515620002a757fe5b0181905550700faadceceeff8bffffffffffffffffffff6001602e608081101515620002cf57fe5b0181905550700f05dc6b27edadffffffffffffffffffff6001602f608081101515620002f757fe5b0181905550700e67a5a25da4107fffffffffffffffffff600160306080811015156200031f57fe5b0181905550700dcff115b14eedffffffffffffffffffff600160316080811015156200034757fe5b0181905550700d3e7a392431239fffffffffffffffffff600160326080811015156200036f57fe5b0181905550700cb2ff529eb71e4fffffffffffffffffff600160336080811015156200039757fe5b0181905550700c2d415c3db974afffffffffffffffffff60016034608081101515620003bf57fe5b0181905550700bad03e7d883f69bffffffffffffffffff60016035608081101515620003e757fe5b0181905550700b320d03b2c343d5ffffffffffffffffff600160366080811015156200040f57fe5b0181905550700abc25204e02828dffffffffffffffffff600160376080811015156200043757fe5b0181905550700a4b16f74ee4bb207fffffffffffffffff600160386080811015156200045f57fe5b01819055507009deaf736ac1f569ffffffffffffffffff600160396080811015156200048757fe5b0181905550700976bd9952c7aa957fffffffffffffffff6001603a608081101515620004af57fe5b01819055507009131271922eaa606fffffffffffffffff6001603b608081101515620004d757fe5b01819055507008b380f3558668c46fffffffffffffffff6001603c608081101515620004ff57fe5b0181905550700857ddf0117efa215bffffffffffffffff6001603d6080811015156200052757fe5b01819055507007ffffffffffffffffffffffffffffffff6001603e6080811015156200054f57fe5b01819055507007abbf6f6abb9d087fffffffffffffffff6001603f6080811015156200057757fe5b018190555070075af62cbac95f7dfa7fffffffffffffff600160406080811015156200059f57fe5b018190555070070d7fb7452e187ac13fffffffffffffff60016041608081101515620005c757fe5b01819055507006c3390ecc8af379295fffffffffffffff60016042608081101515620005ef57fe5b018190555070067c00a3b07ffc01fd6fffffffffffffff600160436080811015156200061757fe5b0181905550700637b647c39cbb9d3d27ffffffffffffff600160446080811015156200063f57fe5b01819055507005f63b1fc104dbd39587ffffffffffffff600160456080811015156200066757fe5b01819055507005b771955b36e12f7235ffffffffffffff600160466080811015156200068f57fe5b018190555070057b3d49dda84556d6f6ffffffffffffff60016047608081101515620006b757fe5b018190555070054183095b2c8ececf30ffffffffffffff60016048608081101515620006df57fe5b018190555070050a28be635ca2b888f77fffffffffffff600160496080811015156200070757fe5b01819055507004d5156639708c9db33c3fffffffffffff6001604a6080811015156200072f57fe5b01819055507004a23105873875bd52dfdfffffffffffff6001604b6080811015156200075757fe5b0181905550700471649d87199aa990756fffffffffffff6001604c6080811015156200077f57fe5b01819055507004429a21a029d4c1457cfbffffffffffff6001604d608081101515620007a757fe5b0181905550700415bc6d6fb7dd71af2cb3ffffffffffff6001604e608081101515620007cf57fe5b01819055507003eab73b3bbfe282243ce1ffffffffffff6001604f608081101515620007f757fe5b01819055507003c1771ac9fb6b4c18e229ffffffffffff600160506080811015156200081f57fe5b0181905550700399e96897690418f785257fffffffffff600160516080811015156200084757fe5b0181905550700373fc456c53bb779bf0ea9fffffffffff600160526080811015156200086f57fe5b018190555070034f9e8e490c48e67e6ab8bfffffffffff600160536080811015156200089757fe5b018190555070032cbfd4a7adc790560b3337ffffffffff60016054608081101515620008bf57fe5b018190555070030b50570f6e5d2acca94613ffffffffff60016055608081101515620008e757fe5b01819055507002eb40f9f620fda6b56c2861ffffffffff600160566080811015156200090f57fe5b01819055507002cc8340ecb0d0f520a6af58ffffffffff600160576080811015156200093757fe5b01819055507002af09481380a0a35cf1ba02ffffffffff600160586080811015156200095f57fe5b0181905550700292c5bdd3b92ec810287b1b3fffffffff600160596080811015156200098757fe5b0181905550700277abdcdab07d5a77ac6d6b9fffffffff6001605a608081101515620009af57fe5b018190555070025daf6654b1eaa55fd64df5efffffffff6001605b608081101515620009d757fe5b0181905550700244c49c648baa98192dce88b7ffffffff6001605c608081101515620009ff57fe5b018190555070022ce03cd5619a311b2471268bffffffff6001605d60808110151562000a2757fe5b0181905550700215f77c045fbe885654a44a0fffffffff6001605e60808110151562000a4f57fe5b01819055507001ffffffffffffffffffffffffffffffff6001605f60808110151562000a7757fe5b01819055507001eaefdbdaaee7421fc4d3ede5ffffffff6001606060808110151562000a9f57fe5b01819055507001d6bd8b2eb257df7e8ca57b09bfffffff6001606160808110151562000ac757fe5b01819055507001c35fedd14b861eb0443f7f133fffffff6001606260808110151562000aef57fe5b01819055507001b0ce43b322bcde4a56e8ada5afffffff6001606360808110151562000b1757fe5b018190555070019f0028ec1fff007f5a195a39dfffffff6001606460808110151562000b3f57fe5b018190555070018ded91f0e72ee74f49b15ba527ffffff6001606560808110151562000b6757fe5b018190555070017d8ec7f04136f4e5615fd41a63ffffff6001606660808110151562000b8f57fe5b018190555070016ddc6556cdb84bdc8d12d22e6fffffff6001606760808110151562000bb757fe5b018190555070015ecf52776a1155b5bd8395814f7fffff6001606860808110151562000bdf57fe5b018190555070015060c256cb23b3b3cc3754cf40ffffff6001606960808110151562000c0757fe5b01819055507001428a2f98d728ae223ddab715be3fffff6001606a60808110151562000c2f57fe5b018190555070013545598e5c23276ccf0ede68034fffff6001606b60808110151562000c5757fe5b01819055507001288c4161ce1d6f54b7f61081194fffff6001606c60808110151562000c7f57fe5b018190555070011c592761c666aa641d5a01a40f17ffff6001606d60808110151562000ca757fe5b0181905550700110a688680a7530515f3e6e6cfdcdffff6001606e60808110151562000ccf57fe5b01819055507001056f1b5bedf75c6bcb2ce8aed428ffff6001606f60808110151562000cf757fe5b01819055506ffaadceceeff8a0890f3875f008277fff6001607060808110151562000d1e57fe5b01819055506ff05dc6b27edad306388a600f6ba0bfff6001607160808110151562000d4557fe5b01819055506fe67a5a25da41063de1495d5b18cdbfff6001607260808110151562000d6c57fe5b01819055506fdcff115b14eedde6fc3aa5353f2e4fff6001607360808110151562000d9357fe5b01819055506fd3e7a3924312399f9aae2e0f868f8fff6001607460808110151562000dba57fe5b01819055506fcb2ff529eb71e41582cccd5a1ee26fff6001607560808110151562000de157fe5b01819055506fc2d415c3db974ab32a51840c0b67edff6001607660808110151562000e0857fe5b01819055506fbad03e7d883f69ad5b0a186184e06bff6001607760808110151562000e2f57fe5b01819055506fb320d03b2c343d4829abd6075f0cc5ff6001607860808110151562000e5657fe5b01819055506fabc25204e02828d73c6e80bcdb1a95bf6001607960808110151562000e7d57fe5b01819055506fa4b16f74ee4bb2040a1ec6c15fbbf2df6001607a60808110151562000ea457fe5b01819055506f9deaf736ac1f569deb1b5ae3f36c130f6001607b60808110151562000ecb57fe5b01819055506f976bd9952c7aa957f5937d790ef650376001607c60808110151562000ef257fe5b01819055506f9131271922eaa6064b73a22d0bd4f2bf6001607d60808110151562000f1957fe5b01819055506f8b380f3558668c46c91c49a2f8e967b96001607e60808110151562000f4057fe5b01819055506f857ddf0117efa215952912839f6473e66001607f60808110151562000f6757fe5b018190555033608160006101000a81548173ffffffffffffffffffffffffffffffffffffffff021916908373ffffffffffffffffffffffffffffffffffffffff160217905550608160009054906101000a900473ffffffffffffffffffffffffffffffffffffffff1673ffffffffffffffffffffffffffffffffffffffff16600073ffffffffffffffffffffffffffffffffffffffff167f8be0079c531659141344cd1fd0a4f28419497f9722a3daafe3b4186f6b6457e060405160405180910390a36200104a3360855460010262001050640100000000026401000000009004565b62001298565b600073ffffffffffffffffffffffffffffffffffffffff168273ffffffffffffffffffffffffffffffffffffffff16141515156200108d57600080fd5b620010b281608454620011c76401000000000262001516179091906401000000009004565b6084819055506200111a81608260008573ffffffffffffffffffffffffffffffffffffffff1673ffffffffffffffffffffffffffffffffffffffff16815260200190815260200160002054620011c76401000000000262001516179091906401000000009004565b608260008473ffffffffffffffffffffffffffffffffffffffff1673ffffffffffffffffffffffffffffffffffffffff168152602001908152602001600020819055508173ffffffffffffffffffffffffffffffffffffffff16600073ffffffffffffffffffffffffffffffffffffffff167fddf252ad1be2c89b69c2b068fc378daa952ba7f163c4a11628f55a4df523b3ef836040518082815260200191505060405180910390a35050565b6000808284019050838110151515620011df57600080fd5b8091505092915050565b828054600181600116156101000203166002900490600052602060002090601f016020900481019282601f106200122c57805160ff19168380011785556200125d565b828001600101855582156200125d579182015b828111156200125c5782518255916020019190600101906200123f565b5b5090506200126c919062001270565b5090565b6200129591905b808211156200129157600081600090555060010162001277565b5090565b90565b612fb480620012a86000396000f3fe608060405260043610610152576000357c01000000000000000000000000000000000000000000000000000000009004806370a08231116100c8578063a10954fe1161008c578063a10954fe146106c5578063a457c2d7146106f0578063a9059cbb14610763578063dd62ed3e146107d6578063f2fde38b1461085b578063f51e181a146108ac57610152565b806370a0823114610574578063715018a6146105d95780638da5cb5b146105f05780638f32d59b1461064757806390f0c2ea1461067657610152565b806329a00e7c1161011a57806329a00e7c14610302578063395093511461037557806340c10f19146103e857806342966c681461043657806349f9b0f71461047157806354fd4d50146104e457610152565b8063095ea7b3146101575780630c7d5cd8146101ca57806318160ddd146101f557806323b872dd1461022057806328c3d701146102b3575b600080fd5b34801561016357600080fd5b506101b06004803603604081101561017a57600080fd5b81019080803573ffffffffffffffffffffffffffffffffffffffff169060200190929190803590602001909291905050506108d7565b604051808215151515815260200191505060405180910390f35b3480156101d657600080fd5b506101df6108ee565b6040518082815260200191505060405180910390f35b34801561020157600080fd5b5061020a6108f4565b6040518082815260200191505060405180910390f35b34801561022c57600080fd5b506102996004803603606081101561024357600080fd5b81019080803573ffffffffffffffffffffffffffffffffffffffff169060200190929190803573ffffffffffffffffffffffffffffffffffffffff169060200190929190803590602001909291905050506108fe565b604051808215151515815260200191505060405180910390f35b3480156102bf57600080fd5b506102ec600480360360208110156102d657600080fd5b81019080803590602001909291905050506109af565b6040518082815260200191505060405180910390f35b34801561030e57600080fd5b5061035f6004803603608081101561032557600080fd5b810190808035906020019092919080359060200190929190803563ffffffff169060200190929190803590602001909291905050506109cf565b6040518082815260200191505060405180910390f35b34801561038157600080fd5b506103ce6004803603604081101561039857600080fd5b81019080803573ffffffffffffffffffffffffffffffffffffffff16906020019092919080359060200190929190505050610ad5565b604051808215151515815260200191505060405180910390f35b610434600480360360408110156103fe57600080fd5b81019080803573ffffffffffffffffffffffffffffffffffffffff16906020019092919080359060200190929190505050610b7a565b005b34801561044257600080fd5b5061046f6004803603602081101561045957600080fd5b8101908080359060200190929190505050610c01565b005b34801561047d57600080fd5b506104ce6004803603608081101561049457600080fd5b810190808035906020019092919080359060200190929190803563ffffffff16906020019092919080359060200190929190505050610c59565b6040518082815260200191505060405180910390f35b3480156104f057600080fd5b506104f9610d8e565b6040518080602001828103825283818151815260200191508051906020019080838360005b8381101561053957808201518184015260208101905061051e565b50505050905090810190601f1680156105665780820380516001836020036101000a031916815260200191505b509250505060405180910390f35b34801561058057600080fd5b506105c36004803603602081101561059757600080fd5b81019080803573ffffffffffffffffffffffffffffffffffffffff169060200190929190505050610e2c565b6040518082815260200191505060405180910390f35b3480156105e557600080fd5b506105ee610e75565b005b3480156105fc57600080fd5b50610605610f49565b604051808273ffffffffffffffffffffffffffffffffffffffff1673ffffffffffffffffffffffffffffffffffffffff16815260200191505060405180910390f35b34801561065357600080fd5b5061065c610f73565b604051808215151515815260200191505060405180910390f35b34801561068257600080fd5b506106af6004803603602081101561069957600080fd5b8101908080359060200190929190505050610fcb565b6040518082815260200191505060405180910390f35b3480156106d157600080fd5b506106da610feb565b6040518082815260200191505060405180910390f35b3480156106fc57600080fd5b506107496004803603604081101561071357600080fd5b81019080803573ffffffffffffffffffffffffffffffffffffffff16906020019092919080359060200190929190505050610ff1565b604051808215151515815260200191505060405180910390f35b34801561076f57600080fd5b506107bc6004803603604081101561078657600080fd5b81019080803573ffffffffffffffffffffffffffffffffffffffff16906020019092919080359060200190929190505050611096565b604051808215151515815260200191505060405180910390f35b3480156107e257600080fd5b50610845600480360360408110156107f957600080fd5b81019080803573ffffffffffffffffffffffffffffffffffffffff169060200190929190803573ffffffffffffffffffffffffffffffffffffffff1690602001909291905050506110ad565b6040518082815260200191505060405180910390f35b34801561086757600080fd5b506108aa6004803603602081101561087e57600080fd5b81019080803573ffffffffffffffffffffffffffffffffffffffff169060200190929190505050611134565b005b3480156108b857600080fd5b506108c1611153565b6040518082815260200191505060405180910390f35b60006108e4338484611159565b6001905092915050565b60875481565b6000608454905090565b600061090b8484846112bc565b6109a4843361099f85608360008a73ffffffffffffffffffffffffffffffffffffffff1673ffffffffffffffffffffffffffffffffffffffff16815260200190815260200160002060003373ffffffffffffffffffffffffffffffffffffffff1673ffffffffffffffffffffffffffffffffffffffff1681526020019081526020016000205461148c90919063ffffffff16565b611159565b600190509392505050565b60006109c86109bc6108f4565b608654608754856109cf565b9050919050565b600080851180156109e05750600084115b80156109f2575060008363ffffffff16115b8015610a0d5750620f424063ffffffff168363ffffffff1611155b1515610a1857600080fd5b6000821415610a2a5760009050610acd565b620f424063ffffffff168363ffffffff161415610a6d57610a6684610a5884886114ae90919063ffffffff16565b6114ec90919063ffffffff16565b9050610acd565b6000806000610a85878661151690919063ffffffff16565b9050610a96818888620f4240611537565b809350819450505060008260ff16610ab7858b6114ae90919063ffffffff16565b908060020a820491505090508881039450505050505b949350505050565b6000610b703384610b6b85608360003373ffffffffffffffffffffffffffffffffffffffff1673ffffffffffffffffffffffffffffffffffffffff16815260200190815260200160002060008973ffffffffffffffffffffffffffffffffffffffff1673ffffffffffffffffffffffffffffffffffffffff1681526020019081526020016000205461151690919063ffffffff16565b611159565b6001905092915050565b600081111515610bf2576040517f08c379a000000000000000000000000000000000000000000000000000000000815260040180806020018281038252601e8152602001807f4d7573742073656e6420657468657220746f2062757920746f6b656e732e000081525060200191505060405180910390fd5b610bfc828261171b565b505050565b6000610c0c826117d0565b90503373ffffffffffffffffffffffffffffffffffffffff166108fc829081150290604051600060405180830381858888f19350505050158015610c54573d6000803e3d6000fd5b505050565b60008085118015610c6a5750600084115b8015610c7c575060008363ffffffff16115b8015610c975750620f424063ffffffff168363ffffffff1611155b8015610ca35750848211155b1515610cae57600080fd5b6000821415610cc05760009050610d86565b84821415610cd057839050610d86565b620f424063ffffffff168363ffffffff161415610d1357610d0c85610cfe84876114ae90919063ffffffff16565b6114ec90919063ffffffff16565b9050610d86565b60008060008488039050610d2c8882620f424089611537565b80935081945050506000610d4984896114ae90919063ffffffff16565b905060008360ff16899060020a029050610d7e85610d70838561148c90919063ffffffff16565b6114ec90919063ffffffff16565b955050505050505b949350505050565b60008054600181600116156101000203166002900480601f016020809104026020016040519081016040528092919081815260200182805460018160011615610100020316600290048015610e245780601f10610df957610100808354040283529160200191610e24565b820191906000526020600020905b815481529060010190602001808311610e0757829003601f168201915b505050505081565b6000608260008373ffffffffffffffffffffffffffffffffffffffff1673ffffffffffffffffffffffffffffffffffffffff168152602001908152602001600020549050919050565b610e7d610f73565b1515610e8857600080fd5b600073ffffffffffffffffffffffffffffffffffffffff16608160009054906101000a900473ffffffffffffffffffffffffffffffffffffffff1673ffffffffffffffffffffffffffffffffffffffff167f8be0079c531659141344cd1fd0a4f28419497f9722a3daafe3b4186f6b6457e060405160405180910390a36000608160006101000a81548173ffffffffffffffffffffffffffffffffffffffff021916908373ffffffffffffffffffffffffffffffffffffffff160217905550565b6000608160009054906101000a900473ffffffffffffffffffffffffffffffffffffffff16905090565b6000608160009054906101000a900473ffffffffffffffffffffffffffffffffffffffff1673ffffffffffffffffffffffffffffffffffffffff163373ffffffffffffffffffffffffffffffffffffffff1614905090565b6000610fe4610fd86108f4565b60865460875485610c59565b9050919050565b60865481565b600061108c338461108785608360003373ffffffffffffffffffffffffffffffffffffffff1673ffffffffffffffffffffffffffffffffffffffff16815260200190815260200160002060008973ffffffffffffffffffffffffffffffffffffffff1673ffffffffffffffffffffffffffffffffffffffff1681526020019081526020016000205461148c90919063ffffffff16565b611159565b6001905092915050565b60006110a33384846112bc565b6001905092915050565b6000608360008473ffffffffffffffffffffffffffffffffffffffff1673ffffffffffffffffffffffffffffffffffffffff16815260200190815260200160002060008373ffffffffffffffffffffffffffffffffffffffff1673ffffffffffffffffffffffffffffffffffffffff16815260200190815260200160002054905092915050565b61113c610f73565b151561114757600080fd5b61115081611904565b50565b60855481565b600073ffffffffffffffffffffffffffffffffffffffff168273ffffffffffffffffffffffffffffffffffffffff161415151561119557600080fd5b600073ffffffffffffffffffffffffffffffffffffffff168373ffffffffffffffffffffffffffffffffffffffff16141515156111d157600080fd5b80608360008573ffffffffffffffffffffffffffffffffffffffff1673ffffffffffffffffffffffffffffffffffffffff16815260200190815260200160002060008473ffffffffffffffffffffffffffffffffffffffff1673ffffffffffffffffffffffffffffffffffffffff168152602001908152602001600020819055508173ffffffffffffffffffffffffffffffffffffffff168373ffffffffffffffffffffffffffffffffffffffff167f8c5be1e5ebec7d5bd14f71427d1e84f3dd0314c0f7b2291e5b200ac8c7c3b925836040518082815260200191505060405180910390a3505050565b600073ffffffffffffffffffffffffffffffffffffffff168273ffffffffffffffffffffffffffffffffffffffff16141515156112f857600080fd5b61134a81608260008673ffffffffffffffffffffffffffffffffffffffff1673ffffffffffffffffffffffffffffffffffffffff1681526020019081526020016000205461148c90919063ffffffff16565b608260008573ffffffffffffffffffffffffffffffffffffffff1673ffffffffffffffffffffffffffffffffffffffff168152602001908152602001600020819055506113df81608260008573ffffffffffffffffffffffffffffffffffffffff1673ffffffffffffffffffffffffffffffffffffffff1681526020019081526020016000205461151690919063ffffffff16565b608260008473ffffffffffffffffffffffffffffffffffffffff1673ffffffffffffffffffffffffffffffffffffffff168152602001908152602001600020819055508173ffffffffffffffffffffffffffffffffffffffff168373ffffffffffffffffffffffffffffffffffffffff167fddf252ad1be2c89b69c2b068fc378daa952ba7f163c4a11628f55a4df523b3ef836040518082815260200191505060405180910390a3505050565b600082821115151561149d57600080fd5b600082840390508091505092915050565b6000808314156114c157600090506114e6565b600082840290508284828115156114d457fe5b041415156114e157600080fd5b809150505b92915050565b600080821115156114fc57600080fd5b6000828481151561150957fe5b0490508091505092915050565b600080828401905083811015151561152d57600080fd5b8091505092915050565b600080700200000000000000000000000000000000861015156115c2576040517f08c379a00000000000000000000000000000000000000000000000000000000081526004018080602001828103825260188152602001807f626173654e2065786365656473206d61782076616c75652e000000000000000081525060200191505060405180910390fd5b84861015151561163a576040517f08c379a000000000000000000000000000000000000000000000000000000000815260040180806020018281038252601c8152602001807f4261736573203c203120617265206e6f7420737570706f727465642e0000000081525060200191505060405180910390fd5b600080866f80000000000000000000000000000000890281151561165a57fe5b04905070015bf0a8b1457695355fb8ac404e7a79e38110156116865761167f81611a00565b9150611692565b61168f81611fd0565b91505b60008563ffffffff168763ffffffff1684028115156116ad57fe5b0490507008000000000000000000000000000000008110156116e0576116d281612115565b607f94509450505050611712565b60006116eb826126d5565b905061170881607f0360ff1683908060020a82049150508261279a565b8195509550505050505b94509492505050565b60008082111515611794576040517f08c379a00000000000000000000000000000000000000000000000000000000081526004018080602001828103825260198152602001807f4465706f736974206d757374206265206e6f6e2d7a65726f2e0000000000000081525060200191505060405180910390fd5b600061179f836109af565b90506117ab8482612c3d565b6117c08360865461151690919063ffffffff16565b6086819055508091505092915050565b60008082111515611849576040517f08c379a00000000000000000000000000000000000000000000000000000000081526004018080602001828103825260188152602001807f416d6f756e74206d757374206265206e6f6e2d7a65726f2e000000000000000081525060200191505060405180910390fd5b8161185333610e2c565b101515156118c9576040517f08c379a000000000000000000000000000000000000000000000000000000000815260040180806020018281038252601c8152602001807f496e73756666696369656e7420746f6b656e7320746f206275726e2e0000000081525060200191505060405180910390fd5b60006118d483610fcb565b90506118eb8160865461148c90919063ffffffff16565b6086819055506118fb3384612d93565b80915050919050565b600073ffffffffffffffffffffffffffffffffffffffff168173ffffffffffffffffffffffffffffffffffffffff161415151561194057600080fd5b8073ffffffffffffffffffffffffffffffffffffffff16608160009054906101000a900473ffffffffffffffffffffffffffffffffffffffff1673ffffffffffffffffffffffffffffffffffffffff167f8be0079c531659141344cd1fd0a4f28419497f9722a3daafe3b4186f6b6457e060405160405180910390a380608160006101000a81548173ffffffffffffffffffffffffffffffffffffffff021916908373ffffffffffffffffffffffffffffffffffffffff16021790555050565b6000806000905060008060006fd3094c70f034de4b96ff7d5b6f99fcd886101515611a6b576f40000000000000000000000000000000840193506fd3094c70f034de4b96ff7d5b6f99fcd86f800000000000000000000000000000008702811515611a6757fe5b0495505b6fa45af1e1f40c333b3de1db4dd55f29a786101515611aca576f20000000000000000000000000000000840193506fa45af1e1f40c333b3de1db4dd55f29a76f800000000000000000000000000000008702811515611ac657fe5b0495505b6f910b022db7ae67ce76b441c27035c6a186101515611b29576f10000000000000000000000000000000840193506f910b022db7ae67ce76b441c27035c6a16f800000000000000000000000000000008702811515611b2557fe5b0495505b6f88415abbe9a76bead8d00cf112e4d4a886101515611b88576f08000000000000000000000000000000840193506f88415abbe9a76bead8d00cf112e4d4a86f800000000000000000000000000000008702811515611b8457fe5b0495505b6f84102b00893f64c705e841d5d4064bd386101515611be7576f04000000000000000000000000000000840193506f84102b00893f64c705e841d5d4064bd36f800000000000000000000000000000008702811515611be357fe5b0495505b6f8204055aaef1c8bd5c3259f4822735a286101515611c46576f02000000000000000000000000000000840193506f8204055aaef1c8bd5c3259f4822735a26f800000000000000000000000000000008702811515611c4257fe5b0495505b6f810100ab00222d861931c15e39b44e9986101515611ca5576f01000000000000000000000000000000840193506f810100ab00222d861931c15e39b44e996f800000000000000000000000000000008702811515611ca157fe5b0495505b6f808040155aabbbe9451521693554f73386101515611d03576e800000000000000000000000000000840193506f808040155aabbbe9451521693554f7336f800000000000000000000000000000008702811515611cff57fe5b0495505b6f80000000000000000000000000000000860392508291506f80000000000000000000000000000000838402811515611d3857fe5b04905070010000000000000000000000000000000083700100000000000000000000000000000000038302811515611d6c57fe5b04840193506f80000000000000000000000000000000818302811515611d8e57fe5b049150700200000000000000000000000000000000836faaaaaaaaaaaaaaaaaaaaaaaaaaaaaaaa038302811515611dc157fe5b04840193506f80000000000000000000000000000000818302811515611de357fe5b049150700300000000000000000000000000000000836f99999999999999999999999999999999038302811515611e1657fe5b04840193506f80000000000000000000000000000000818302811515611e3857fe5b049150700400000000000000000000000000000000836f92492492492492492492492492492492038302811515611e6b57fe5b04840193506f80000000000000000000000000000000818302811515611e8d57fe5b049150700500000000000000000000000000000000836f8e38e38e38e38e38e38e38e38e38e38e038302811515611ec057fe5b04840193506f80000000000000000000000000000000818302811515611ee257fe5b049150700600000000000000000000000000000000836f8ba2e8ba2e8ba2e8ba2e8ba2e8ba2e8b038302811515611f1557fe5b04840193506f80000000000000000000000000000000818302811515611f3757fe5b049150700700000000000000000000000000000000836f89d89d89d89d89d89d89d89d89d89d89038302811515611f6a57fe5b04840193506f80000000000000000000000000000000818302811515611f8c57fe5b049150700800000000000000000000000000000000836f88888888888888888888888888888888038302811515611fbf57fe5b048401935083945050505050919050565b6000806000905060008390507001000000000000000000000000000000008110151561204957600061201c6f800000000000000000000000000000008381151561201657fe5b04612ee9565b90508060ff1682908060020a820491505091506f800000000000000000000000000000008160ff16029250505b6f800000000000000000000000000000008111156120de576000607f90505b60008160ff1611156120dc576f8000000000000000000000000000000082830281151561209157fe5b049150700100000000000000000000000000000000821015156120d057600182908060020a820491505091506001810360ff1660019060020a02830192505b80600190039050612068565b505b6f05b9de1d10bf4103d647b0955897ba806f03f80fe03f80fe03f80fe03f80fe03f8830281151561210b57fe5b0492505050919050565b600080600090506000806f100000000000000000000000000000008581151561213a57fe5b0691508190506f8000000000000000000000000000000082820281151561215d57fe5b0490506710e1b3be415a00008102830192506f8000000000000000000000000000000082820281151561218c57fe5b0490506705a0913f6b1e00008102830192506f800000000000000000000000000000008282028115156121bb57fe5b049050670168244fdac780008102830192506f800000000000000000000000000000008282028115156121ea57fe5b049050664807432bc180008102830192506f8000000000000000000000000000000082820281151561221857fe5b049050660c0135dca040008102830192506f8000000000000000000000000000000082820281151561224657fe5b0490506601b707b1cdc0008102830192506f8000000000000000000000000000000082820281151561227457fe5b0490506536e0f639b8008102830192506f800000000000000000000000000000008282028115156122a157fe5b049050650618fee9f8008102830192506f800000000000000000000000000000008282028115156122ce57fe5b049050649c197dcc008102830192506f800000000000000000000000000000008282028115156122fa57fe5b049050640e30dce4008102830192506f8000000000000000000000000000000082820281151561232657fe5b04905064012ebd13008102830192506f8000000000000000000000000000000082820281151561235257fe5b0490506317499f008102830192506f8000000000000000000000000000000082820281151561237d57fe5b0490506301a9d4808102830192506f800000000000000000000000000000008282028115156123a857fe5b049050621c63808102830192506f800000000000000000000000000000008282028115156123d257fe5b0490506201c6388102830192506f800000000000000000000000000000008282028115156123fc57fe5b049050611ab88102830192506f8000000000000000000000000000000082820281151561242557fe5b04905061017c8102830192506f8000000000000000000000000000000082820281151561244e57fe5b04905060148102830192506f8000000000000000000000000000000082820281151561247657fe5b04905060018102830192506f80000000000000000000000000000000826721c3677c82b40000858115156124a657fe5b040101925060006f1000000000000000000000000000000086161415156124fa5770018ebef9eac820ae8682b9793ac6d1e7767001c3d6a24ed82218787d624d3e5eba95f984028115156124f657fe5b0492505b60006f200000000000000000000000000000008616141515612549577001368b2fc6f9609fe7aceb46aa619baed470018ebef9eac820ae8682b9793ac6d1e778840281151561254557fe5b0492505b60006f400000000000000000000000000000008616141515612597576fbc5ab1b16779be3575bd8f0520a9f21f7001368b2fc6f9609fe7aceb46aa619baed5840281151561259357fe5b0492505b60006f8000000000000000000000000000000086161415156125e4576f454aaa8efe072e7f6ddbab84b40a55c96fbc5ab1b16779be3575bd8f0520a9f21e84028115156125e057fe5b0492505b60007001000000000000000000000000000000008616141515612632576f0960aadc109e7a3bf4578099615711ea6f454aaa8efe072e7f6ddbab84b40a55c5840281151561262e57fe5b0492505b6000700200000000000000000000000000000000861614151561267f576e2bf84208204f5977f9a8cf01fdce3d6f0960aadc109e7a3bf4578099615711d7840281151561267b57fe5b0492505b600070040000000000000000000000000000000086161415156126ca576d03c6ab775dd0b95b4cbee7e65d116e2bf84208204f5977f9a8cf01fdc30784028115156126c657fe5b0492505b829350505050919050565b600080602090506000607f90505b8060ff166001830160ff161015612738576000600282840160ff1681151561270757fe5b0490508460018260ff1660808110151561271d57fe5b015410151561272e57809250612732565b8091505b506126e3565b8360018260ff1660808110151561274b57fe5b015410151561275e578092505050612795565b8360018360ff1660808110151561277157fe5b0154101515612784578192505050612795565b6000151561278e57fe5b6000925050505b919050565b60008083905060008090508360ff16858302908060020a820491505091506f03442c4e6074a82f1797f72ac00000008202810190508360ff16858302908060020a820491505091506f0116b96f757c380fb287fd0e400000008202810190508360ff16858302908060020a820491505091506e45ae5bdd5f0e03eca1ff43900000008202810190508360ff16858302908060020a820491505091506e0defabf91302cd95b9ffda500000008202810190508360ff16858302908060020a820491505091506e02529ca9832b22439efff9b80000008202810190508360ff16858302908060020a820491505091506d54f1cf12bd04e516b6da880000008202810190508360ff16858302908060020a820491505091506d0a9e39e257a09ca2d6db510000008202810190508360ff16858302908060020a820491505091506d012e066e7b839fa050c3090000008202810190508360ff16858302908060020a820491505091506c1e33d7d926c329a1ad1a8000008202810190508360ff16858302908060020a820491505091506c02bee513bdb4a6b19b5f8000008202810190508360ff16858302908060020a820491505091506b3a9316fa79b88eccf2a000008202810190508360ff16858302908060020a820491505091506b048177ebe1fa8123752000008202810190508360ff16858302908060020a820491505091506a5263fe90242dcbacf000008202810190508360ff16858302908060020a820491505091506a057e22099c030d941000008202810190508360ff16858302908060020a820491505091506957e22099c030d94100008202810190508360ff16858302908060020a8204915050915069052b6b545699763100008202810190508360ff16858302908060020a82049150509150684985f67696bf7480008202810190508360ff16858302908060020a820491505091506803dea12ea99e4980008202810190508360ff16858302908060020a820491505091506731880f2214b6e0008202810190508360ff16858302908060020a8204915050915067025bcff56eb360008202810190508360ff16858302908060020a82049150509150661b722e10ab10008202810190508360ff16858302908060020a820491505091506601317c700770008202810190508360ff16858302908060020a82049150509150650cba84aafa008202810190508360ff16858302908060020a820491505091506482573a0a008202810190508360ff16858302908060020a820491505091506405035ad9008202810190508360ff16858302908060020a82049150509150632f881b008202810190508360ff16858302908060020a820491505091506301b293408202810190508360ff16858302908060020a82049150509150620efc408202810190508360ff16858302908060020a82049150509150617fe08202810190508360ff16858302908060020a820491505091506104208202810190508360ff16858302908060020a8204915050915060218202810190508360ff16858302908060020a8204915050915060018202810190508360ff1660019060020a02856f0688589cc0e9505e2f2fee558000000083811515612c3057fe5b0401019250505092915050565b600073ffffffffffffffffffffffffffffffffffffffff168273ffffffffffffffffffffffffffffffffffffffff1614151515612c7957600080fd5b612c8e8160845461151690919063ffffffff16565b608481905550612ce681608260008573ffffffffffffffffffffffffffffffffffffffff1673ffffffffffffffffffffffffffffffffffffffff1681526020019081526020016000205461151690919063ffffffff16565b608260008473ffffffffffffffffffffffffffffffffffffffff1673ffffffffffffffffffffffffffffffffffffffff168152602001908152602001600020819055508173ffffffffffffffffffffffffffffffffffffffff16600073ffffffffffffffffffffffffffffffffffffffff167fddf252ad1be2c89b69c2b068fc378daa952ba7f163c4a11628f55a4df523b3ef836040518082815260200191505060405180910390a35050565b600073ffffffffffffffffffffffffffffffffffffffff168273ffffffffffffffffffffffffffffffffffffffff1614151515612dcf57600080fd5b612de48160845461148c90919063ffffffff16565b608481905550612e3c81608260008573ffffffffffffffffffffffffffffffffffffffff1673ffffffffffffffffffffffffffffffffffffffff1681526020019081526020016000205461148c90919063ffffffff16565b608260008473ffffffffffffffffffffffffffffffffffffffff1673ffffffffffffffffffffffffffffffffffffffff16815260200190815260200160002081905550600073ffffffffffffffffffffffffffffffffffffffff168273ffffffffffffffffffffffffffffffffffffffff167fddf252ad1be2c89b69c2b068fc378daa952ba7f163c4a11628f55a4df523b3ef836040518082815260200191505060405180910390a35050565b600080600090506000839050610100811015612f28575b6001811115612f2357600181908060020a82049150509050600182019150612f00565b612f7e565b6000608090505b60008160ff161115612f7c578060ff1660019060020a0282101515612f65578060ff1682908060020a8204915050915080831792505b60018160ff16908060020a82049150509050612f2f565b505b819250505091905056fea165627a7a723058201e1de722ca7ea008812fd73d8998c76b9d84d2961ede2064d92e9e7d4b0e2a8c0029",
  "source": "pragma solidity ^0.5.2;\r\n\r\nimport \"openzeppelin-solidity/contracts/math/SafeMath.sol\";\r\nimport \"openzeppelin-solidity/contracts/token/ERC20/ERC20.sol\";\r\nimport \"openzeppelin-solidity/contracts/ownership/Ownable.sol\";\r\n\r\nimport \"./BancorBondingCurve.sol\";\r\n\r\ncontract ContinuousToken is BancorBondingCurve, Ownable, ERC20 {\r\n    \r\n    using SafeMath for uint256;\r\n\r\n    uint256 public scale = 10**18;\r\n    uint256 public reserveBalance = 10*scale;\r\n    uint256 public reserveRatio = 500000;\r\n\r\n    constructor() public {\r\n        _mint(msg.sender, 1*scale);\r\n    }\r\n\r\n    function mint(address reciever, uint value) public payable {\r\n        require(value > 0, \"Must send ether to buy tokens.\");\r\n        _continuousMint(reciever, value);\r\n    }\r\n\r\n    function burn(uint256 _amount) public {\r\n        uint256 returnAmount = _continuousBurn(_amount);\r\n        msg.sender.transfer(returnAmount);\r\n    }\r\n\r\n    function calculateContinuousMintReturn(uint256 _amount)\r\n        public view returns (uint256 mintAmount)\r\n    {\r\n        return calculatePurchaseReturn(totalSupply(), reserveBalance, uint32(reserveRatio), _amount);\r\n    }\r\n\r\n    function calculateContinuousBurnReturn(uint256 _amount)\r\n        public view returns (uint256 burnAmount)\r\n    {\r\n        return calculateSaleReturn(totalSupply(), reserveBalance, uint32(reserveRatio), _amount);\r\n    }\r\n\r\n    function _continuousMint(address reciever, uint value)\r\n        internal returns (uint256)\r\n    {\r\n        require(value > 0, \"Deposit must be non-zero.\");\r\n\r\n        uint256 amount = calculateContinuousMintReturn(value);\r\n        _mint(reciever, amount);\r\n        reserveBalance = reserveBalance.add(value);\r\n        return amount;\r\n    }\r\n\r\n    function _continuousBurn(uint256 _amount)\r\n        internal returns (uint256)\r\n    {\r\n        require(_amount > 0, \"Amount must be non-zero.\");\r\n        require(balanceOf(msg.sender) >= _amount, \"Insufficient tokens to burn.\");\r\n\r\n        uint256 reimburseAmount = calculateContinuousBurnReturn(_amount);\r\n        reserveBalance = reserveBalance.sub(reimburseAmount);\r\n        _burn(msg.sender, _amount);\r\n        return reimburseAmount;\r\n    }\r\n}",
  "sourcePath": "D:\\dapps\\space-miners\\contracts\\ContinuousToken.sol",
  "compiler": {
    "name": "solc",
    "version": "0.5.2+commit.1df8f40c.Emscripten.clang"
  },
  "schemaVersion": "3.0.6",
  "updatedAt": "2019-05-22T04:41:39.762Z",
  "devdoc": {
    "methods": {
      "allowance(address,address)": {
        "details": "Function to check the amount of tokens that an owner allowed to a spender.",
        "params": {
          "owner": "address The address which owns the funds.",
          "spender": "address The address which will spend the funds."
        },
        "return": "A uint256 specifying the amount of tokens still available for the spender."
      },
      "approve(address,uint256)": {
        "details": "Approve the passed address to spend the specified amount of tokens on behalf of msg.sender. Beware that changing an allowance with this method brings the risk that someone may use both the old and the new allowance by unfortunate transaction ordering. One possible solution to mitigate this race condition is to first reduce the spender's allowance to 0 and set the desired value afterwards: https://github.com/ethereum/EIPs/issues/20#issuecomment-263524729",
        "params": {
          "spender": "The address which will spend the funds.",
          "value": "The amount of tokens to be spent."
        }
      },
      "balanceOf(address)": {
        "details": "Gets the balance of the specified address.",
        "params": {
          "owner": "The address to query the balance of."
        },
        "return": "A uint256 representing the amount owned by the passed address."
      },
      "calculatePurchaseReturn(uint256,uint256,uint32,uint256)": {
        "details": "given a continuous token supply, reserve token balance, reserve ratio, and a deposit amount (in the reserve token),\r calculates the return for a given conversion (in the continuous token)\r    * Formula:\r Return = _supply * ((1 + _depositAmount / _reserveBalance) ^ (_reserveRatio / MAX_RESERVE_RATIO) - 1)\r ",
        "params": {
          "_depositAmount": "deposit amount, in reserve token\r ",
          "_reserveBalance": "total reserve token balance\r",
          "_reserveRatio": "reserve ratio, represented in ppm, 1-1000000\r",
          "_supply": "continuous token total supply\r"
        },
        "return": "purchase return amount\r"
      },
      "calculateSaleReturn(uint256,uint256,uint32,uint256)": {
        "details": "given a continuous token supply, reserve token balance, reserve ratio and a sell amount (in the continuous token),\r calculates the return for a given conversion (in the reserve token)\r    * Formula:\r Return = _reserveBalance * (1 - (1 - _sellAmount / _supply) ^ (1 / (_reserveRatio / MAX_RESERVE_RATIO)))\r ",
        "params": {
          "_reserveBalance": "total reserve token balance\r",
          "_reserveRatio": "constant reserve ratio, represented in ppm, 1-1000000\r",
          "_sellAmount": "sell amount, in the continuous token itself\r ",
          "_supply": "continuous token total supply\r"
        },
        "return": "sale return amount\r"
      },
      "decreaseAllowance(address,uint256)": {
        "details": "Decrease the amount of tokens that an owner allowed to a spender. approve should be called when _allowed[msg.sender][spender] == 0. To decrement allowed value is better to use this function to avoid 2 calls (and wait until the first transaction is mined) From MonolithDAO Token.sol Emits an Approval event.",
        "params": {
          "spender": "The address which will spend the funds.",
          "subtractedValue": "The amount of tokens to decrease the allowance by."
        }
      },
      "increaseAllowance(address,uint256)": {
        "details": "Increase the amount of tokens that an owner allowed to a spender. approve should be called when _allowed[msg.sender][spender] == 0. To increment allowed value is better to use this function to avoid 2 calls (and wait until the first transaction is mined) From MonolithDAO Token.sol Emits an Approval event.",
        "params": {
          "addedValue": "The amount of tokens to increase the allowance by.",
          "spender": "The address which will spend the funds."
        }
      },
      "isOwner()": {
        "return": "true if `msg.sender` is the owner of the contract."
      },
      "owner()": {
        "return": "the address of the owner."
      },
      "renounceOwnership()": {
        "details": "Allows the current owner to relinquish control of the contract. It will not be possible to call the functions with the `onlyOwner` modifier anymore."
      },
      "totalSupply()": {
        "details": "Total number of tokens in existence"
      },
      "transfer(address,uint256)": {
        "details": "Transfer token to a specified address",
        "params": {
          "to": "The address to transfer to.",
          "value": "The amount to be transferred."
        }
      },
      "transferFrom(address,address,uint256)": {
        "details": "Transfer tokens from one address to another. Note that while this function emits an Approval event, this is not required as per the specification, and other compliant implementations may not emit the event.",
        "params": {
          "from": "address The address which you want to send tokens from",
          "to": "address The address which you want to transfer to",
          "value": "uint256 the amount of tokens to be transferred"
        }
      },
      "transferOwnership(address)": {
        "details": "Allows the current owner to transfer control of the contract to a newOwner.",
        "params": {
          "newOwner": "The address to transfer ownership to."
        }
      }
    }
  },
  "userdoc": {
    "methods": {
      "renounceOwnership()": {
        "notice": "Renouncing ownership will leave the contract without an owner, thereby removing any functionality that is only available to the owner."
      }
    }
  }
}