{
  "contractName": "SpaceMiners",
  "abi": [
    {
      "constant": true,
      "inputs": [],
      "name": "PRICE_TO_MINE",
      "outputs": [
        {
          "name": "",
          "type": "uint256"
        }
      ],
      "payable": false,
      "stateMutability": "view",
      "type": "function",
      "signature": "0x6051666f"
    },
    {
      "constant": true,
      "inputs": [],
      "name": "getPriceToMine",
      "outputs": [
        {
          "name": "",
          "type": "uint256"
        }
      ],
      "payable": false,
      "stateMutability": "view",
      "type": "function",
      "signature": "0x3b595c14"
    },
    {
      "constant": true,
      "inputs": [],
      "name": "getPlanetCapacity",
      "outputs": [
        {
          "name": "",
          "type": "uint256"
        }
      ],
      "payable": false,
      "stateMutability": "view",
      "type": "function",
      "signature": "0xd23d7ab1"
    },
    {
      "constant": true,
      "inputs": [],
      "name": "getPlanetPopulation",
      "outputs": [
        {
          "name": "",
          "type": "uint256"
        }
      ],
      "payable": false,
      "stateMutability": "view",
      "type": "function",
      "signature": "0xdf0298cc"
    },
    {
      "constant": true,
      "inputs": [],
      "name": "getIsMinerOnPlanet",
      "outputs": [
        {
          "name": "",
          "type": "bool"
        }
      ],
      "payable": false,
      "stateMutability": "view",
      "type": "function",
      "signature": "0x3170d0cb"
    },
    {
      "constant": false,
      "inputs": [
        {
          "name": "numMiners",
          "type": "uint256"
        }
      ],
      "name": "sendMinersToPlanet",
      "outputs": [],
      "payable": true,
      "stateMutability": "payable",
      "type": "function",
      "signature": "0xbbbf2269"
    },
    {
      "constant": true,
      "inputs": [],
      "name": "getEthToKeriumRatio",
      "outputs": [
        {
          "name": "",
          "type": "uint256"
        }
      ],
      "payable": false,
      "stateMutability": "pure",
      "type": "function",
      "signature": "0x063b11f1"
    }
  ],
  "bytecode": "0x608060405266470de4df820000600055600a600155600560025560006003556001600460006101000a81548160ff02191690831515021790555060015460405190808252806020026020018201604052801561006a5781602001602082028038833980820191505090505b5060059080519060200190610080929190610093565b5034801561008d57600080fd5b50610160565b82805482825590600052602060002090810192821561010c579160200282015b8281111561010b5782518260006101000a81548173ffffffffffffffffffffffffffffffffffffffff021916908373ffffffffffffffffffffffffffffffffffffffff160217905550916020019190600101906100b3565b5b509050610119919061011d565b5090565b61015d91905b8082111561015957600081816101000a81549073ffffffffffffffffffffffffffffffffffffffff021916905550600101610123565b5090565b90565b61068b8061016f6000396000f3fe60806040526004361061008d576000357c0100000000000000000000000000000000000000000000000000000000900480636051666f1161006b5780636051666f14610117578063bbbf226914610142578063d23d7ab114610170578063df0298cc1461019b5761008d565b8063063b11f1146100925780633170d0cb146100bd5780633b595c14146100ec575b600080fd5b34801561009e57600080fd5b506100a76101c6565b6040518082815260200191505060405180910390f35b3480156100c957600080fd5b506100d26101cf565b604051808215151515815260200191505060405180910390f35b3480156100f857600080fd5b5061010161026e565b6040518082815260200191505060405180910390f35b34801561012357600080fd5b5061012c610277565b6040518082815260200191505060405180910390f35b61016e6004803603602081101561015857600080fd5b810190808035906020019092919050505061027d565b005b34801561017c57600080fd5b50610185610381565b6040518082815260200191505060405180910390f35b3480156101a757600080fd5b506101b061038b565b6040518082815260200191505060405180910390f35b60006001905090565b600080600090505b600154811015610265573373ffffffffffffffffffffffffffffffffffffffff1660058281548110151561020757fe5b9060005260206000200160009054906101000a900473ffffffffffffffffffffffffffffffffffffffff1673ffffffffffffffffffffffffffffffffffffffff16141561025857600191505061026b565b80806001019150506101d7565b50600090505b90565b60008054905090565b60005481565b600460009054906101000a900460ff16151561029857600080fd5b600054810234101515156102ab57600080fd5b6001546003541015156102bd57600080fd5b3360056003548154811015156102cf57fe5b9060005260206000200160006101000a81548173ffffffffffffffffffffffffffffffffffffffff021916908373ffffffffffffffffffffffffffffffffffffffff16021790555061032d600160035461039590919063ffffffff16565b600381905550600154600354141561037e576000600460006101000a81548160ff0219169083151502179055506103626103b6565b6001600460006101000a81548160ff0219169083151502179055505b50565b6000600154905090565b6000600354905090565b60008082840190508381101515156103ac57600080fd5b8091505092915050565b600060015460005402905060006103cf600254836104a7565b90506103e481836104d790919063ffffffff16565b915060606103f06104f9565b905060008090505b6001548110156104a157600061040f6032866104a7565b9050610432838381518110151561042257fe5b9060200190602002015182610587565b61044581866104d790919063ffffffff16565b94506000838381518110151561045757fe5b9060200190602002019073ffffffffffffffffffffffffffffffffffffffff16908173ffffffffffffffffffffffffffffffffffffffff16815250505080806001019150506103f8565b50505050565b60006104cf60646104c185856105f790919063ffffffff16565b61063590919063ffffffff16565b905092915050565b60008282111515156104e857600080fd5b600082840390508091505092915050565b6060600580548060200260200160405190810160405280929190818152602001828054801561057d57602002820191906000526020600020905b8160009054906101000a900473ffffffffffffffffffffffffffffffffffffffff1673ffffffffffffffffffffffffffffffffffffffff1681526020019060010190808311610533575b5050505050905090565b60006105a36105946101c6565b836105f790919063ffffffff16565b905060008390508073ffffffffffffffffffffffffffffffffffffffff166108fc839081150290604051600060405180830381858888f193505050501580156105f0573d6000803e3d6000fd5b5050505050565b60008083141561060a576000905061062f565b6000828402905082848281151561061d57fe5b0414151561062a57600080fd5b809150505b92915050565b6000808211151561064557600080fd5b6000828481151561065257fe5b049050809150509291505056fea165627a7a723058206330fda15342f3a048b2b9c0ffa02207674b9c32929111d29bde7a0c6430ea370029",
  "source": "pragma solidity ^0.5.2;\r\n\r\nimport \"openzeppelin-solidity/contracts/math/SafeMath.sol\";\r\n\r\ncontract SpaceMiners {\r\n\r\n  using SafeMath for uint;\r\n\r\n  uint public PRICE_TO_MINE = 20 finney;\r\n  uint PLANET_CAPACITY = 10;\r\n  uint OWNER_FEE_PERCENT = 5;\r\n  uint planetPopulation = 0;\r\n  bool planetMinable = true;\r\n\r\n  address[] miners = new address[](PLANET_CAPACITY);\r\n\r\n  function getPriceToMine() public view returns (uint) {\r\n    return PRICE_TO_MINE;\r\n  }\r\n\r\n  function getPlanetCapacity() public view returns (uint) {\r\n    return PLANET_CAPACITY;\r\n  }\r\n\r\n  function getPlanetPopulation() public view returns (uint) {\r\n    return planetPopulation;\r\n  }\r\n\r\n  function getIsMinerOnPlanet() public view returns (bool) {\r\n    for (uint i = 0; i < PLANET_CAPACITY; i++) {\r\n      if (miners[i] == msg.sender) {\r\n        return true;\r\n      }\r\n    }\r\n    return false;\r\n  }\r\n\r\n  function sendMinersToPlanet(uint numMiners) public payable {\r\n    require(planetMinable);\r\n    require(msg.value >= numMiners * PRICE_TO_MINE);\r\n    require(planetPopulation < PLANET_CAPACITY);\r\n    miners[planetPopulation] = msg.sender;\r\n    planetPopulation = planetPopulation.add(1);\r\n    if (planetPopulation == PLANET_CAPACITY) {\r\n      planetMinable = false;\r\n      rewardMiners();\r\n      planetMinable = true;\r\n    }\r\n  }\r\n\r\n  function getRandomisedMinerList() view internal returns (address[] memory) {\r\n    // TODO: Use random engine\r\n    return miners;\r\n  }\r\n\r\n  function percentOfValue(uint percent, uint value) pure internal returns (uint) {\r\n    return (value.mul(percent)).div(100);\r\n  }\r\n\r\n  function getEthToKeriumRatio() pure public returns (uint) {\r\n    // TODO: Get price from Bancor\r\n    return 1;\r\n  }\r\n\r\n  function giveMinerReward(address recipient, uint rewardAmount) internal {\r\n    uint keriumAmount = rewardAmount.mul(getEthToKeriumRatio());\r\n    // TODO: Transfer Token instead\r\n    address payable temp = address(uint160(recipient));\r\n    temp.transfer(keriumAmount);\r\n  }\r\n\r\n  function rewardMiners() internal {\r\n    // First take OWNER_FEE_PERCENT\r\n    uint roundEarnings = PRICE_TO_MINE * PLANET_CAPACITY;\r\n    uint ownerFee = percentOfValue(OWNER_FEE_PERCENT, roundEarnings);\r\n    roundEarnings = roundEarnings.sub(ownerFee);\r\n    // Then go through each miner\r\n    address[] memory recipients = getRandomisedMinerList();\r\n    for (uint i = 0; i < PLANET_CAPACITY; i++) {\r\n      uint rewardAmount = percentOfValue(50, roundEarnings);\r\n      giveMinerReward(recipients[i], rewardAmount);\r\n      roundEarnings = roundEarnings.sub(rewardAmount);\r\n      // Remove miner once rewarded\r\n      recipients[i] = address(0);\r\n    }\r\n  }\r\n\r\n}",
  "sourcePath": "D:/dapps/space-miners/contracts/SpaceMiners.sol",
  "compiler": {
    "name": "solc",
    "version": "0.5.2+commit.1df8f40c.Emscripten.clang"
  },
  "schemaVersion": "3.0.6",
  "updatedAt": "2019-04-27T21:01:24.896Z",
  "devdoc": {
    "methods": {}
  },
  "userdoc": {
    "methods": {}
  }
}