{
  "contractName": "SpaceMiners",
  "abi": [
    {
      "constant": true,
      "inputs": [],
      "name": "name",
      "outputs": [
        {
          "name": "",
          "type": "string"
        }
      ],
      "payable": false,
      "stateMutability": "view",
      "type": "function",
      "signature": "0x06fdde03"
    },
    {
      "constant": false,
      "inputs": [
        {
          "name": "spender",
          "type": "address"
        },
        {
          "name": "value",
          "type": "uint256"
        }
      ],
      "name": "approve",
      "outputs": [
        {
          "name": "",
          "type": "bool"
        }
      ],
      "payable": false,
      "stateMutability": "nonpayable",
      "type": "function",
      "signature": "0x095ea7b3"
    },
    {
      "constant": true,
      "inputs": [],
      "name": "reserveRatio",
      "outputs": [
        {
          "name": "",
          "type": "uint256"
        }
      ],
      "payable": false,
      "stateMutability": "view",
      "type": "function",
      "signature": "0x0c7d5cd8"
    },
    {
      "constant": true,
      "inputs": [],
      "name": "totalSupply",
      "outputs": [
        {
          "name": "",
          "type": "uint256"
        }
      ],
      "payable": false,
      "stateMutability": "view",
      "type": "function",
      "signature": "0x18160ddd"
    },
    {
      "constant": false,
      "inputs": [
        {
          "name": "from",
          "type": "address"
        },
        {
          "name": "to",
          "type": "address"
        },
        {
          "name": "value",
          "type": "uint256"
        }
      ],
      "name": "transferFrom",
      "outputs": [
        {
          "name": "",
          "type": "bool"
        }
      ],
      "payable": false,
      "stateMutability": "nonpayable",
      "type": "function",
      "signature": "0x23b872dd"
    },
    {
      "constant": true,
      "inputs": [
        {
          "name": "_amount",
          "type": "uint256"
        }
      ],
      "name": "calculateContinuousMintReturn",
      "outputs": [
        {
          "name": "mintAmount",
          "type": "uint256"
        }
      ],
      "payable": false,
      "stateMutability": "view",
      "type": "function",
      "signature": "0x28c3d701"
    },
    {
      "constant": true,
      "inputs": [
        {
          "name": "_supply",
          "type": "uint256"
        },
        {
          "name": "_reserveBalance",
          "type": "uint256"
        },
        {
          "name": "_reserveRatio",
          "type": "uint32"
        },
        {
          "name": "_depositAmount",
          "type": "uint256"
        }
      ],
      "name": "calculatePurchaseReturn",
      "outputs": [
        {
          "name": "",
          "type": "uint256"
        }
      ],
      "payable": false,
      "stateMutability": "view",
      "type": "function",
      "signature": "0x29a00e7c"
    },
    {
      "constant": true,
      "inputs": [],
      "name": "decimals",
      "outputs": [
        {
          "name": "",
          "type": "uint8"
        }
      ],
      "payable": false,
      "stateMutability": "view",
      "type": "function",
      "signature": "0x313ce567"
    },
    {
      "constant": false,
      "inputs": [
        {
          "name": "spender",
          "type": "address"
        },
        {
          "name": "addedValue",
          "type": "uint256"
        }
      ],
      "name": "increaseAllowance",
      "outputs": [
        {
          "name": "",
          "type": "bool"
        }
      ],
      "payable": false,
      "stateMutability": "nonpayable",
      "type": "function",
      "signature": "0x39509351"
    },
    {
      "constant": false,
      "inputs": [
        {
          "name": "reciever",
          "type": "address"
        },
        {
          "name": "value",
          "type": "uint256"
        }
      ],
      "name": "mint",
      "outputs": [],
      "payable": true,
      "stateMutability": "payable",
      "type": "function",
      "signature": "0x40c10f19"
    },
    {
      "constant": false,
      "inputs": [
        {
          "name": "_amount",
          "type": "uint256"
        }
      ],
      "name": "burn",
      "outputs": [],
      "payable": false,
      "stateMutability": "nonpayable",
      "type": "function",
      "signature": "0x42966c68"
    },
    {
      "constant": true,
      "inputs": [
        {
          "name": "_supply",
          "type": "uint256"
        },
        {
          "name": "_reserveBalance",
          "type": "uint256"
        },
        {
          "name": "_reserveRatio",
          "type": "uint32"
        },
        {
          "name": "_sellAmount",
          "type": "uint256"
        }
      ],
      "name": "calculateSaleReturn",
      "outputs": [
        {
          "name": "",
          "type": "uint256"
        }
      ],
      "payable": false,
      "stateMutability": "view",
      "type": "function",
      "signature": "0x49f9b0f7"
    },
    {
      "constant": true,
      "inputs": [],
      "name": "version",
      "outputs": [
        {
          "name": "",
          "type": "string"
        }
      ],
      "payable": false,
      "stateMutability": "view",
      "type": "function",
      "signature": "0x54fd4d50"
    },
    {
      "constant": true,
      "inputs": [],
      "name": "planetPopulation",
      "outputs": [
        {
          "name": "",
          "type": "uint8"
        }
      ],
      "payable": false,
      "stateMutability": "view",
      "type": "function",
      "signature": "0x5df3504e"
    },
    {
      "constant": true,
      "inputs": [],
      "name": "PRICE_TO_MINE",
      "outputs": [
        {
          "name": "",
          "type": "uint256"
        }
      ],
      "payable": false,
      "stateMutability": "view",
      "type": "function",
      "signature": "0x6051666f"
    },
    {
      "constant": true,
      "inputs": [
        {
          "name": "owner",
          "type": "address"
        }
      ],
      "name": "balanceOf",
      "outputs": [
        {
          "name": "",
          "type": "uint256"
        }
      ],
      "payable": false,
      "stateMutability": "view",
      "type": "function",
      "signature": "0x70a08231"
    },
    {
      "constant": false,
      "inputs": [],
      "name": "renounceOwnership",
      "outputs": [],
      "payable": false,
      "stateMutability": "nonpayable",
      "type": "function",
      "signature": "0x715018a6"
    },
    {
      "constant": true,
      "inputs": [],
      "name": "owner",
      "outputs": [
        {
          "name": "",
          "type": "address"
        }
      ],
      "payable": false,
      "stateMutability": "view",
      "type": "function",
      "signature": "0x8da5cb5b"
    },
    {
      "constant": true,
      "inputs": [],
      "name": "isOwner",
      "outputs": [
        {
          "name": "",
          "type": "bool"
        }
      ],
      "payable": false,
      "stateMutability": "view",
      "type": "function",
      "signature": "0x8f32d59b"
    },
    {
      "constant": true,
      "inputs": [
        {
          "name": "_amount",
          "type": "uint256"
        }
      ],
      "name": "calculateContinuousBurnReturn",
      "outputs": [
        {
          "name": "burnAmount",
          "type": "uint256"
        }
      ],
      "payable": false,
      "stateMutability": "view",
      "type": "function",
      "signature": "0x90f0c2ea"
    },
    {
      "constant": true,
      "inputs": [],
      "name": "symbol",
      "outputs": [
        {
          "name": "",
          "type": "string"
        }
      ],
      "payable": false,
      "stateMutability": "view",
      "type": "function",
      "signature": "0x95d89b41"
    },
    {
      "constant": true,
      "inputs": [],
      "name": "reserveBalance",
      "outputs": [
        {
          "name": "",
          "type": "uint256"
        }
      ],
      "payable": false,
      "stateMutability": "view",
      "type": "function",
      "signature": "0xa10954fe"
    },
    {
      "constant": false,
      "inputs": [
        {
          "name": "spender",
          "type": "address"
        },
        {
          "name": "subtractedValue",
          "type": "uint256"
        }
      ],
      "name": "decreaseAllowance",
      "outputs": [
        {
          "name": "",
          "type": "bool"
        }
      ],
      "payable": false,
      "stateMutability": "nonpayable",
      "type": "function",
      "signature": "0xa457c2d7"
    },
    {
      "constant": false,
      "inputs": [
        {
          "name": "to",
          "type": "address"
        },
        {
          "name": "value",
          "type": "uint256"
        }
      ],
      "name": "transfer",
      "outputs": [
        {
          "name": "",
          "type": "bool"
        }
      ],
      "payable": false,
      "stateMutability": "nonpayable",
      "type": "function",
      "signature": "0xa9059cbb"
    },
    {
      "constant": true,
      "inputs": [],
      "name": "NUM_WINNERS",
      "outputs": [
        {
          "name": "",
          "type": "uint8"
        }
      ],
      "payable": false,
      "stateMutability": "view",
      "type": "function",
      "signature": "0xcad0338c"
    },
    {
      "constant": true,
      "inputs": [
        {
          "name": "owner",
          "type": "address"
        },
        {
          "name": "spender",
          "type": "address"
        }
      ],
      "name": "allowance",
      "outputs": [
        {
          "name": "",
          "type": "uint256"
        }
      ],
      "payable": false,
      "stateMutability": "view",
      "type": "function",
      "signature": "0xdd62ed3e"
    },
    {
      "constant": true,
      "inputs": [],
      "name": "PLANET_CAPACITY",
      "outputs": [
        {
          "name": "",
          "type": "uint8"
        }
      ],
      "payable": false,
      "stateMutability": "view",
      "type": "function",
      "signature": "0xe06de901"
    },
    {
      "constant": false,
      "inputs": [
        {
          "name": "newOwner",
          "type": "address"
        }
      ],
      "name": "transferOwnership",
      "outputs": [],
      "payable": false,
      "stateMutability": "nonpayable",
      "type": "function",
      "signature": "0xf2fde38b"
    },
    {
      "constant": true,
      "inputs": [],
      "name": "scale",
      "outputs": [
        {
          "name": "",
          "type": "uint256"
        }
      ],
      "payable": false,
      "stateMutability": "view",
      "type": "function",
      "signature": "0xf51e181a"
    },
    {
      "payable": true,
      "stateMutability": "payable",
      "type": "fallback"
    },
    {
      "anonymous": false,
      "inputs": [
        {
          "indexed": true,
          "name": "from",
          "type": "address"
        },
        {
          "indexed": true,
          "name": "to",
          "type": "address"
        },
        {
          "indexed": false,
          "name": "value",
          "type": "uint256"
        }
      ],
      "name": "Transfer",
      "type": "event",
      "signature": "0xddf252ad1be2c89b69c2b068fc378daa952ba7f163c4a11628f55a4df523b3ef"
    },
    {
      "anonymous": false,
      "inputs": [
        {
          "indexed": true,
          "name": "owner",
          "type": "address"
        },
        {
          "indexed": true,
          "name": "spender",
          "type": "address"
        },
        {
          "indexed": false,
          "name": "value",
          "type": "uint256"
        }
      ],
      "name": "Approval",
      "type": "event",
      "signature": "0x8c5be1e5ebec7d5bd14f71427d1e84f3dd0314c0f7b2291e5b200ac8c7c3b925"
    },
    {
      "anonymous": false,
      "inputs": [
        {
          "indexed": true,
          "name": "previousOwner",
          "type": "address"
        },
        {
          "indexed": true,
          "name": "newOwner",
          "type": "address"
        }
      ],
      "name": "OwnershipTransferred",
      "type": "event",
      "signature": "0x8be0079c531659141344cd1fd0a4f28419497f9722a3daafe3b4186f6b6457e0"
    },
    {
      "constant": true,
      "inputs": [
        {
          "name": "miner",
          "type": "address"
        }
      ],
      "name": "getNumUsersMinersOnPlanet",
      "outputs": [
        {
          "name": "",
          "type": "uint256"
        }
      ],
      "payable": false,
      "stateMutability": "view",
      "type": "function",
      "signature": "0x5f7731c7"
    },
    {
      "constant": false,
      "inputs": [
        {
          "name": "numMiners",
          "type": "uint256"
        }
      ],
      "name": "sendMinersToPlanet",
      "outputs": [],
      "payable": true,
      "stateMutability": "payable",
      "type": "function",
      "signature": "0xbbbf2269"
    },
    {
      "constant": false,
      "inputs": [],
      "name": "cashOutOwnerFee",
      "outputs": [],
      "payable": true,
      "stateMutability": "payable",
      "type": "function",
      "signature": "0xb6dd8d58"
    }
  ],
  "bytecode": "0x60806040526040805190810160405280600381526020017f302e330000000000000000000000000000000000000000000000000000000000815250600090805190602001906200005192919062001249565b50670de0b6b3a7640000608555608554600a026086556207a120608755600a60ff16604051908082528060200260200182016040528015620000a25781602001602082028038833980820191505090505b5060889080519060200190620000ba929190620012d0565b506000608960006101000a81548160ff021916908360ff1602179055506001608a55701c35fedd14ffffffffffffffffffffffff60016020608081101515620000ff57fe5b0181905550701b0ce43b323fffffffffffffffffffffff600160216080811015156200012757fe5b01819055507019f0028ec1ffffffffffffffffffffffff600160226080811015156200014f57fe5b01819055507018ded91f0e7fffffffffffffffffffffff600160236080811015156200017757fe5b01819055507017d8ec7f0417ffffffffffffffffffffff600160246080811015156200019f57fe5b01819055507016ddc6556cdbffffffffffffffffffffff60016025608081101515620001c757fe5b01819055507015ecf52776a1ffffffffffffffffffffff60016026608081101515620001ef57fe5b01819055507015060c256cb2ffffffffffffffffffffff600160276080811015156200021757fe5b0181905550701428a2f98d72ffffffffffffffffffffff600160286080811015156200023f57fe5b01819055507013545598e5c23fffffffffffffffffffff600160296080811015156200026757fe5b0181905550701288c4161ce1dfffffffffffffffffffff6001602a6080811015156200028f57fe5b01819055507011c592761c666fffffffffffffffffffff6001602b608081101515620002b757fe5b018190555070110a688680a757ffffffffffffffffffff6001602c608081101515620002df57fe5b0181905550701056f1b5bedf77ffffffffffffffffffff6001602d6080811015156200030757fe5b0181905550700faadceceeff8bffffffffffffffffffff6001602e6080811015156200032f57fe5b0181905550700f05dc6b27edadffffffffffffffffffff6001602f6080811015156200035757fe5b0181905550700e67a5a25da4107fffffffffffffffffff600160306080811015156200037f57fe5b0181905550700dcff115b14eedffffffffffffffffffff60016031608081101515620003a757fe5b0181905550700d3e7a392431239fffffffffffffffffff60016032608081101515620003cf57fe5b0181905550700cb2ff529eb71e4fffffffffffffffffff60016033608081101515620003f757fe5b0181905550700c2d415c3db974afffffffffffffffffff600160346080811015156200041f57fe5b0181905550700bad03e7d883f69bffffffffffffffffff600160356080811015156200044757fe5b0181905550700b320d03b2c343d5ffffffffffffffffff600160366080811015156200046f57fe5b0181905550700abc25204e02828dffffffffffffffffff600160376080811015156200049757fe5b0181905550700a4b16f74ee4bb207fffffffffffffffff60016038608081101515620004bf57fe5b01819055507009deaf736ac1f569ffffffffffffffffff60016039608081101515620004e757fe5b0181905550700976bd9952c7aa957fffffffffffffffff6001603a6080811015156200050f57fe5b01819055507009131271922eaa606fffffffffffffffff6001603b6080811015156200053757fe5b01819055507008b380f3558668c46fffffffffffffffff6001603c6080811015156200055f57fe5b0181905550700857ddf0117efa215bffffffffffffffff6001603d6080811015156200058757fe5b01819055507007ffffffffffffffffffffffffffffffff6001603e608081101515620005af57fe5b01819055507007abbf6f6abb9d087fffffffffffffffff6001603f608081101515620005d757fe5b018190555070075af62cbac95f7dfa7fffffffffffffff60016040608081101515620005ff57fe5b018190555070070d7fb7452e187ac13fffffffffffffff600160416080811015156200062757fe5b01819055507006c3390ecc8af379295fffffffffffffff600160426080811015156200064f57fe5b018190555070067c00a3b07ffc01fd6fffffffffffffff600160436080811015156200067757fe5b0181905550700637b647c39cbb9d3d27ffffffffffffff600160446080811015156200069f57fe5b01819055507005f63b1fc104dbd39587ffffffffffffff60016045608081101515620006c757fe5b01819055507005b771955b36e12f7235ffffffffffffff60016046608081101515620006ef57fe5b018190555070057b3d49dda84556d6f6ffffffffffffff600160476080811015156200071757fe5b018190555070054183095b2c8ececf30ffffffffffffff600160486080811015156200073f57fe5b018190555070050a28be635ca2b888f77fffffffffffff600160496080811015156200076757fe5b01819055507004d5156639708c9db33c3fffffffffffff6001604a6080811015156200078f57fe5b01819055507004a23105873875bd52dfdfffffffffffff6001604b608081101515620007b757fe5b0181905550700471649d87199aa990756fffffffffffff6001604c608081101515620007df57fe5b01819055507004429a21a029d4c1457cfbffffffffffff6001604d6080811015156200080757fe5b0181905550700415bc6d6fb7dd71af2cb3ffffffffffff6001604e6080811015156200082f57fe5b01819055507003eab73b3bbfe282243ce1ffffffffffff6001604f6080811015156200085757fe5b01819055507003c1771ac9fb6b4c18e229ffffffffffff600160506080811015156200087f57fe5b0181905550700399e96897690418f785257fffffffffff60016051608081101515620008a757fe5b0181905550700373fc456c53bb779bf0ea9fffffffffff60016052608081101515620008cf57fe5b018190555070034f9e8e490c48e67e6ab8bfffffffffff60016053608081101515620008f757fe5b018190555070032cbfd4a7adc790560b3337ffffffffff600160546080811015156200091f57fe5b018190555070030b50570f6e5d2acca94613ffffffffff600160556080811015156200094757fe5b01819055507002eb40f9f620fda6b56c2861ffffffffff600160566080811015156200096f57fe5b01819055507002cc8340ecb0d0f520a6af58ffffffffff600160576080811015156200099757fe5b01819055507002af09481380a0a35cf1ba02ffffffffff60016058608081101515620009bf57fe5b0181905550700292c5bdd3b92ec810287b1b3fffffffff60016059608081101515620009e757fe5b0181905550700277abdcdab07d5a77ac6d6b9fffffffff6001605a60808110151562000a0f57fe5b018190555070025daf6654b1eaa55fd64df5efffffffff6001605b60808110151562000a3757fe5b0181905550700244c49c648baa98192dce88b7ffffffff6001605c60808110151562000a5f57fe5b018190555070022ce03cd5619a311b2471268bffffffff6001605d60808110151562000a8757fe5b0181905550700215f77c045fbe885654a44a0fffffffff6001605e60808110151562000aaf57fe5b01819055507001ffffffffffffffffffffffffffffffff6001605f60808110151562000ad757fe5b01819055507001eaefdbdaaee7421fc4d3ede5ffffffff6001606060808110151562000aff57fe5b01819055507001d6bd8b2eb257df7e8ca57b09bfffffff6001606160808110151562000b2757fe5b01819055507001c35fedd14b861eb0443f7f133fffffff6001606260808110151562000b4f57fe5b01819055507001b0ce43b322bcde4a56e8ada5afffffff6001606360808110151562000b7757fe5b018190555070019f0028ec1fff007f5a195a39dfffffff6001606460808110151562000b9f57fe5b018190555070018ded91f0e72ee74f49b15ba527ffffff6001606560808110151562000bc757fe5b018190555070017d8ec7f04136f4e5615fd41a63ffffff6001606660808110151562000bef57fe5b018190555070016ddc6556cdb84bdc8d12d22e6fffffff6001606760808110151562000c1757fe5b018190555070015ecf52776a1155b5bd8395814f7fffff6001606860808110151562000c3f57fe5b018190555070015060c256cb23b3b3cc3754cf40ffffff6001606960808110151562000c6757fe5b01819055507001428a2f98d728ae223ddab715be3fffff6001606a60808110151562000c8f57fe5b018190555070013545598e5c23276ccf0ede68034fffff6001606b60808110151562000cb757fe5b01819055507001288c4161ce1d6f54b7f61081194fffff6001606c60808110151562000cdf57fe5b018190555070011c592761c666aa641d5a01a40f17ffff6001606d60808110151562000d0757fe5b0181905550700110a688680a7530515f3e6e6cfdcdffff6001606e60808110151562000d2f57fe5b01819055507001056f1b5bedf75c6bcb2ce8aed428ffff6001606f60808110151562000d5757fe5b01819055506ffaadceceeff8a0890f3875f008277fff6001607060808110151562000d7e57fe5b01819055506ff05dc6b27edad306388a600f6ba0bfff6001607160808110151562000da557fe5b01819055506fe67a5a25da41063de1495d5b18cdbfff6001607260808110151562000dcc57fe5b01819055506fdcff115b14eedde6fc3aa5353f2e4fff6001607360808110151562000df357fe5b01819055506fd3e7a3924312399f9aae2e0f868f8fff6001607460808110151562000e1a57fe5b01819055506fcb2ff529eb71e41582cccd5a1ee26fff6001607560808110151562000e4157fe5b01819055506fc2d415c3db974ab32a51840c0b67edff6001607660808110151562000e6857fe5b01819055506fbad03e7d883f69ad5b0a186184e06bff6001607760808110151562000e8f57fe5b01819055506fb320d03b2c343d4829abd6075f0cc5ff6001607860808110151562000eb657fe5b01819055506fabc25204e02828d73c6e80bcdb1a95bf6001607960808110151562000edd57fe5b01819055506fa4b16f74ee4bb2040a1ec6c15fbbf2df6001607a60808110151562000f0457fe5b01819055506f9deaf736ac1f569deb1b5ae3f36c130f6001607b60808110151562000f2b57fe5b01819055506f976bd9952c7aa957f5937d790ef650376001607c60808110151562000f5257fe5b01819055506f9131271922eaa6064b73a22d0bd4f2bf6001607d60808110151562000f7957fe5b01819055506f8b380f3558668c46c91c49a2f8e967b96001607e60808110151562000fa057fe5b01819055506f857ddf0117efa215952912839f6473e66001607f60808110151562000fc757fe5b018190555033608160006101000a81548173ffffffffffffffffffffffffffffffffffffffff021916908373ffffffffffffffffffffffffffffffffffffffff160217905550608160009054906101000a900473ffffffffffffffffffffffffffffffffffffffff1673ffffffffffffffffffffffffffffffffffffffff16600073ffffffffffffffffffffffffffffffffffffffff167f8be0079c531659141344cd1fd0a4f28419497f9722a3daafe3b4186f6b6457e060405160405180910390a3620010aa33608554600102620010b0640100000000026401000000009004565b620013cd565b600073ffffffffffffffffffffffffffffffffffffffff168273ffffffffffffffffffffffffffffffffffffffff1614151515620010ed57600080fd5b6200111281608454620012276401000000000262001b7a179091906401000000009004565b6084819055506200117a81608260008573ffffffffffffffffffffffffffffffffffffffff1673ffffffffffffffffffffffffffffffffffffffff16815260200190815260200160002054620012276401000000000262001b7a179091906401000000009004565b608260008473ffffffffffffffffffffffffffffffffffffffff1673ffffffffffffffffffffffffffffffffffffffff168152602001908152602001600020819055508173ffffffffffffffffffffffffffffffffffffffff16600073ffffffffffffffffffffffffffffffffffffffff167fddf252ad1be2c89b69c2b068fc378daa952ba7f163c4a11628f55a4df523b3ef836040518082815260200191505060405180910390a35050565b60008082840190508381101515156200123f57600080fd5b8091505092915050565b828054600181600116156101000203166002900490600052602060002090601f016020900481019282601f106200128c57805160ff1916838001178555620012bd565b82800160010185558215620012bd579182015b82811115620012bc5782518255916020019190600101906200129f565b5b509050620012cc91906200135f565b5090565b8280548282559060005260206000209081019282156200134c579160200282015b828111156200134b5782518260006101000a81548173ffffffffffffffffffffffffffffffffffffffff021916908373ffffffffffffffffffffffffffffffffffffffff16021790555091602001919060010190620012f1565b5b5090506200135b919062001387565b5090565b6200138491905b808211156200138057600081600090555060010162001366565b5090565b90565b620013ca91905b80821115620013c657600081816101000a81549073ffffffffffffffffffffffffffffffffffffffff0219169055506001016200138e565b5090565b90565b61385580620013dd6000396000f3fe608060405260043610610200576000357c01000000000000000000000000000000000000000000000000000000009004806370a082311161011f578063a9059cbb116100b2578063dd62ed3e11610081578063dd62ed3e14610afc578063e06de90114610b81578063f2fde38b14610bb2578063f51e181a14610c0357610200565b8063a9059cbb14610a20578063b6dd8d5814610a93578063bbbf226914610a9d578063cad0338c14610acb57610200565b806390f0c2ea116100ee57806390f0c2ea146108a357806395d89b41146108f2578063a10954fe14610982578063a457c2d7146109ad57610200565b806370a08231146107a1578063715018a6146108065780638da5cb5b1461081d5780638f32d59b1461087457610200565b8063395093511161019757806354fd4d501161016657806354fd4d50146106505780635df3504e146106e05780635f7731c7146107115780636051666f1461077657610200565b806339509351146104e157806340c10f191461055457806342966c68146105a257806349f9b0f7146105dd57610200565b806323b872dd116101d357806323b872dd1461035b57806328c3d701146103ee57806329a00e7c1461043d578063313ce567146104b057610200565b806306fdde0314610202578063095ea7b3146102925780630c7d5cd81461030557806318160ddd14610330575b005b34801561020e57600080fd5b50610217610c2e565b6040518080602001828103825283818151815260200191508051906020019080838360005b8381101561025757808201518184015260208101905061023c565b50505050905090810190601f1680156102845780820380516001836020036101000a031916815260200191505b509250505060405180910390f35b34801561029e57600080fd5b506102eb600480360360408110156102b557600080fd5b81019080803573ffffffffffffffffffffffffffffffffffffffff16906020019092919080359060200190929190505050610c67565b604051808215151515815260200191505060405180910390f35b34801561031157600080fd5b5061031a610c7e565b6040518082815260200191505060405180910390f35b34801561033c57600080fd5b50610345610c84565b6040518082815260200191505060405180910390f35b34801561036757600080fd5b506103d46004803603606081101561037e57600080fd5b81019080803573ffffffffffffffffffffffffffffffffffffffff169060200190929190803573ffffffffffffffffffffffffffffffffffffffff16906020019092919080359060200190929190505050610c8e565b604051808215151515815260200191505060405180910390f35b3480156103fa57600080fd5b506104276004803603602081101561041157600080fd5b8101908080359060200190929190505050610d3f565b6040518082815260200191505060405180910390f35b34801561044957600080fd5b5061049a6004803603608081101561046057600080fd5b810190808035906020019092919080359060200190929190803563ffffffff16906020019092919080359060200190929190505050610d5f565b6040518082815260200191505060405180910390f35b3480156104bc57600080fd5b506104c5610e65565b604051808260ff1660ff16815260200191505060405180910390f35b3480156104ed57600080fd5b5061053a6004803603604081101561050457600080fd5b81019080803573ffffffffffffffffffffffffffffffffffffffff16906020019092919080359060200190929190505050610e6a565b604051808215151515815260200191505060405180910390f35b6105a06004803603604081101561056a57600080fd5b81019080803573ffffffffffffffffffffffffffffffffffffffff16906020019092919080359060200190929190505050610f0f565b005b3480156105ae57600080fd5b506105db600480360360208110156105c557600080fd5b8101908080359060200190929190505050610f96565b005b3480156105e957600080fd5b5061063a6004803603608081101561060057600080fd5b810190808035906020019092919080359060200190929190803563ffffffff16906020019092919080359060200190929190505050610fee565b6040518082815260200191505060405180910390f35b34801561065c57600080fd5b50610665611123565b6040518080602001828103825283818151815260200191508051906020019080838360005b838110156106a557808201518184015260208101905061068a565b50505050905090810190601f1680156106d25780820380516001836020036101000a031916815260200191505b509250505060405180910390f35b3480156106ec57600080fd5b506106f56111c1565b604051808260ff1660ff16815260200191505060405180910390f35b34801561071d57600080fd5b506107606004803603602081101561073457600080fd5b81019080803573ffffffffffffffffffffffffffffffffffffffff1690602001909291905050506111d4565b6040518082815260200191505060405180910390f35b34801561078257600080fd5b5061078b611288565b6040518082815260200191505060405180910390f35b3480156107ad57600080fd5b506107f0600480360360208110156107c457600080fd5b81019080803573ffffffffffffffffffffffffffffffffffffffff169060200190929190505050611293565b6040518082815260200191505060405180910390f35b34801561081257600080fd5b5061081b6112dc565b005b34801561082957600080fd5b506108326113b0565b604051808273ffffffffffffffffffffffffffffffffffffffff1673ffffffffffffffffffffffffffffffffffffffff16815260200191505060405180910390f35b34801561088057600080fd5b506108896113da565b604051808215151515815260200191505060405180910390f35b3480156108af57600080fd5b506108dc600480360360208110156108c657600080fd5b8101908080359060200190929190505050611432565b6040518082815260200191505060405180910390f35b3480156108fe57600080fd5b50610907611452565b6040518080602001828103825283818151815260200191508051906020019080838360005b8381101561094757808201518184015260208101905061092c565b50505050905090810190601f1680156109745780820380516001836020036101000a031916815260200191505b509250505060405180910390f35b34801561098e57600080fd5b5061099761148b565b6040518082815260200191505060405180910390f35b3480156109b957600080fd5b50610a06600480360360408110156109d057600080fd5b81019080803573ffffffffffffffffffffffffffffffffffffffff16906020019092919080359060200190929190505050611491565b604051808215151515815260200191505060405180910390f35b348015610a2c57600080fd5b50610a7960048036036040811015610a4357600080fd5b81019080803573ffffffffffffffffffffffffffffffffffffffff16906020019092919080359060200190929190505050611536565b604051808215151515815260200191505060405180910390f35b610a9b61154d565b005b610ac960048036036020811015610ab357600080fd5b81019080803590602001909291905050506115c7565b005b348015610ad757600080fd5b50610ae0611707565b604051808260ff1660ff16815260200191505060405180910390f35b348015610b0857600080fd5b50610b6b60048036036040811015610b1f57600080fd5b81019080803573ffffffffffffffffffffffffffffffffffffffff169060200190929190803573ffffffffffffffffffffffffffffffffffffffff16906020019092919050505061170c565b6040518082815260200191505060405180910390f35b348015610b8d57600080fd5b50610b96611793565b604051808260ff1660ff16815260200191505060405180910390f35b348015610bbe57600080fd5b50610c0160048036036020811015610bd557600080fd5b81019080803573ffffffffffffffffffffffffffffffffffffffff169060200190929190505050611798565b005b348015610c0f57600080fd5b50610c186117b7565b6040518082815260200191505060405180910390f35b6040805190810160405280600f81526020017f4b657269756d204372797374616c73000000000000000000000000000000000081525081565b6000610c743384846117bd565b6001905092915050565b60875481565b6000608454905090565b6000610c9b848484611920565b610d348433610d2f85608360008a73ffffffffffffffffffffffffffffffffffffffff1673ffffffffffffffffffffffffffffffffffffffff16815260200190815260200160002060003373ffffffffffffffffffffffffffffffffffffffff1673ffffffffffffffffffffffffffffffffffffffff16815260200190815260200160002054611af090919063ffffffff16565b6117bd565b600190509392505050565b6000610d58610d4c610c84565b60865460875485610d5f565b9050919050565b60008085118015610d705750600084115b8015610d82575060008363ffffffff16115b8015610d9d5750620f424063ffffffff168363ffffffff1611155b1515610da857600080fd5b6000821415610dba5760009050610e5d565b620f424063ffffffff168363ffffffff161415610dfd57610df684610de88488611b1290919063ffffffff16565b611b5090919063ffffffff16565b9050610e5d565b6000806000610e158786611b7a90919063ffffffff16565b9050610e26818888620f4240611b9b565b809350819450505060008260ff16610e47858b611b1290919063ffffffff16565b908060020a820491505090508881039450505050505b949350505050565b601281565b6000610f053384610f0085608360003373ffffffffffffffffffffffffffffffffffffffff1673ffffffffffffffffffffffffffffffffffffffff16815260200190815260200160002060008973ffffffffffffffffffffffffffffffffffffffff1673ffffffffffffffffffffffffffffffffffffffff16815260200190815260200160002054611b7a90919063ffffffff16565b6117bd565b6001905092915050565b600081111515610f87576040517f08c379a000000000000000000000000000000000000000000000000000000000815260040180806020018281038252601e8152602001807f4d7573742073656e6420657468657220746f2062757920746f6b656e732e000081525060200191505060405180910390fd5b610f918282611d7f565b505050565b6000610fa182611e34565b90503373ffffffffffffffffffffffffffffffffffffffff166108fc829081150290604051600060405180830381858888f19350505050158015610fe9573d6000803e3d6000fd5b505050565b60008085118015610fff5750600084115b8015611011575060008363ffffffff16115b801561102c5750620f424063ffffffff168363ffffffff1611155b80156110385750848211155b151561104357600080fd5b6000821415611055576000905061111b565b848214156110655783905061111b565b620f424063ffffffff168363ffffffff1614156110a8576110a1856110938487611b1290919063ffffffff16565b611b5090919063ffffffff16565b905061111b565b600080600084880390506110c18882620f424089611b9b565b809350819450505060006110de8489611b1290919063ffffffff16565b905060008360ff16899060020a029050611113856111058385611af090919063ffffffff16565b611b5090919063ffffffff16565b955050505050505b949350505050565b60008054600181600116156101000203166002900480601f0160208091040260200160405190810160405280929190818152602001828054600181600116156101000203166002900480156111b95780601f1061118e576101008083540402835291602001916111b9565b820191906000526020600020905b81548152906001019060200180831161119c57829003601f168201915b505050505081565b608960009054906101000a900460ff1681565b6000806000905060008090505b608960009054906101000a900460ff1660ff1681101561127e578373ffffffffffffffffffffffffffffffffffffffff1660888281548110151561122157fe5b9060005260206000200160009054906101000a900473ffffffffffffffffffffffffffffffffffffffff1673ffffffffffffffffffffffffffffffffffffffff1614156112715781806001019250505b80806001019150506111e1565b5080915050919050565b66470de4df82000081565b6000608260008373ffffffffffffffffffffffffffffffffffffffff1673ffffffffffffffffffffffffffffffffffffffff168152602001908152602001600020549050919050565b6112e46113da565b15156112ef57600080fd5b600073ffffffffffffffffffffffffffffffffffffffff16608160009054906101000a900473ffffffffffffffffffffffffffffffffffffffff1673ffffffffffffffffffffffffffffffffffffffff167f8be0079c531659141344cd1fd0a4f28419497f9722a3daafe3b4186f6b6457e060405160405180910390a36000608160006101000a81548173ffffffffffffffffffffffffffffffffffffffff021916908373ffffffffffffffffffffffffffffffffffffffff160217905550565b6000608160009054906101000a900473ffffffffffffffffffffffffffffffffffffffff16905090565b6000608160009054906101000a900473ffffffffffffffffffffffffffffffffffffffff1673ffffffffffffffffffffffffffffffffffffffff163373ffffffffffffffffffffffffffffffffffffffff1614905090565b600061144b61143f610c84565b60865460875485610fee565b9050919050565b6040805190810160405280600381526020017f4b4d43000000000000000000000000000000000000000000000000000000000081525081565b60865481565b600061152c338461152785608360003373ffffffffffffffffffffffffffffffffffffffff1673ffffffffffffffffffffffffffffffffffffffff16815260200190815260200160002060008973ffffffffffffffffffffffffffffffffffffffff1673ffffffffffffffffffffffffffffffffffffffff16815260200190815260200160002054611af090919063ffffffff16565b6117bd565b6001905092915050565b6000611543338484611920565b6001905092915050565b6115556113da565b151561156057600080fd5b6001608a5411151561157157600080fd5b3373ffffffffffffffffffffffffffffffffffffffff166108fc6001608a54039081150290604051600060405180830381858888f193505050501580156115bc573d6000803e3d6000fd5b506001608a81905550565b66470de4df82000081023410151515611648576040517f08c379a000000000000000000000000000000000000000000000000000000000815260040180806020018281038252601a8152602001807f4e6f7420656e6f756768207061696420666f72206d696e696e6700000000000081525060200191505060405180910390fd5b600a60ff16608960009054906101000a900460ff1660ff161015156116d5576040517f08c379a000000000000000000000000000000000000000000000000000000000815260040180806020018281038252600e8152602001807f506c616e65742069732066756c6c00000000000000000000000000000000000081525060200191505060405180910390fd5b6116df3382610f0f565b60008090505b81811015611703576116f633611f68565b80806001019150506116e5565b5050565b600381565b6000608360008473ffffffffffffffffffffffffffffffffffffffff1673ffffffffffffffffffffffffffffffffffffffff16815260200190815260200160002060008373ffffffffffffffffffffffffffffffffffffffff1673ffffffffffffffffffffffffffffffffffffffff16815260200190815260200160002054905092915050565b600a81565b6117a06113da565b15156117ab57600080fd5b6117b481612045565b50565b60855481565b600073ffffffffffffffffffffffffffffffffffffffff168273ffffffffffffffffffffffffffffffffffffffff16141515156117f957600080fd5b600073ffffffffffffffffffffffffffffffffffffffff168373ffffffffffffffffffffffffffffffffffffffff161415151561183557600080fd5b80608360008573ffffffffffffffffffffffffffffffffffffffff1673ffffffffffffffffffffffffffffffffffffffff16815260200190815260200160002060008473ffffffffffffffffffffffffffffffffffffffff1673ffffffffffffffffffffffffffffffffffffffff168152602001908152602001600020819055508173ffffffffffffffffffffffffffffffffffffffff168373ffffffffffffffffffffffffffffffffffffffff167f8c5be1e5ebec7d5bd14f71427d1e84f3dd0314c0f7b2291e5b200ac8c7c3b925836040518082815260200191505060405180910390a3505050565b600073ffffffffffffffffffffffffffffffffffffffff168273ffffffffffffffffffffffffffffffffffffffff161415151561195c57600080fd5b6119ae81608260008673ffffffffffffffffffffffffffffffffffffffff1673ffffffffffffffffffffffffffffffffffffffff16815260200190815260200160002054611af090919063ffffffff16565b608260008573ffffffffffffffffffffffffffffffffffffffff1673ffffffffffffffffffffffffffffffffffffffff16815260200190815260200160002081905550611a4381608260008573ffffffffffffffffffffffffffffffffffffffff1673ffffffffffffffffffffffffffffffffffffffff16815260200190815260200160002054611b7a90919063ffffffff16565b608260008473ffffffffffffffffffffffffffffffffffffffff1673ffffffffffffffffffffffffffffffffffffffff168152602001908152602001600020819055508173ffffffffffffffffffffffffffffffffffffffff168373ffffffffffffffffffffffffffffffffffffffff167fddf252ad1be2c89b69c2b068fc378daa952ba7f163c4a11628f55a4df523b3ef836040518082815260200191505060405180910390a3505050565b6000828211151515611b0157600080fd5b600082840390508091505092915050565b600080831415611b255760009050611b4a565b60008284029050828482811515611b3857fe5b04141515611b4557600080fd5b809150505b92915050565b60008082111515611b6057600080fd5b60008284811515611b6d57fe5b0490508091505092915050565b6000808284019050838110151515611b9157600080fd5b8091505092915050565b60008070020000000000000000000000000000000086101515611c26576040517f08c379a00000000000000000000000000000000000000000000000000000000081526004018080602001828103825260188152602001807f626173654e2065786365656473206d61782076616c75652e000000000000000081525060200191505060405180910390fd5b848610151515611c9e576040517f08c379a000000000000000000000000000000000000000000000000000000000815260040180806020018281038252601c8152602001807f4261736573203c203120617265206e6f7420737570706f727465642e0000000081525060200191505060405180910390fd5b600080866f800000000000000000000000000000008902811515611cbe57fe5b04905070015bf0a8b1457695355fb8ac404e7a79e3811015611cea57611ce381612141565b9150611cf6565b611cf381612711565b91505b60008563ffffffff168763ffffffff168402811515611d1157fe5b049050700800000000000000000000000000000000811015611d4457611d3681612856565b607f94509450505050611d76565b6000611d4f82612e16565b9050611d6c81607f0360ff1683908060020a820491505082612edb565b8195509550505050505b94509492505050565b60008082111515611df8576040517f08c379a00000000000000000000000000000000000000000000000000000000081526004018080602001828103825260198152602001807f4465706f736974206d757374206265206e6f6e2d7a65726f2e0000000000000081525060200191505060405180910390fd5b6000611e0383610d3f565b9050611e0f848261337e565b611e2483608654611b7a90919063ffffffff16565b6086819055508091505092915050565b60008082111515611ead576040517f08c379a00000000000000000000000000000000000000000000000000000000081526004018080602001828103825260188152602001807f416d6f756e74206d757374206265206e6f6e2d7a65726f2e000000000000000081525060200191505060405180910390fd5b81611eb733611293565b10151515611f2d576040517f08c379a000000000000000000000000000000000000000000000000000000000815260040180806020018281038252601c8152602001807f496e73756666696369656e7420746f6b656e7320746f206275726e2e0000000081525060200191505060405180910390fd5b6000611f3883611432565b9050611f4f81608654611af090919063ffffffff16565b608681905550611f5f33846134d4565b80915050919050565b806088608960009054906101000a900460ff1660ff16815481101515611f8a57fe5b9060005260206000200160006101000a81548173ffffffffffffffffffffffffffffffffffffffff021916908373ffffffffffffffffffffffffffffffffffffffff1602179055506001608960009054906101000a900460ff1601608960006101000a81548160ff021916908360ff160217905550600a60ff16608960009054906101000a900460ff1660ff1614156120425761202561362a565b6000608960006101000a81548160ff021916908360ff1602179055505b50565b600073ffffffffffffffffffffffffffffffffffffffff168173ffffffffffffffffffffffffffffffffffffffff161415151561208157600080fd5b8073ffffffffffffffffffffffffffffffffffffffff16608160009054906101000a900473ffffffffffffffffffffffffffffffffffffffff1673ffffffffffffffffffffffffffffffffffffffff167f8be0079c531659141344cd1fd0a4f28419497f9722a3daafe3b4186f6b6457e060405160405180910390a380608160006101000a81548173ffffffffffffffffffffffffffffffffffffffff021916908373ffffffffffffffffffffffffffffffffffffffff16021790555050565b6000806000905060008060006fd3094c70f034de4b96ff7d5b6f99fcd8861015156121ac576f40000000000000000000000000000000840193506fd3094c70f034de4b96ff7d5b6f99fcd86f8000000000000000000000000000000087028115156121a857fe5b0495505b6fa45af1e1f40c333b3de1db4dd55f29a78610151561220b576f20000000000000000000000000000000840193506fa45af1e1f40c333b3de1db4dd55f29a76f80000000000000000000000000000000870281151561220757fe5b0495505b6f910b022db7ae67ce76b441c27035c6a18610151561226a576f10000000000000000000000000000000840193506f910b022db7ae67ce76b441c27035c6a16f80000000000000000000000000000000870281151561226657fe5b0495505b6f88415abbe9a76bead8d00cf112e4d4a8861015156122c9576f08000000000000000000000000000000840193506f88415abbe9a76bead8d00cf112e4d4a86f8000000000000000000000000000000087028115156122c557fe5b0495505b6f84102b00893f64c705e841d5d4064bd386101515612328576f04000000000000000000000000000000840193506f84102b00893f64c705e841d5d4064bd36f80000000000000000000000000000000870281151561232457fe5b0495505b6f8204055aaef1c8bd5c3259f4822735a286101515612387576f02000000000000000000000000000000840193506f8204055aaef1c8bd5c3259f4822735a26f80000000000000000000000000000000870281151561238357fe5b0495505b6f810100ab00222d861931c15e39b44e99861015156123e6576f01000000000000000000000000000000840193506f810100ab00222d861931c15e39b44e996f8000000000000000000000000000000087028115156123e257fe5b0495505b6f808040155aabbbe9451521693554f73386101515612444576e800000000000000000000000000000840193506f808040155aabbbe9451521693554f7336f80000000000000000000000000000000870281151561244057fe5b0495505b6f80000000000000000000000000000000860392508291506f8000000000000000000000000000000083840281151561247957fe5b049050700100000000000000000000000000000000837001000000000000000000000000000000000383028115156124ad57fe5b04840193506f800000000000000000000000000000008183028115156124cf57fe5b049150700200000000000000000000000000000000836faaaaaaaaaaaaaaaaaaaaaaaaaaaaaaaa03830281151561250257fe5b04840193506f8000000000000000000000000000000081830281151561252457fe5b049150700300000000000000000000000000000000836f9999999999999999999999999999999903830281151561255757fe5b04840193506f8000000000000000000000000000000081830281151561257957fe5b049150700400000000000000000000000000000000836f924924924924924924924924924924920383028115156125ac57fe5b04840193506f800000000000000000000000000000008183028115156125ce57fe5b049150700500000000000000000000000000000000836f8e38e38e38e38e38e38e38e38e38e38e03830281151561260157fe5b04840193506f8000000000000000000000000000000081830281151561262357fe5b049150700600000000000000000000000000000000836f8ba2e8ba2e8ba2e8ba2e8ba2e8ba2e8b03830281151561265657fe5b04840193506f8000000000000000000000000000000081830281151561267857fe5b049150700700000000000000000000000000000000836f89d89d89d89d89d89d89d89d89d89d890383028115156126ab57fe5b04840193506f800000000000000000000000000000008183028115156126cd57fe5b049150700800000000000000000000000000000000836f8888888888888888888888888888888803830281151561270057fe5b048401935083945050505050919050565b6000806000905060008390507001000000000000000000000000000000008110151561278a57600061275d6f800000000000000000000000000000008381151561275757fe5b04613713565b90508060ff1682908060020a820491505091506f800000000000000000000000000000008160ff16029250505b6f8000000000000000000000000000000081111561281f576000607f90505b60008160ff16111561281d576f800000000000000000000000000000008283028115156127d257fe5b0491507001000000000000000000000000000000008210151561281157600182908060020a820491505091506001810360ff1660019060020a02830192505b806001900390506127a9565b505b6f05b9de1d10bf4103d647b0955897ba806f03f80fe03f80fe03f80fe03f80fe03f8830281151561284c57fe5b0492505050919050565b600080600090506000806f100000000000000000000000000000008581151561287b57fe5b0691508190506f8000000000000000000000000000000082820281151561289e57fe5b0490506710e1b3be415a00008102830192506f800000000000000000000000000000008282028115156128cd57fe5b0490506705a0913f6b1e00008102830192506f800000000000000000000000000000008282028115156128fc57fe5b049050670168244fdac780008102830192506f8000000000000000000000000000000082820281151561292b57fe5b049050664807432bc180008102830192506f8000000000000000000000000000000082820281151561295957fe5b049050660c0135dca040008102830192506f8000000000000000000000000000000082820281151561298757fe5b0490506601b707b1cdc0008102830192506f800000000000000000000000000000008282028115156129b557fe5b0490506536e0f639b8008102830192506f800000000000000000000000000000008282028115156129e257fe5b049050650618fee9f8008102830192506f80000000000000000000000000000000828202811515612a0f57fe5b049050649c197dcc008102830192506f80000000000000000000000000000000828202811515612a3b57fe5b049050640e30dce4008102830192506f80000000000000000000000000000000828202811515612a6757fe5b04905064012ebd13008102830192506f80000000000000000000000000000000828202811515612a9357fe5b0490506317499f008102830192506f80000000000000000000000000000000828202811515612abe57fe5b0490506301a9d4808102830192506f80000000000000000000000000000000828202811515612ae957fe5b049050621c63808102830192506f80000000000000000000000000000000828202811515612b1357fe5b0490506201c6388102830192506f80000000000000000000000000000000828202811515612b3d57fe5b049050611ab88102830192506f80000000000000000000000000000000828202811515612b6657fe5b04905061017c8102830192506f80000000000000000000000000000000828202811515612b8f57fe5b04905060148102830192506f80000000000000000000000000000000828202811515612bb757fe5b04905060018102830192506f80000000000000000000000000000000826721c3677c82b4000085811515612be757fe5b040101925060006f100000000000000000000000000000008616141515612c3b5770018ebef9eac820ae8682b9793ac6d1e7767001c3d6a24ed82218787d624d3e5eba95f98402811515612c3757fe5b0492505b60006f200000000000000000000000000000008616141515612c8a577001368b2fc6f9609fe7aceb46aa619baed470018ebef9eac820ae8682b9793ac6d1e7788402811515612c8657fe5b0492505b60006f400000000000000000000000000000008616141515612cd8576fbc5ab1b16779be3575bd8f0520a9f21f7001368b2fc6f9609fe7aceb46aa619baed58402811515612cd457fe5b0492505b60006f800000000000000000000000000000008616141515612d25576f454aaa8efe072e7f6ddbab84b40a55c96fbc5ab1b16779be3575bd8f0520a9f21e8402811515612d2157fe5b0492505b60007001000000000000000000000000000000008616141515612d73576f0960aadc109e7a3bf4578099615711ea6f454aaa8efe072e7f6ddbab84b40a55c58402811515612d6f57fe5b0492505b60007002000000000000000000000000000000008616141515612dc0576e2bf84208204f5977f9a8cf01fdce3d6f0960aadc109e7a3bf4578099615711d78402811515612dbc57fe5b0492505b60007004000000000000000000000000000000008616141515612e0b576d03c6ab775dd0b95b4cbee7e65d116e2bf84208204f5977f9a8cf01fdc3078402811515612e0757fe5b0492505b829350505050919050565b600080602090506000607f90505b8060ff166001830160ff161015612e79576000600282840160ff16811515612e4857fe5b0490508460018260ff16608081101515612e5e57fe5b0154101515612e6f57809250612e73565b8091505b50612e24565b8360018260ff16608081101515612e8c57fe5b0154101515612e9f578092505050612ed6565b8360018360ff16608081101515612eb257fe5b0154101515612ec5578192505050612ed6565b60001515612ecf57fe5b6000925050505b919050565b60008083905060008090508360ff16858302908060020a820491505091506f03442c4e6074a82f1797f72ac00000008202810190508360ff16858302908060020a820491505091506f0116b96f757c380fb287fd0e400000008202810190508360ff16858302908060020a820491505091506e45ae5bdd5f0e03eca1ff43900000008202810190508360ff16858302908060020a820491505091506e0defabf91302cd95b9ffda500000008202810190508360ff16858302908060020a820491505091506e02529ca9832b22439efff9b80000008202810190508360ff16858302908060020a820491505091506d54f1cf12bd04e516b6da880000008202810190508360ff16858302908060020a820491505091506d0a9e39e257a09ca2d6db510000008202810190508360ff16858302908060020a820491505091506d012e066e7b839fa050c3090000008202810190508360ff16858302908060020a820491505091506c1e33d7d926c329a1ad1a8000008202810190508360ff16858302908060020a820491505091506c02bee513bdb4a6b19b5f8000008202810190508360ff16858302908060020a820491505091506b3a9316fa79b88eccf2a000008202810190508360ff16858302908060020a820491505091506b048177ebe1fa8123752000008202810190508360ff16858302908060020a820491505091506a5263fe90242dcbacf000008202810190508360ff16858302908060020a820491505091506a057e22099c030d941000008202810190508360ff16858302908060020a820491505091506957e22099c030d94100008202810190508360ff16858302908060020a8204915050915069052b6b545699763100008202810190508360ff16858302908060020a82049150509150684985f67696bf7480008202810190508360ff16858302908060020a820491505091506803dea12ea99e4980008202810190508360ff16858302908060020a820491505091506731880f2214b6e0008202810190508360ff16858302908060020a8204915050915067025bcff56eb360008202810190508360ff16858302908060020a82049150509150661b722e10ab10008202810190508360ff16858302908060020a820491505091506601317c700770008202810190508360ff16858302908060020a82049150509150650cba84aafa008202810190508360ff16858302908060020a820491505091506482573a0a008202810190508360ff16858302908060020a820491505091506405035ad9008202810190508360ff16858302908060020a82049150509150632f881b008202810190508360ff16858302908060020a820491505091506301b293408202810190508360ff16858302908060020a82049150509150620efc408202810190508360ff16858302908060020a82049150509150617fe08202810190508360ff16858302908060020a820491505091506104208202810190508360ff16858302908060020a8204915050915060218202810190508360ff16858302908060020a8204915050915060018202810190508360ff1660019060020a02856f0688589cc0e9505e2f2fee55800000008381151561337157fe5b0401019250505092915050565b600073ffffffffffffffffffffffffffffffffffffffff168273ffffffffffffffffffffffffffffffffffffffff16141515156133ba57600080fd5b6133cf81608454611b7a90919063ffffffff16565b60848190555061342781608260008573ffffffffffffffffffffffffffffffffffffffff1673ffffffffffffffffffffffffffffffffffffffff16815260200190815260200160002054611b7a90919063ffffffff16565b608260008473ffffffffffffffffffffffffffffffffffffffff1673ffffffffffffffffffffffffffffffffffffffff168152602001908152602001600020819055508173ffffffffffffffffffffffffffffffffffffffff16600073ffffffffffffffffffffffffffffffffffffffff167fddf252ad1be2c89b69c2b068fc378daa952ba7f163c4a11628f55a4df523b3ef836040518082815260200191505060405180910390a35050565b600073ffffffffffffffffffffffffffffffffffffffff168273ffffffffffffffffffffffffffffffffffffffff161415151561351057600080fd5b61352581608454611af090919063ffffffff16565b60848190555061357d81608260008573ffffffffffffffffffffffffffffffffffffffff1673ffffffffffffffffffffffffffffffffffffffff16815260200190815260200160002054611af090919063ffffffff16565b608260008473ffffffffffffffffffffffffffffffffffffffff1673ffffffffffffffffffffffffffffffffffffffff16815260200190815260200160002081905550600073ffffffffffffffffffffffffffffffffffffffff168273ffffffffffffffffffffffffffffffffffffffff167fddf252ad1be2c89b69c2b068fc378daa952ba7f163c4a11628f55a4df523b3ef836040518082815260200191505060405180910390a35050565b6000600a60ff1666470de4df820000029050600061364c600560ff16836137b2565b905061366381608a54611b7a90919063ffffffff16565b608a8190555061367c8183611af090919063ffffffff16565b91506000613697600360ff1684611b5090919063ffffffff16565b905060008090505b600360ff1681101561370d5760006136ba600a60ff166137e2565b90506136ff6088828154811015156136ce57fe5b9060005260206000200160009054906101000a900473ffffffffffffffffffffffffffffffffffffffff1684610f0f565b50808060010191505061369f565b50505050565b600080600090506000839050610100811015613752575b600181111561374d57600181908060020a8204915050905060018201915061372a565b6137a8565b6000608090505b60008160ff1611156137a6578060ff1660019060020a028210151561378f578060ff1682908060020a8204915050915080831792505b60018160ff16908060020a82049150509050613759565b505b8192505050919050565b60006137da60646137cc8585611b1290919063ffffffff16565b611b5090919063ffffffff16565b905092915050565b60008142446040516020018083815260200182815260200192505050604051602081830303815290604052805190602001206001900481151561382157fe5b06905091905056fea165627a7a72305820d67e2ec9835fc8738d0cab53f97d4d67cfc61c7fd5c82bb157cb2a95b69710e50029",
  "source": "pragma solidity ^0.5.2;\r\n\r\n// GAME\r\nimport \"openzeppelin-solidity/contracts/math/SafeMath.sol\";\r\nimport \"openzeppelin-solidity/contracts/ownership/Ownable.sol\";\r\n\r\n// TOKEN\r\nimport \"./ContinuousToken.sol\";\r\n\r\ncontract SpaceMiners is Ownable, ContinuousToken {\r\n\r\n  using SafeMath for uint;\r\n\r\n  uint public constant PRICE_TO_MINE = 20 finney;\r\n  uint8 public constant PLANET_CAPACITY = 10;\r\n  uint8 public constant NUM_WINNERS = 3;\r\n  uint8 constant OWNER_FEE_PERCENT = 5;\r\n  address[] miners = new address[](PLANET_CAPACITY);\r\n  uint8 public planetPopulation = 0;\r\n  uint ownerHoldings = 1;\r\n\r\n  string public constant name = \"Kerium Crystals\";\r\n  string public constant symbol = \"KMC\";\r\n  uint8 public constant decimals = 18;\r\n\r\n  function getNumUsersMinersOnPlanet(address miner) public view returns (uint) {\r\n    uint count = 0;\r\n    for (uint i = 0; i < planetPopulation; i++) {\r\n      if (miners[i] == miner) {\r\n        count++;\r\n      }\r\n    }\r\n    return count;\r\n  }\r\n\r\n  function sendSingleMinerToPlanet(address miner) internal {\r\n    miners[planetPopulation] = miner;\r\n    planetPopulation = planetPopulation + 1;\r\n    if (planetPopulation == PLANET_CAPACITY) {\r\n      rewardMiners();\r\n      planetPopulation = 0;\r\n    }\r\n  }\r\n\r\n  function sendMinersToPlanet(uint numMiners) public payable {\r\n    require(msg.value >= numMiners * PRICE_TO_MINE, \"Not enough paid for mining\");\r\n    require(planetPopulation < PLANET_CAPACITY, \"Planet is full\");\r\n    mint(msg.sender, numMiners);\r\n    for (uint i = 0; i < numMiners; i++) {\r\n      sendSingleMinerToPlanet(msg.sender);\r\n    }\r\n  }\r\n\r\n  function percentOfValue(uint percent, uint value) pure internal returns (uint) {\r\n    return (value.mul(percent)).div(100);\r\n  }\r\n\r\n  function getRandom(uint cap) view internal returns (uint) {\r\n    return uint256(keccak256(abi.encodePacked(block.timestamp, block.difficulty))) % cap;\r\n  }\r\n\r\n  function rewardMiners() internal {\r\n    // First take OWNER_FEE_PERCENT\r\n    uint roundEarnings = PRICE_TO_MINE * PLANET_CAPACITY;\r\n    uint ownerFee = percentOfValue(OWNER_FEE_PERCENT, roundEarnings);\r\n    ownerHoldings = ownerHoldings.add(ownerFee);\r\n    roundEarnings = roundEarnings.sub(ownerFee);\r\n    uint rewardAmount = roundEarnings.div(NUM_WINNERS);\r\n    for (uint i = 0; i < NUM_WINNERS; i++) {\r\n      uint rnd = getRandom(PLANET_CAPACITY);\r\n      mint(miners[rnd], rewardAmount);\r\n    }\r\n  }\r\n\r\n  function cashOutOwnerFee() public payable onlyOwner {\r\n    require(ownerHoldings > 1);\r\n    msg.sender.transfer(ownerHoldings - 1);\r\n    ownerHoldings = 1;\r\n  }\r\n\r\n  function() external payable {}\r\n\r\n}",
  "sourcePath": "D:/dapps/space-miners/contracts/SpaceMiners.sol",
  "compiler": {
    "name": "solc",
    "version": "0.5.2+commit.1df8f40c.Emscripten.clang"
  },
  "schemaVersion": "3.0.6",
  "updatedAt": "2019-05-22T09:03:12.079Z",
  "devdoc": {
    "methods": {
      "allowance(address,address)": {
        "details": "Function to check the amount of tokens that an owner allowed to a spender.",
        "params": {
          "owner": "address The address which owns the funds.",
          "spender": "address The address which will spend the funds."
        },
        "return": "A uint256 specifying the amount of tokens still available for the spender."
      },
      "approve(address,uint256)": {
        "details": "Approve the passed address to spend the specified amount of tokens on behalf of msg.sender. Beware that changing an allowance with this method brings the risk that someone may use both the old and the new allowance by unfortunate transaction ordering. One possible solution to mitigate this race condition is to first reduce the spender's allowance to 0 and set the desired value afterwards: https://github.com/ethereum/EIPs/issues/20#issuecomment-263524729",
        "params": {
          "spender": "The address which will spend the funds.",
          "value": "The amount of tokens to be spent."
        }
      },
      "balanceOf(address)": {
        "details": "Gets the balance of the specified address.",
        "params": {
          "owner": "The address to query the balance of."
        },
        "return": "A uint256 representing the amount owned by the passed address."
      },
      "calculatePurchaseReturn(uint256,uint256,uint32,uint256)": {
        "details": "given a continuous token supply, reserve token balance, reserve ratio, and a deposit amount (in the reserve token),\r calculates the return for a given conversion (in the continuous token)\r    * Formula:\r Return = _supply * ((1 + _depositAmount / _reserveBalance) ^ (_reserveRatio / MAX_RESERVE_RATIO) - 1)\r ",
        "params": {
          "_depositAmount": "deposit amount, in reserve token\r ",
          "_reserveBalance": "total reserve token balance\r",
          "_reserveRatio": "reserve ratio, represented in ppm, 1-1000000\r",
          "_supply": "continuous token total supply\r"
        },
        "return": "purchase return amount\r"
      },
      "calculateSaleReturn(uint256,uint256,uint32,uint256)": {
        "details": "given a continuous token supply, reserve token balance, reserve ratio and a sell amount (in the continuous token),\r calculates the return for a given conversion (in the reserve token)\r    * Formula:\r Return = _reserveBalance * (1 - (1 - _sellAmount / _supply) ^ (1 / (_reserveRatio / MAX_RESERVE_RATIO)))\r ",
        "params": {
          "_reserveBalance": "total reserve token balance\r",
          "_reserveRatio": "constant reserve ratio, represented in ppm, 1-1000000\r",
          "_sellAmount": "sell amount, in the continuous token itself\r ",
          "_supply": "continuous token total supply\r"
        },
        "return": "sale return amount\r"
      },
      "decreaseAllowance(address,uint256)": {
        "details": "Decrease the amount of tokens that an owner allowed to a spender. approve should be called when _allowed[msg.sender][spender] == 0. To decrement allowed value is better to use this function to avoid 2 calls (and wait until the first transaction is mined) From MonolithDAO Token.sol Emits an Approval event.",
        "params": {
          "spender": "The address which will spend the funds.",
          "subtractedValue": "The amount of tokens to decrease the allowance by."
        }
      },
      "increaseAllowance(address,uint256)": {
        "details": "Increase the amount of tokens that an owner allowed to a spender. approve should be called when _allowed[msg.sender][spender] == 0. To increment allowed value is better to use this function to avoid 2 calls (and wait until the first transaction is mined) From MonolithDAO Token.sol Emits an Approval event.",
        "params": {
          "addedValue": "The amount of tokens to increase the allowance by.",
          "spender": "The address which will spend the funds."
        }
      },
      "isOwner()": {
        "return": "true if `msg.sender` is the owner of the contract."
      },
      "owner()": {
        "return": "the address of the owner."
      },
      "renounceOwnership()": {
        "details": "Allows the current owner to relinquish control of the contract. It will not be possible to call the functions with the `onlyOwner` modifier anymore."
      },
      "totalSupply()": {
        "details": "Total number of tokens in existence"
      },
      "transfer(address,uint256)": {
        "details": "Transfer token to a specified address",
        "params": {
          "to": "The address to transfer to.",
          "value": "The amount to be transferred."
        }
      },
      "transferFrom(address,address,uint256)": {
        "details": "Transfer tokens from one address to another. Note that while this function emits an Approval event, this is not required as per the specification, and other compliant implementations may not emit the event.",
        "params": {
          "from": "address The address which you want to send tokens from",
          "to": "address The address which you want to transfer to",
          "value": "uint256 the amount of tokens to be transferred"
        }
      },
      "transferOwnership(address)": {
        "details": "Allows the current owner to transfer control of the contract to a newOwner.",
        "params": {
          "newOwner": "The address to transfer ownership to."
        }
      }
    }
  },
  "userdoc": {
    "methods": {
      "renounceOwnership()": {
        "notice": "Renouncing ownership will leave the contract without an owner, thereby removing any functionality that is only available to the owner."
      }
    }
  }
}