{
  "contractName": "SpaceMiners",
  "abi": [
    {
      "constant": true,
      "inputs": [],
      "name": "ERC20Interface",
      "outputs": [
        {
          "name": "",
          "type": "address"
        }
      ],
      "payable": false,
      "stateMutability": "view",
      "type": "function",
      "signature": "0x1bbc4b83"
    },
    {
      "constant": true,
      "inputs": [],
      "name": "PRICE_TO_MINE",
      "outputs": [
        {
          "name": "",
          "type": "uint256"
        }
      ],
      "payable": false,
      "stateMutability": "view",
      "type": "function",
      "signature": "0x6051666f"
    },
    {
      "constant": false,
      "inputs": [],
      "name": "renounceOwnership",
      "outputs": [],
      "payable": false,
      "stateMutability": "nonpayable",
      "type": "function",
      "signature": "0x715018a6"
    },
    {
      "constant": true,
      "inputs": [],
      "name": "owner",
      "outputs": [
        {
          "name": "",
          "type": "address"
        }
      ],
      "payable": false,
      "stateMutability": "view",
      "type": "function",
      "signature": "0x8da5cb5b"
    },
    {
      "constant": true,
      "inputs": [],
      "name": "isOwner",
      "outputs": [
        {
          "name": "",
          "type": "bool"
        }
      ],
      "payable": false,
      "stateMutability": "view",
      "type": "function",
      "signature": "0x8f32d59b"
    },
    {
      "constant": true,
      "inputs": [
        {
          "name": "",
          "type": "address"
        }
      ],
      "name": "keriumHoldings",
      "outputs": [
        {
          "name": "",
          "type": "uint256"
        }
      ],
      "payable": false,
      "stateMutability": "view",
      "type": "function",
      "signature": "0xb9008405"
    },
    {
      "constant": false,
      "inputs": [
        {
          "name": "newOwner",
          "type": "address"
        }
      ],
      "name": "transferOwnership",
      "outputs": [],
      "payable": false,
      "stateMutability": "nonpayable",
      "type": "function",
      "signature": "0xf2fde38b"
    },
    {
      "payable": true,
      "stateMutability": "payable",
      "type": "fallback"
    },
    {
      "anonymous": false,
      "inputs": [
        {
          "indexed": true,
          "name": "previousOwner",
          "type": "address"
        },
        {
          "indexed": true,
          "name": "newOwner",
          "type": "address"
        }
      ],
      "name": "OwnershipTransferred",
      "type": "event",
      "signature": "0x8be0079c531659141344cd1fd0a4f28419497f9722a3daafe3b4186f6b6457e0"
    },
    {
      "constant": false,
      "inputs": [
        {
          "name": "tokenAddress",
          "type": "address"
        }
      ],
      "name": "setKeriumAddress",
      "outputs": [],
      "payable": false,
      "stateMutability": "nonpayable",
      "type": "function",
      "signature": "0x49c5117d"
    },
    {
      "constant": false,
      "inputs": [
        {
          "name": "isMinable",
          "type": "bool"
        }
      ],
      "name": "setPlanetMinable",
      "outputs": [],
      "payable": false,
      "stateMutability": "nonpayable",
      "type": "function",
      "signature": "0xee87ee08"
    },
    {
      "constant": true,
      "inputs": [],
      "name": "getPriceToMine",
      "outputs": [
        {
          "name": "",
          "type": "uint256"
        }
      ],
      "payable": false,
      "stateMutability": "view",
      "type": "function",
      "signature": "0x3b595c14"
    },
    {
      "constant": true,
      "inputs": [],
      "name": "getPlanetCapacity",
      "outputs": [
        {
          "name": "",
          "type": "uint256"
        }
      ],
      "payable": false,
      "stateMutability": "view",
      "type": "function",
      "signature": "0xd23d7ab1"
    },
    {
      "constant": true,
      "inputs": [],
      "name": "getPlanetPopulation",
      "outputs": [
        {
          "name": "",
          "type": "uint256"
        }
      ],
      "payable": false,
      "stateMutability": "view",
      "type": "function",
      "signature": "0xdf0298cc"
    },
    {
      "constant": true,
      "inputs": [],
      "name": "getNumUsersMinersOnPlanet",
      "outputs": [
        {
          "name": "",
          "type": "uint256"
        }
      ],
      "payable": false,
      "stateMutability": "view",
      "type": "function",
      "signature": "0x42000897"
    },
    {
      "constant": false,
      "inputs": [],
      "name": "getKeriumHoldings",
      "outputs": [
        {
          "name": "",
          "type": "uint256"
        }
      ],
      "payable": true,
      "stateMutability": "payable",
      "type": "function",
      "signature": "0x7f707ef5"
    },
    {
      "constant": false,
      "inputs": [],
      "name": "collectKeriumHoldings",
      "outputs": [],
      "payable": true,
      "stateMutability": "payable",
      "type": "function",
      "signature": "0xabe887fc"
    },
    {
      "constant": false,
      "inputs": [
        {
          "name": "numMiners",
          "type": "uint256"
        }
      ],
      "name": "sendMinersToPlanet",
      "outputs": [],
      "payable": true,
      "stateMutability": "payable",
      "type": "function",
      "signature": "0xbbbf2269"
    },
    {
      "constant": true,
      "inputs": [],
      "name": "getEthToKeriumRatio",
      "outputs": [
        {
          "name": "",
          "type": "uint256"
        }
      ],
      "payable": false,
      "stateMutability": "pure",
      "type": "function",
      "signature": "0x063b11f1"
    }
  ],
  "bytecode": "0x608060405266470de4df820000600155600a600255600560035560006004556001600560006101000a81548160ff02191690831515021790555060025460405190808252806020026020018201604052801561006a5781602001602082028038833980820191505090505b5060079080519060200190610080929190610142565b50336000806101000a81548173ffffffffffffffffffffffffffffffffffffffff021916908373ffffffffffffffffffffffffffffffffffffffff1602179055506000809054906101000a900473ffffffffffffffffffffffffffffffffffffffff1673ffffffffffffffffffffffffffffffffffffffff16600073ffffffffffffffffffffffffffffffffffffffff167f8be0079c531659141344cd1fd0a4f28419497f9722a3daafe3b4186f6b6457e060405160405180910390a361020f565b8280548282559060005260206000209081019282156101bb579160200282015b828111156101ba5782518260006101000a81548173ffffffffffffffffffffffffffffffffffffffff021916908373ffffffffffffffffffffffffffffffffffffffff16021790555091602001919060010190610162565b5b5090506101c891906101cc565b5090565b61020c91905b8082111561020857600081816101000a81549073ffffffffffffffffffffffffffffffffffffffff0219169055506001016101d2565b5090565b90565b6110cc8061021e6000396000f3fe60806040526004361061011b576000357c0100000000000000000000000000000000000000000000000000000000900480638da5cb5b116100b2578063bbbf226911610081578063bbbf22691461039b578063d23d7ab1146103c9578063df0298cc146103f4578063ee87ee081461041f578063f2fde38b1461045c5761011b565b80638da5cb5b146102a65780638f32d59b146102fd578063abe887fc1461032c578063b9008405146103365761011b565b806349c5117d116100ee57806349c5117d146101f55780636051666f14610246578063715018a6146102715780637f707ef5146102885761011b565b8063063b11f11461011d5780631bbc4b83146101485780633b595c141461019f57806342000897146101ca575b005b34801561012957600080fd5b506101326104ad565b6040518082815260200191505060405180910390f35b34801561015457600080fd5b5061015d6104b6565b604051808273ffffffffffffffffffffffffffffffffffffffff1673ffffffffffffffffffffffffffffffffffffffff16815260200191505060405180910390f35b3480156101ab57600080fd5b506101b46104dc565b6040518082815260200191505060405180910390f35b3480156101d657600080fd5b506101df6104e6565b6040518082815260200191505060405180910390f35b34801561020157600080fd5b506102446004803603602081101561021857600080fd5b81019080803573ffffffffffffffffffffffffffffffffffffffff169060200190929190505050610588565b005b34801561025257600080fd5b5061025b6105df565b6040518082815260200191505060405180910390f35b34801561027d57600080fd5b506102866105e5565b005b6102906106b7565b6040518082815260200191505060405180910390f35b3480156102b257600080fd5b506102bb6106fe565b604051808273ffffffffffffffffffffffffffffffffffffffff1673ffffffffffffffffffffffffffffffffffffffff16815260200191505060405180910390f35b34801561030957600080fd5b50610312610727565b604051808215151515815260200191505060405180910390f35b61033461077e565b005b34801561034257600080fd5b506103856004803603602081101561035957600080fd5b81019080803573ffffffffffffffffffffffffffffffffffffffff1690602001909291905050506109c2565b6040518082815260200191505060405180910390f35b6103c7600480360360208110156103b157600080fd5b81019080803590602001909291905050506109da565b005b3480156103d557600080fd5b506103de610b7d565b6040518082815260200191505060405180910390f35b34801561040057600080fd5b50610409610b87565b6040518082815260200191505060405180910390f35b34801561042b57600080fd5b5061045a6004803603602081101561044257600080fd5b81019080803515159060200190929190505050610b91565b005b34801561046857600080fd5b506104ab6004803603602081101561047f57600080fd5b81019080803573ffffffffffffffffffffffffffffffffffffffff169060200190929190505050610bc1565b005b60006001905090565b600860009054906101000a900473ffffffffffffffffffffffffffffffffffffffff1681565b6000600154905090565b6000806000905060008090505b600454811015610580573373ffffffffffffffffffffffffffffffffffffffff1660078281548110151561052357fe5b9060005260206000200160009054906101000a900473ffffffffffffffffffffffffffffffffffffffff1673ffffffffffffffffffffffffffffffffffffffff1614156105735781806001019250505b80806001019150506104f3565b508091505090565b610590610727565b151561059b57600080fd5b80600860006101000a81548173ffffffffffffffffffffffffffffffffffffffff021916908373ffffffffffffffffffffffffffffffffffffffff16021790555050565b60015481565b6105ed610727565b15156105f857600080fd5b600073ffffffffffffffffffffffffffffffffffffffff166000809054906101000a900473ffffffffffffffffffffffffffffffffffffffff1673ffffffffffffffffffffffffffffffffffffffff167f8be0079c531659141344cd1fd0a4f28419497f9722a3daafe3b4186f6b6457e060405160405180910390a360008060006101000a81548173ffffffffffffffffffffffffffffffffffffffff021916908373ffffffffffffffffffffffffffffffffffffffff160217905550565b6000600660003373ffffffffffffffffffffffffffffffffffffffff1673ffffffffffffffffffffffffffffffffffffffff16815260200190815260200160002054905090565b60008060009054906101000a900473ffffffffffffffffffffffffffffffffffffffff16905090565b60008060009054906101000a900473ffffffffffffffffffffffffffffffffffffffff1673ffffffffffffffffffffffffffffffffffffffff163373ffffffffffffffffffffffffffffffffffffffff1614905090565b6000600660003373ffffffffffffffffffffffffffffffffffffffff1673ffffffffffffffffffffffffffffffffffffffff16815260200190815260200160002054111515610835576040517f08c379a00000000000000000000000000000000000000000000000000000000081526004018080602001828103825260188152602001807f4e6f204b657269756d20686f6c64696e677320666f756e64000000000000000081525060200191505060405180910390fd5b6000600660003373ffffffffffffffffffffffffffffffffffffffff1673ffffffffffffffffffffffffffffffffffffffff1681526020019081526020016000205490506000600660003373ffffffffffffffffffffffffffffffffffffffff1673ffffffffffffffffffffffffffffffffffffffff16815260200190815260200160002081905550600860009054906101000a900473ffffffffffffffffffffffffffffffffffffffff1673ffffffffffffffffffffffffffffffffffffffff166340c10f1933836040518363ffffffff167c0100000000000000000000000000000000000000000000000000000000028152600401808373ffffffffffffffffffffffffffffffffffffffff1673ffffffffffffffffffffffffffffffffffffffff16815260200182815260200192505050602060405180830381600087803b15801561098357600080fd5b505af1158015610997573d6000803e3d6000fd5b505050506040513d60208110156109ad57600080fd5b81019080805190602001909291905050505050565b60066020528060005260406000206000915090505481565b600560009054906101000a900460ff161515610a5e576040517f08c379a00000000000000000000000000000000000000000000000000000000081526004018080602001828103825260108152602001807f506c616e657420697320636c6f7365640000000000000000000000000000000081525060200191505060405180910390fd5b60015481023410151515610ada576040517f08c379a000000000000000000000000000000000000000000000000000000000815260040180806020018281038252601a8152602001807f4e6f7420656e6f756768207061696420666f72206d696e696e6700000000000081525060200191505060405180910390fd5b600254600454101515610b55576040517f08c379a000000000000000000000000000000000000000000000000000000000815260040180806020018281038252600e8152602001807f506c616e65742069732066756c6c00000000000000000000000000000000000081525060200191505060405180910390fd5b60008090505b81811015610b7957610b6c33610be0565b8080600101915050610b5b565b5050565b6000600254905090565b6000600454905090565b610b99610727565b1515610ba457600080fd5b80600560006101000a81548160ff02191690831515021790555050565b610bc9610727565b1515610bd457600080fd5b610bdd81610ca4565b50565b806007600454815481101515610bf257fe5b9060005260206000200160006101000a81548173ffffffffffffffffffffffffffffffffffffffff021916908373ffffffffffffffffffffffffffffffffffffffff160217905550610c506001600454610d9e90919063ffffffff16565b6004819055506002546004541415610ca1576000600560006101000a81548160ff021916908315150217905550610c85610dbf565b6001600560006101000a81548160ff0219169083151502179055505b50565b600073ffffffffffffffffffffffffffffffffffffffff168173ffffffffffffffffffffffffffffffffffffffff1614151515610ce057600080fd5b8073ffffffffffffffffffffffffffffffffffffffff166000809054906101000a900473ffffffffffffffffffffffffffffffffffffffff1673ffffffffffffffffffffffffffffffffffffffff167f8be0079c531659141344cd1fd0a4f28419497f9722a3daafe3b4186f6b6457e060405160405180910390a3806000806101000a81548173ffffffffffffffffffffffffffffffffffffffff021916908373ffffffffffffffffffffffffffffffffffffffff16021790555050565b6000808284019050838110151515610db557600080fd5b8091505092915050565b60006002546001540290506000610dd860035483610ea0565b9050610ded8183610ed090919063ffffffff16565b91506060610df9610ef2565b905060008090505b600254811015610e92576000610e18603286610ea0565b9050600160025403821015610e6257610e488383815181101515610e3857fe5b9060200190602002015182610f80565b610e5b8186610ed090919063ffffffff16565b9450610e84565b610e838383815181101515610e7357fe5b9060200190602002015186610f80565b5b508080600101915050610e01565b506000600481905550505050565b6000610ec86064610eba858561103890919063ffffffff16565b61107690919063ffffffff16565b905092915050565b6000828211151515610ee157600080fd5b600082840390508091505092915050565b60606007805480602002602001604051908101604052809291908181526020018280548015610f7657602002820191906000526020600020905b8160009054906101000a900473ffffffffffffffffffffffffffffffffffffffff1673ffffffffffffffffffffffffffffffffffffffff1681526020019060010190808311610f2c575b5050505050905090565b6000610f9c610f8d6104ad565b8361103890919063ffffffff16565b9050610ff081600660008673ffffffffffffffffffffffffffffffffffffffff1673ffffffffffffffffffffffffffffffffffffffff16815260200190815260200160002054610d9e90919063ffffffff16565b600660008573ffffffffffffffffffffffffffffffffffffffff1673ffffffffffffffffffffffffffffffffffffffff16815260200190815260200160002081905550505050565b60008083141561104b5760009050611070565b6000828402905082848281151561105e57fe5b0414151561106b57600080fd5b809150505b92915050565b6000808211151561108657600080fd5b6000828481151561109357fe5b049050809150509291505056fea165627a7a72305820ef99137657336b6cca2dabad07e2211a5856e8cbfdeeccf29beb7bb2cb754f9c0029",
  "source": "pragma solidity ^0.5.2;\r\n\r\nimport \"openzeppelin-solidity/contracts/math/SafeMath.sol\";\r\nimport \"openzeppelin-solidity/contracts/token/ERC20/ERC20.sol\";\r\nimport \"openzeppelin-solidity/contracts/token/ERC20/ERC20Mintable.sol\";\r\nimport \"openzeppelin-solidity/contracts/ownership/Ownable.sol\";\r\n\r\ncontract SpaceMiners is Ownable {\r\n\r\n  using SafeMath for uint;\r\n\r\n  uint public PRICE_TO_MINE = 20 finney;\r\n  uint PLANET_CAPACITY = 10;\r\n  uint OWNER_FEE_PERCENT = 5;\r\n  uint planetPopulation = 0;\r\n  bool planetMinable = true;\r\n  mapping(address => uint) public keriumHoldings;\r\n\r\n  address[] miners = new address[](PLANET_CAPACITY);\r\n\r\n  ERC20Mintable public ERC20Interface;\r\n\r\n  function setKeriumAddress(address tokenAddress) public onlyOwner {\r\n    ERC20Interface = ERC20Mintable(tokenAddress);\r\n  }\r\n\r\n  function setPlanetMinable(bool isMinable) public onlyOwner {\r\n    planetMinable = isMinable;\r\n  }\r\n\r\n  function getPriceToMine() public view returns (uint) {\r\n    return PRICE_TO_MINE;\r\n  }\r\n\r\n  function getPlanetCapacity() public view returns (uint) {\r\n    return PLANET_CAPACITY;\r\n  }\r\n\r\n  function getPlanetPopulation() public view returns (uint) {\r\n    return planetPopulation;\r\n  }\r\n\r\n  function getNumUsersMinersOnPlanet() public view returns (uint) {\r\n    uint count = 0;\r\n    for (uint i = 0; i < planetPopulation; i++) {\r\n      if (miners[i] == msg.sender) {\r\n        count++;\r\n      }\r\n    }\r\n    return count;\r\n  }\r\n\r\n  function getKeriumHoldings() public payable returns (uint) {\r\n    return keriumHoldings[msg.sender];\r\n  }\r\n\r\n  function collectKeriumHoldings() public payable {\r\n    require(keriumHoldings[msg.sender] > 0, \"No Kerium holdings found\");\r\n    uint total = keriumHoldings[msg.sender];\r\n    keriumHoldings[msg.sender] = 0;\r\n    ERC20Interface.mint(msg.sender, total);\r\n  }\r\n\r\n  function sendSingleMinerToPlanet(address miner) internal {\r\n    miners[planetPopulation] = miner;\r\n    planetPopulation = planetPopulation.add(1);\r\n    if (planetPopulation == PLANET_CAPACITY) {\r\n      planetMinable = false;\r\n      rewardMiners();\r\n      planetMinable = true;\r\n    }\r\n  }\r\n\r\n  function sendMinersToPlanet(uint numMiners) public payable {\r\n    require(planetMinable, \"Planet is closed\");\r\n    require(msg.value >= numMiners * PRICE_TO_MINE, \"Not enough paid for mining\");\r\n    require(planetPopulation < PLANET_CAPACITY, \"Planet is full\");\r\n    for (uint i = 0; i < numMiners; i++) {\r\n      sendSingleMinerToPlanet(msg.sender);\r\n    }\r\n  }\r\n\r\n  function getRandomisedMinerList() view internal returns (address[] memory) {\r\n    // TODO: Use random engine to generate indices\r\n    // Then use that list to return miners\r\n    return miners;\r\n  }\r\n\r\n  function percentOfValue(uint percent, uint value) pure internal returns (uint) {\r\n    return (value.mul(percent)).div(100);\r\n  }\r\n\r\n  function getEthToKeriumRatio() pure public returns (uint) {\r\n    // TODO: Get price from Bancor\r\n    return 1;\r\n  }\r\n\r\n  function giveMinerReward(address recipient, uint rewardAmount) internal {\r\n    uint keriumAmount = rewardAmount.mul(getEthToKeriumRatio());\r\n    keriumHoldings[recipient] = keriumHoldings[recipient].add(keriumAmount);\r\n  }\r\n\r\n  function rewardMiners() internal {\r\n    // First take OWNER_FEE_PERCENT\r\n    uint roundEarnings = PRICE_TO_MINE * PLANET_CAPACITY;\r\n    uint ownerFee = percentOfValue(OWNER_FEE_PERCENT, roundEarnings);\r\n    roundEarnings = roundEarnings.sub(ownerFee);\r\n    // Then go through each miner\r\n    address[] memory recipients = getRandomisedMinerList();\r\n    for (uint i = 0; i < PLANET_CAPACITY; i++) {\r\n      uint rewardAmount = percentOfValue(50, roundEarnings);\r\n      if (i < PLANET_CAPACITY - 1) {\r\n        giveMinerReward(recipients[i], rewardAmount);\r\n        roundEarnings = roundEarnings.sub(rewardAmount);\r\n      } else {\r\n        // Last miner gets rounding error extra\r\n        giveMinerReward(recipients[i], roundEarnings);\r\n      }\r\n    }\r\n    planetPopulation = 0;\r\n  }\r\n\r\n  function() external payable {}\r\n\r\n}",
  "sourcePath": "D:/dapps/space-miners/contracts/SpaceMiners.sol",
  "compiler": {
    "name": "solc",
    "version": "0.5.2+commit.1df8f40c.Emscripten.clang"
  },
  "schemaVersion": "3.0.6",
  "updatedAt": "2019-05-12T01:45:10.888Z",
  "devdoc": {
    "methods": {
      "isOwner()": {
        "return": "true if `msg.sender` is the owner of the contract."
      },
      "owner()": {
        "return": "the address of the owner."
      },
      "renounceOwnership()": {
        "details": "Allows the current owner to relinquish control of the contract. It will not be possible to call the functions with the `onlyOwner` modifier anymore."
      },
      "transferOwnership(address)": {
        "details": "Allows the current owner to transfer control of the contract to a newOwner.",
        "params": {
          "newOwner": "The address to transfer ownership to."
        }
      }
    }
  },
  "userdoc": {
    "methods": {
      "renounceOwnership()": {
        "notice": "Renouncing ownership will leave the contract without an owner, thereby removing any functionality that is only available to the owner."
      }
    }
  }
}