{
  "contractName": "SpaceMiners",
  "abi": [
    {
      "constant": true,
      "inputs": [],
      "name": "ERC20Interface",
      "outputs": [
        {
          "name": "",
          "type": "address"
        }
      ],
      "payable": false,
      "stateMutability": "view",
      "type": "function"
    },
    {
      "constant": true,
      "inputs": [],
      "name": "PRICE_TO_MINE",
      "outputs": [
        {
          "name": "",
          "type": "uint256"
        }
      ],
      "payable": false,
      "stateMutability": "view",
      "type": "function"
    },
    {
      "constant": false,
      "inputs": [],
      "name": "renounceOwnership",
      "outputs": [],
      "payable": false,
      "stateMutability": "nonpayable",
      "type": "function"
    },
    {
      "constant": true,
      "inputs": [],
      "name": "owner",
      "outputs": [
        {
          "name": "",
          "type": "address"
        }
      ],
      "payable": false,
      "stateMutability": "view",
      "type": "function"
    },
    {
      "constant": true,
      "inputs": [],
      "name": "isOwner",
      "outputs": [
        {
          "name": "",
          "type": "bool"
        }
      ],
      "payable": false,
      "stateMutability": "view",
      "type": "function"
    },
    {
      "constant": true,
      "inputs": [
        {
          "name": "",
          "type": "address"
        }
      ],
      "name": "keriumHoldings",
      "outputs": [
        {
          "name": "",
          "type": "uint256"
        }
      ],
      "payable": false,
      "stateMutability": "view",
      "type": "function"
    },
    {
      "constant": false,
      "inputs": [
        {
          "name": "newOwner",
          "type": "address"
        }
      ],
      "name": "transferOwnership",
      "outputs": [],
      "payable": false,
      "stateMutability": "nonpayable",
      "type": "function"
    },
    {
      "payable": true,
      "stateMutability": "payable",
      "type": "fallback"
    },
    {
      "anonymous": false,
      "inputs": [
        {
          "indexed": true,
          "name": "previousOwner",
          "type": "address"
        },
        {
          "indexed": true,
          "name": "newOwner",
          "type": "address"
        }
      ],
      "name": "OwnershipTransferred",
      "type": "event"
    },
    {
      "constant": false,
      "inputs": [
        {
          "name": "tokenAddress",
          "type": "address"
        }
      ],
      "name": "setKeriumAddress",
      "outputs": [],
      "payable": false,
      "stateMutability": "nonpayable",
      "type": "function"
    },
    {
      "constant": false,
      "inputs": [
        {
          "name": "isMinable",
          "type": "bool"
        }
      ],
      "name": "setPlanetMinable",
      "outputs": [],
      "payable": false,
      "stateMutability": "nonpayable",
      "type": "function"
    },
    {
      "constant": true,
      "inputs": [],
      "name": "getPriceToMine",
      "outputs": [
        {
          "name": "",
          "type": "uint256"
        }
      ],
      "payable": false,
      "stateMutability": "view",
      "type": "function"
    },
    {
      "constant": true,
      "inputs": [],
      "name": "getPlanetCapacity",
      "outputs": [
        {
          "name": "",
          "type": "uint256"
        }
      ],
      "payable": false,
      "stateMutability": "view",
      "type": "function"
    },
    {
      "constant": true,
      "inputs": [],
      "name": "getPlanetPopulation",
      "outputs": [
        {
          "name": "",
          "type": "uint256"
        }
      ],
      "payable": false,
      "stateMutability": "view",
      "type": "function"
    },
    {
      "constant": true,
      "inputs": [],
      "name": "getNumUsersMinersOnPlanet",
      "outputs": [
        {
          "name": "",
          "type": "uint256"
        }
      ],
      "payable": false,
      "stateMutability": "view",
      "type": "function"
    },
    {
      "constant": false,
      "inputs": [],
      "name": "getKeriumHoldings",
      "outputs": [
        {
          "name": "",
          "type": "uint256"
        }
      ],
      "payable": true,
      "stateMutability": "payable",
      "type": "function"
    },
    {
      "constant": false,
      "inputs": [],
      "name": "collectKeriumHoldings",
      "outputs": [],
      "payable": true,
      "stateMutability": "payable",
      "type": "function"
    },
    {
      "constant": false,
      "inputs": [
        {
          "name": "numMiners",
          "type": "uint256"
        }
      ],
      "name": "sendMinersToPlanet",
      "outputs": [],
      "payable": true,
      "stateMutability": "payable",
      "type": "function"
    },
    {
      "constant": true,
      "inputs": [],
      "name": "getEthToKeriumRatio",
      "outputs": [
        {
          "name": "",
          "type": "uint256"
        }
      ],
      "payable": false,
      "stateMutability": "pure",
      "type": "function"
    },
    {
      "constant": false,
      "inputs": [],
      "name": "cashOutOwnerFee",
      "outputs": [],
      "payable": true,
      "stateMutability": "payable",
      "type": "function"
    }
  ],
  "bytecode": "0x608060405266470de4df820000600155600a600255600560035560006004556001600560006101000a81548160ff021916908315150217905550336000806101000a81548173ffffffffffffffffffffffffffffffffffffffff021916908373ffffffffffffffffffffffffffffffffffffffff1602179055506000809054906101000a900473ffffffffffffffffffffffffffffffffffffffff1673ffffffffffffffffffffffffffffffffffffffff16600073ffffffffffffffffffffffffffffffffffffffff167f8be0079c531659141344cd1fd0a4f28419497f9722a3daafe3b4186f6b6457e060405160405180910390a36112be806101046000396000f3fe608060405260043610610126576000357c0100000000000000000000000000000000000000000000000000000000900480638f32d59b116100b2578063bbbf226911610081578063bbbf2269146103b0578063d23d7ab1146103de578063df0298cc14610409578063ee87ee0814610434578063f2fde38b1461047157610126565b80638f32d59b14610308578063abe887fc14610337578063b6dd8d5814610341578063b90084051461034b57610126565b806349c5117d116100f957806349c5117d146102005780636051666f14610251578063715018a61461027c5780637f707ef5146102935780638da5cb5b146102b157610126565b8063063b11f1146101285780631bbc4b83146101535780633b595c14146101aa57806342000897146101d5575b005b34801561013457600080fd5b5061013d6104c2565b6040518082815260200191505060405180910390f35b34801561015f57600080fd5b506101686104cb565b604051808273ffffffffffffffffffffffffffffffffffffffff1673ffffffffffffffffffffffffffffffffffffffff16815260200191505060405180910390f35b3480156101b657600080fd5b506101bf6104f1565b6040518082815260200191505060405180910390f35b3480156101e157600080fd5b506101ea6104fb565b6040518082815260200191505060405180910390f35b34801561020c57600080fd5b5061024f6004803603602081101561022357600080fd5b81019080803573ffffffffffffffffffffffffffffffffffffffff1690602001909291905050506105a0565b005b34801561025d57600080fd5b506102666105f7565b6040518082815260200191505060405180910390f35b34801561028857600080fd5b506102916105fd565b005b61029b6106cf565b6040518082815260200191505060405180910390f35b3480156102bd57600080fd5b506102c6610716565b604051808273ffffffffffffffffffffffffffffffffffffffff1673ffffffffffffffffffffffffffffffffffffffff16815260200191505060405180910390f35b34801561031457600080fd5b5061031d61073f565b604051808215151515815260200191505060405180910390f35b61033f610796565b005b6103496109da565b005b34801561035757600080fd5b5061039a6004803603602081101561036e57600080fd5b81019080803573ffffffffffffffffffffffffffffffffffffffff169060200190929190505050610a40565b6040518082815260200191505060405180910390f35b6103dc600480360360208110156103c657600080fd5b8101908080359060200190929190505050610a58565b005b3480156103ea57600080fd5b506103f3610bfe565b6040518082815260200191505060405180910390f35b34801561041557600080fd5b5061041e610c08565b6040518082815260200191505060405180910390f35b34801561044057600080fd5b5061046f6004803603602081101561045757600080fd5b81019080803515159060200190929190505050610c15565b005b34801561047d57600080fd5b506104c06004803603602081101561049457600080fd5b81019080803573ffffffffffffffffffffffffffffffffffffffff169060200190929190505050610c45565b005b60006001905090565b600860009054906101000a900473ffffffffffffffffffffffffffffffffffffffff1681565b6000600154905090565b6000806000905060008090505b600780549050811015610598573373ffffffffffffffffffffffffffffffffffffffff1660078281548110151561053b57fe5b9060005260206000200160009054906101000a900473ffffffffffffffffffffffffffffffffffffffff1673ffffffffffffffffffffffffffffffffffffffff16141561058b5781806001019250505b8080600101915050610508565b508091505090565b6105a861073f565b15156105b357600080fd5b80600860006101000a81548173ffffffffffffffffffffffffffffffffffffffff021916908373ffffffffffffffffffffffffffffffffffffffff16021790555050565b60015481565b61060561073f565b151561061057600080fd5b600073ffffffffffffffffffffffffffffffffffffffff166000809054906101000a900473ffffffffffffffffffffffffffffffffffffffff1673ffffffffffffffffffffffffffffffffffffffff167f8be0079c531659141344cd1fd0a4f28419497f9722a3daafe3b4186f6b6457e060405160405180910390a360008060006101000a81548173ffffffffffffffffffffffffffffffffffffffff021916908373ffffffffffffffffffffffffffffffffffffffff160217905550565b6000600660003373ffffffffffffffffffffffffffffffffffffffff1673ffffffffffffffffffffffffffffffffffffffff16815260200190815260200160002054905090565b60008060009054906101000a900473ffffffffffffffffffffffffffffffffffffffff16905090565b60008060009054906101000a900473ffffffffffffffffffffffffffffffffffffffff1673ffffffffffffffffffffffffffffffffffffffff163373ffffffffffffffffffffffffffffffffffffffff1614905090565b6000600660003373ffffffffffffffffffffffffffffffffffffffff1673ffffffffffffffffffffffffffffffffffffffff1681526020019081526020016000205411151561084d576040517f08c379a00000000000000000000000000000000000000000000000000000000081526004018080602001828103825260188152602001807f4e6f204b657269756d20686f6c64696e677320666f756e64000000000000000081525060200191505060405180910390fd5b6000600660003373ffffffffffffffffffffffffffffffffffffffff1673ffffffffffffffffffffffffffffffffffffffff1681526020019081526020016000205490506000600660003373ffffffffffffffffffffffffffffffffffffffff1673ffffffffffffffffffffffffffffffffffffffff16815260200190815260200160002081905550600860009054906101000a900473ffffffffffffffffffffffffffffffffffffffff1673ffffffffffffffffffffffffffffffffffffffff166340c10f1933836040518363ffffffff167c0100000000000000000000000000000000000000000000000000000000028152600401808373ffffffffffffffffffffffffffffffffffffffff1673ffffffffffffffffffffffffffffffffffffffff16815260200182815260200192505050602060405180830381600087803b15801561099b57600080fd5b505af11580156109af573d6000803e3d6000fd5b505050506040513d60208110156109c557600080fd5b81019080805190602001909291905050505050565b6109e261073f565b15156109ed57600080fd5b3373ffffffffffffffffffffffffffffffffffffffff166108fc6004549081150290604051600060405180830381858888f19350505050158015610a35573d6000803e3d6000fd5b506000600481905550565b60066020528060005260406000206000915090505481565b600560009054906101000a900460ff161515610adc576040517f08c379a00000000000000000000000000000000000000000000000000000000081526004018080602001828103825260108152602001807f506c616e657420697320636c6f7365640000000000000000000000000000000081525060200191505060405180910390fd5b60015481023410151515610b58576040517f08c379a000000000000000000000000000000000000000000000000000000000815260040180806020018281038252601a8152602001807f4e6f7420656e6f756768207061696420666f72206d696e696e6700000000000081525060200191505060405180910390fd5b600254600780549050101515610bd6576040517f08c379a000000000000000000000000000000000000000000000000000000000815260040180806020018281038252600e8152602001807f506c616e65742069732066756c6c00000000000000000000000000000000000081525060200191505060405180910390fd5b60008090505b81811015610bfa57610bed33610c64565b8080600101915050610bdc565b5050565b6000600254905090565b6000600780549050905090565b610c1d61073f565b1515610c2857600080fd5b80600560006101000a81548160ff02191690831515021790555050565b610c4d61073f565b1515610c5857600080fd5b610c6181610e3a565b50565b60008090506000610c756000610f34565b905060078054905082111515610cf05760078390806001815401808255809150509060018203906000526020600020016000909192909190916101000a81548173ffffffffffffffffffffffffffffffffffffffff021916908373ffffffffffffffffffffffffffffffffffffffff16021790555050610de7565b60078083815481101515610d0057fe5b9060005260206000200160009054906101000a900473ffffffffffffffffffffffffffffffffffffffff1690806001815401808255809150509060018203906000526020600020016000909192909190916101000a81548173ffffffffffffffffffffffffffffffffffffffff021916908373ffffffffffffffffffffffffffffffffffffffff1602179055505082600783815481101515610d9e57fe5b9060005260206000200160006101000a81548173ffffffffffffffffffffffffffffffffffffffff021916908373ffffffffffffffffffffffffffffffffffffffff1602179055505b6002546007805490501415610e35576000600560006101000a81548160ff021916908315150217905550610e19610f73565b6001600560006101000a81548160ff0219169083151502179055505b505050565b600073ffffffffffffffffffffffffffffffffffffffff168173ffffffffffffffffffffffffffffffffffffffff1614151515610e7657600080fd5b8073ffffffffffffffffffffffffffffffffffffffff166000809054906101000a900473ffffffffffffffffffffffffffffffffffffffff1673ffffffffffffffffffffffffffffffffffffffff167f8be0079c531659141344cd1fd0a4f28419497f9722a3daafe3b4186f6b6457e060405160405180910390a3806000806101000a81548173ffffffffffffffffffffffffffffffffffffffff021916908373ffffffffffffffffffffffffffffffffffffffff16021790555050565b60008142604051602001808281526020019150506040516020818303038152906040528051906020012060019004811515610f6b57fe5b069050919050565b60006002546001540290506000610f8c600354836110ae565b9050610fa3816004546110de90919063ffffffff16565b600481905550610fbc81836110ff90919063ffffffff16565b915060008090505b6002548110156110a9576000610fdb6032856110ae565b90506001600254038210156110475761102d600783815481101515610ffc57fe5b9060005260206000200160009054906101000a900473ffffffffffffffffffffffffffffffffffffffff1682611121565b61104081856110ff90919063ffffffff16565b935061108b565b61108a60078381548110151561105957fe5b9060005260206000200160009054906101000a900473ffffffffffffffffffffffffffffffffffffffff1685611121565b5b600060078161109a9190611241565b50508080600101915050610fc4565b505050565b60006110d660646110c885856111d990919063ffffffff16565b61121790919063ffffffff16565b905092915050565b60008082840190508381101515156110f557600080fd5b8091505092915050565b600082821115151561111057600080fd5b600082840390508091505092915050565b600061113d61112e6104c2565b836111d990919063ffffffff16565b905061119181600660008673ffffffffffffffffffffffffffffffffffffffff1673ffffffffffffffffffffffffffffffffffffffff168152602001908152602001600020546110de90919063ffffffff16565b600660008573ffffffffffffffffffffffffffffffffffffffff1673ffffffffffffffffffffffffffffffffffffffff16815260200190815260200160002081905550505050565b6000808314156111ec5760009050611211565b600082840290508284828115156111ff57fe5b0414151561120c57600080fd5b809150505b92915050565b6000808211151561122757600080fd5b6000828481151561123457fe5b0490508091505092915050565b81548183558181111561126857818360005260206000209182019101611267919061126d565b5b505050565b61128f91905b8082111561128b576000816000905550600101611273565b5090565b9056fea165627a7a72305820137b3aa7594732b2981f3b3380525f42fb922554ec97804952470e22b4c892430029",
  "source": "pragma solidity ^0.5.2;\r\n\r\nimport \"openzeppelin-solidity/contracts/math/SafeMath.sol\";\r\nimport \"openzeppelin-solidity/contracts/token/ERC20/ERC20.sol\";\r\nimport \"openzeppelin-solidity/contracts/token/ERC20/ERC20Mintable.sol\";\r\nimport \"openzeppelin-solidity/contracts/ownership/Ownable.sol\";\r\n\r\ncontract SpaceMiners is Ownable {\r\n\r\n  using SafeMath for uint;\r\n\r\n  uint public PRICE_TO_MINE = 20 finney;\r\n  uint PLANET_CAPACITY = 10;\r\n  uint OWNER_FEE_PERCENT = 5;\r\n  uint ownerHoldings = 0;\r\n  bool planetMinable = true;\r\n\r\n  mapping(address => uint) public keriumHoldings;\r\n\r\n  address[] miners;\r\n\r\n  ERC20Mintable public ERC20Interface;\r\n\r\n  function setKeriumAddress(address tokenAddress) public onlyOwner {\r\n    ERC20Interface = ERC20Mintable(tokenAddress);\r\n  }\r\n\r\n  function setPlanetMinable(bool isMinable) public onlyOwner {\r\n    planetMinable = isMinable;\r\n  }\r\n\r\n  function getPriceToMine() public view returns (uint) {\r\n    return PRICE_TO_MINE;\r\n  }\r\n\r\n  function getPlanetCapacity() public view returns (uint) {\r\n    return PLANET_CAPACITY;\r\n  }\r\n\r\n  function getPlanetPopulation() public view returns (uint) {\r\n    return miners.length;\r\n  }\r\n\r\n  function getNumUsersMinersOnPlanet() public view returns (uint) {\r\n    uint count = 0;\r\n    for (uint i = 0; i < miners.length; i++) {\r\n      if (miners[i] == msg.sender) {\r\n        count++;\r\n      }\r\n    }\r\n    return count;\r\n  }\r\n\r\n  function getKeriumHoldings() public payable returns (uint) {\r\n    return keriumHoldings[msg.sender];\r\n  }\r\n\r\n  function collectKeriumHoldings() public payable {\r\n    require(keriumHoldings[msg.sender] > 0, \"No Kerium holdings found\");\r\n    uint total = keriumHoldings[msg.sender];\r\n    keriumHoldings[msg.sender] = 0;\r\n    ERC20Interface.mint(msg.sender, total);\r\n  }\r\n\r\n  function getRandom(uint cap) view internal returns (uint) {\r\n    return uint256(keccak256(abi.encodePacked(block.timestamp))) % cap;\r\n  }\r\n\r\n  function sendSingleMinerToPlanet(address miner) internal {\r\n    // Place new miner randomly into list\r\n    uint rnd = 0;\r\n    uint gooo = getRandom(0);\r\n    if (rnd <= miners.length) {\r\n      miners.push(miner);\r\n    } else {\r\n      miners.push(miners[rnd]);\r\n      miners[rnd] = miner;\r\n    }\r\n    if (miners.length == PLANET_CAPACITY) {\r\n      planetMinable = false;\r\n      rewardMiners();\r\n      planetMinable = true;\r\n    }\r\n  }\r\n\r\n  function sendMinersToPlanet(uint numMiners) public payable {\r\n    require(planetMinable, \"Planet is closed\");\r\n    require(msg.value >= numMiners * PRICE_TO_MINE, \"Not enough paid for mining\");\r\n    require(miners.length < PLANET_CAPACITY, \"Planet is full\");\r\n    for (uint i = 0; i < numMiners; i++) {\r\n      sendSingleMinerToPlanet(msg.sender);\r\n    }\r\n  }\r\n\r\n  // function getRandom(address seed, uint cap) pure internal returns (uint) {\r\n  //   return uint256(keccak256(abi.encodePacked(seed))) % cap;\r\n  // }\r\n\r\n  // function shuffleMinerList() internal {\r\n  //   uint rnd = uint256(keccak256(abi.encodePacked(block.timestamp, block.difficulty))) % PLANET_CAPACITY;\r\n  //   address seed = address(miners[rnd]);\r\n  //   // Shuffle list\r\n  //   for (uint i = 0; i < PLANET_CAPACITY; i++) {\r\n  //     uint randomIndex = getRandom(seed, PLANET_CAPACITY);\r\n  //     seed = miners[randomIndex];\r\n  //     address temp = miners[i];\r\n  //     miners[i] = miners[randomIndex];\r\n  //     miners[randomIndex] = temp;\r\n  //   }\r\n  // }\r\n\r\n  function percentOfValue(uint percent, uint value) pure internal returns (uint) {\r\n    return (value.mul(percent)).div(100);\r\n  }\r\n\r\n  function getEthToKeriumRatio() pure public returns (uint) {\r\n    // TODO: Get price from Bancor\r\n    return 1;\r\n  }\r\n\r\n  function giveMinerReward(address recipient, uint rewardAmount) internal {\r\n    uint keriumAmount = rewardAmount.mul(getEthToKeriumRatio());\r\n    keriumHoldings[recipient] = keriumHoldings[recipient].add(keriumAmount);\r\n  }\r\n\r\n  function rewardMiners() internal {\r\n    // First take OWNER_FEE_PERCENT\r\n    uint roundEarnings = PRICE_TO_MINE * PLANET_CAPACITY;\r\n    uint ownerFee = percentOfValue(OWNER_FEE_PERCENT, roundEarnings);\r\n    ownerHoldings = ownerHoldings.add(ownerFee);\r\n    roundEarnings = roundEarnings.sub(ownerFee);\r\n    // Then go through each miner\r\n    for (uint i = 0; i < PLANET_CAPACITY; i++) {\r\n      uint rewardAmount = percentOfValue(50, roundEarnings);\r\n      if (i < PLANET_CAPACITY - 1) {\r\n        giveMinerReward(miners[i], rewardAmount);\r\n        roundEarnings = roundEarnings.sub(rewardAmount);\r\n      } else {\r\n        // Last miner gets rounding error extra\r\n        giveMinerReward(miners[i], roundEarnings);\r\n      }\r\n      miners.length = 0;\r\n    }\r\n  }\r\n\r\n  function cashOutOwnerFee() public payable onlyOwner {\r\n    msg.sender.transfer(ownerHoldings);\r\n    ownerHoldings = 0;\r\n  }\r\n\r\n  function() external payable {}\r\n\r\n}",
  "sourcePath": "D:/dapps/space-miners/contracts/SpaceMiners.sol",
  "compiler": {
    "name": "solc",
    "version": "0.5.2+commit.1df8f40c.Emscripten.clang"
  },
  "schemaVersion": "3.0.6",
  "updatedAt": "2019-05-14T08:36:13.457Z",
  "devdoc": {
    "methods": {
      "isOwner()": {
        "return": "true if `msg.sender` is the owner of the contract."
      },
      "owner()": {
        "return": "the address of the owner."
      },
      "renounceOwnership()": {
        "details": "Allows the current owner to relinquish control of the contract. It will not be possible to call the functions with the `onlyOwner` modifier anymore."
      },
      "transferOwnership(address)": {
        "details": "Allows the current owner to transfer control of the contract to a newOwner.",
        "params": {
          "newOwner": "The address to transfer ownership to."
        }
      }
    }
  },
  "userdoc": {
    "methods": {
      "renounceOwnership()": {
        "notice": "Renouncing ownership will leave the contract without an owner, thereby removing any functionality that is only available to the owner."
      }
    }
  }
}