{
  "contractName": "SpaceMiners",
  "abi": [
    {
      "constant": true,
      "inputs": [],
      "name": "name",
      "outputs": [
        {
          "name": "",
          "type": "string"
        }
      ],
      "payable": false,
      "stateMutability": "view",
      "type": "function",
      "signature": "0x06fdde03"
    },
    {
      "constant": false,
      "inputs": [
        {
          "name": "spender",
          "type": "address"
        },
        {
          "name": "value",
          "type": "uint256"
        }
      ],
      "name": "approve",
      "outputs": [
        {
          "name": "",
          "type": "bool"
        }
      ],
      "payable": false,
      "stateMutability": "nonpayable",
      "type": "function",
      "signature": "0x095ea7b3"
    },
    {
      "constant": true,
      "inputs": [],
      "name": "reserveRatio",
      "outputs": [
        {
          "name": "",
          "type": "uint256"
        }
      ],
      "payable": false,
      "stateMutability": "view",
      "type": "function",
      "signature": "0x0c7d5cd8"
    },
    {
      "constant": true,
      "inputs": [],
      "name": "totalSupply",
      "outputs": [
        {
          "name": "",
          "type": "uint256"
        }
      ],
      "payable": false,
      "stateMutability": "view",
      "type": "function",
      "signature": "0x18160ddd"
    },
    {
      "constant": false,
      "inputs": [
        {
          "name": "from",
          "type": "address"
        },
        {
          "name": "to",
          "type": "address"
        },
        {
          "name": "value",
          "type": "uint256"
        }
      ],
      "name": "transferFrom",
      "outputs": [
        {
          "name": "",
          "type": "bool"
        }
      ],
      "payable": false,
      "stateMutability": "nonpayable",
      "type": "function",
      "signature": "0x23b872dd"
    },
    {
      "constant": true,
      "inputs": [
        {
          "name": "_amount",
          "type": "uint256"
        }
      ],
      "name": "calculateContinuousMintReturn",
      "outputs": [
        {
          "name": "mintAmount",
          "type": "uint256"
        }
      ],
      "payable": false,
      "stateMutability": "view",
      "type": "function",
      "signature": "0x28c3d701"
    },
    {
      "constant": true,
      "inputs": [
        {
          "name": "_supply",
          "type": "uint256"
        },
        {
          "name": "_reserveBalance",
          "type": "uint256"
        },
        {
          "name": "_reserveRatio",
          "type": "uint32"
        },
        {
          "name": "_depositAmount",
          "type": "uint256"
        }
      ],
      "name": "calculatePurchaseReturn",
      "outputs": [
        {
          "name": "",
          "type": "uint256"
        }
      ],
      "payable": false,
      "stateMutability": "view",
      "type": "function",
      "signature": "0x29a00e7c"
    },
    {
      "constant": true,
      "inputs": [],
      "name": "decimals",
      "outputs": [
        {
          "name": "",
          "type": "uint8"
        }
      ],
      "payable": false,
      "stateMutability": "view",
      "type": "function",
      "signature": "0x313ce567"
    },
    {
      "constant": false,
      "inputs": [
        {
          "name": "spender",
          "type": "address"
        },
        {
          "name": "addedValue",
          "type": "uint256"
        }
      ],
      "name": "increaseAllowance",
      "outputs": [
        {
          "name": "",
          "type": "bool"
        }
      ],
      "payable": false,
      "stateMutability": "nonpayable",
      "type": "function",
      "signature": "0x39509351"
    },
    {
      "constant": false,
      "inputs": [
        {
          "name": "reciever",
          "type": "address"
        },
        {
          "name": "value",
          "type": "uint256"
        }
      ],
      "name": "mint",
      "outputs": [],
      "payable": true,
      "stateMutability": "payable",
      "type": "function",
      "signature": "0x40c10f19"
    },
    {
      "constant": false,
      "inputs": [
        {
          "name": "_amount",
          "type": "uint256"
        }
      ],
      "name": "burn",
      "outputs": [],
      "payable": false,
      "stateMutability": "nonpayable",
      "type": "function",
      "signature": "0x42966c68"
    },
    {
      "constant": true,
      "inputs": [
        {
          "name": "_supply",
          "type": "uint256"
        },
        {
          "name": "_reserveBalance",
          "type": "uint256"
        },
        {
          "name": "_reserveRatio",
          "type": "uint32"
        },
        {
          "name": "_sellAmount",
          "type": "uint256"
        }
      ],
      "name": "calculateSaleReturn",
      "outputs": [
        {
          "name": "",
          "type": "uint256"
        }
      ],
      "payable": false,
      "stateMutability": "view",
      "type": "function",
      "signature": "0x49f9b0f7"
    },
    {
      "constant": true,
      "inputs": [],
      "name": "version",
      "outputs": [
        {
          "name": "",
          "type": "string"
        }
      ],
      "payable": false,
      "stateMutability": "view",
      "type": "function",
      "signature": "0x54fd4d50"
    },
    {
      "constant": true,
      "inputs": [],
      "name": "planetPopulation",
      "outputs": [
        {
          "name": "",
          "type": "uint256"
        }
      ],
      "payable": false,
      "stateMutability": "view",
      "type": "function",
      "signature": "0x5df3504e"
    },
    {
      "constant": true,
      "inputs": [],
      "name": "PRICE_TO_MINE",
      "outputs": [
        {
          "name": "",
          "type": "uint256"
        }
      ],
      "payable": false,
      "stateMutability": "view",
      "type": "function",
      "signature": "0x6051666f"
    },
    {
      "constant": true,
      "inputs": [
        {
          "name": "owner",
          "type": "address"
        }
      ],
      "name": "balanceOf",
      "outputs": [
        {
          "name": "",
          "type": "uint256"
        }
      ],
      "payable": false,
      "stateMutability": "view",
      "type": "function",
      "signature": "0x70a08231"
    },
    {
      "constant": false,
      "inputs": [],
      "name": "renounceOwnership",
      "outputs": [],
      "payable": false,
      "stateMutability": "nonpayable",
      "type": "function",
      "signature": "0x715018a6"
    },
    {
      "constant": true,
      "inputs": [],
      "name": "owner",
      "outputs": [
        {
          "name": "",
          "type": "address"
        }
      ],
      "payable": false,
      "stateMutability": "view",
      "type": "function",
      "signature": "0x8da5cb5b"
    },
    {
      "constant": true,
      "inputs": [],
      "name": "isOwner",
      "outputs": [
        {
          "name": "",
          "type": "bool"
        }
      ],
      "payable": false,
      "stateMutability": "view",
      "type": "function",
      "signature": "0x8f32d59b"
    },
    {
      "constant": true,
      "inputs": [
        {
          "name": "_amount",
          "type": "uint256"
        }
      ],
      "name": "calculateContinuousBurnReturn",
      "outputs": [
        {
          "name": "burnAmount",
          "type": "uint256"
        }
      ],
      "payable": false,
      "stateMutability": "view",
      "type": "function",
      "signature": "0x90f0c2ea"
    },
    {
      "constant": true,
      "inputs": [],
      "name": "symbol",
      "outputs": [
        {
          "name": "",
          "type": "string"
        }
      ],
      "payable": false,
      "stateMutability": "view",
      "type": "function",
      "signature": "0x95d89b41"
    },
    {
      "constant": true,
      "inputs": [],
      "name": "reserveBalance",
      "outputs": [
        {
          "name": "",
          "type": "uint256"
        }
      ],
      "payable": false,
      "stateMutability": "view",
      "type": "function",
      "signature": "0xa10954fe"
    },
    {
      "constant": false,
      "inputs": [
        {
          "name": "spender",
          "type": "address"
        },
        {
          "name": "subtractedValue",
          "type": "uint256"
        }
      ],
      "name": "decreaseAllowance",
      "outputs": [
        {
          "name": "",
          "type": "bool"
        }
      ],
      "payable": false,
      "stateMutability": "nonpayable",
      "type": "function",
      "signature": "0xa457c2d7"
    },
    {
      "constant": false,
      "inputs": [
        {
          "name": "to",
          "type": "address"
        },
        {
          "name": "value",
          "type": "uint256"
        }
      ],
      "name": "transfer",
      "outputs": [
        {
          "name": "",
          "type": "bool"
        }
      ],
      "payable": false,
      "stateMutability": "nonpayable",
      "type": "function",
      "signature": "0xa9059cbb"
    },
    {
      "constant": true,
      "inputs": [],
      "name": "NUM_WINNERS",
      "outputs": [
        {
          "name": "",
          "type": "uint256"
        }
      ],
      "payable": false,
      "stateMutability": "view",
      "type": "function",
      "signature": "0xcad0338c"
    },
    {
      "constant": true,
      "inputs": [
        {
          "name": "owner",
          "type": "address"
        },
        {
          "name": "spender",
          "type": "address"
        }
      ],
      "name": "allowance",
      "outputs": [
        {
          "name": "",
          "type": "uint256"
        }
      ],
      "payable": false,
      "stateMutability": "view",
      "type": "function",
      "signature": "0xdd62ed3e"
    },
    {
      "constant": true,
      "inputs": [],
      "name": "PLANET_CAPACITY",
      "outputs": [
        {
          "name": "",
          "type": "uint256"
        }
      ],
      "payable": false,
      "stateMutability": "view",
      "type": "function",
      "signature": "0xe06de901"
    },
    {
      "constant": false,
      "inputs": [
        {
          "name": "newOwner",
          "type": "address"
        }
      ],
      "name": "transferOwnership",
      "outputs": [],
      "payable": false,
      "stateMutability": "nonpayable",
      "type": "function",
      "signature": "0xf2fde38b"
    },
    {
      "constant": true,
      "inputs": [],
      "name": "scale",
      "outputs": [
        {
          "name": "",
          "type": "uint256"
        }
      ],
      "payable": false,
      "stateMutability": "view",
      "type": "function",
      "signature": "0xf51e181a"
    },
    {
      "payable": true,
      "stateMutability": "payable",
      "type": "fallback"
    },
    {
      "anonymous": false,
      "inputs": [
        {
          "indexed": true,
          "name": "from",
          "type": "address"
        },
        {
          "indexed": true,
          "name": "to",
          "type": "address"
        },
        {
          "indexed": false,
          "name": "value",
          "type": "uint256"
        }
      ],
      "name": "Transfer",
      "type": "event",
      "signature": "0xddf252ad1be2c89b69c2b068fc378daa952ba7f163c4a11628f55a4df523b3ef"
    },
    {
      "anonymous": false,
      "inputs": [
        {
          "indexed": true,
          "name": "owner",
          "type": "address"
        },
        {
          "indexed": true,
          "name": "spender",
          "type": "address"
        },
        {
          "indexed": false,
          "name": "value",
          "type": "uint256"
        }
      ],
      "name": "Approval",
      "type": "event",
      "signature": "0x8c5be1e5ebec7d5bd14f71427d1e84f3dd0314c0f7b2291e5b200ac8c7c3b925"
    },
    {
      "anonymous": false,
      "inputs": [
        {
          "indexed": true,
          "name": "previousOwner",
          "type": "address"
        },
        {
          "indexed": true,
          "name": "newOwner",
          "type": "address"
        }
      ],
      "name": "OwnershipTransferred",
      "type": "event",
      "signature": "0x8be0079c531659141344cd1fd0a4f28419497f9722a3daafe3b4186f6b6457e0"
    },
    {
      "constant": true,
      "inputs": [
        {
          "name": "miner",
          "type": "address"
        }
      ],
      "name": "getNumUsersMinersOnPlanet",
      "outputs": [
        {
          "name": "",
          "type": "uint256"
        }
      ],
      "payable": false,
      "stateMutability": "view",
      "type": "function",
      "signature": "0x5f7731c7"
    },
    {
      "constant": false,
      "inputs": [
        {
          "name": "numMiners",
          "type": "uint256"
        }
      ],
      "name": "sendMinersToPlanet",
      "outputs": [],
      "payable": true,
      "stateMutability": "payable",
      "type": "function",
      "signature": "0xbbbf2269"
    },
    {
      "constant": false,
      "inputs": [],
      "name": "cashOutOwnerFee",
      "outputs": [],
      "payable": true,
      "stateMutability": "payable",
      "type": "function",
      "signature": "0xb6dd8d58"
    }
  ],
  "bytecode": "0x60806040526040805190810160405280600381526020017f302e330000000000000000000000000000000000000000000000000000000000815250600090805190602001906200005192919062001245565b50670de0b6b3a7640000608555608554600a026086556207a12060875566470de4df820000608855600a6089556003608a556005608b55608954604051908082528060200260200182016040528015620000ba5781602001602082028038833980820191505090505b50608c9080519060200190620000d2929190620012cc565b506000608d55701c35fedd14ffffffffffffffffffffffff60016020608081101515620000fb57fe5b0181905550701b0ce43b323fffffffffffffffffffffff600160216080811015156200012357fe5b01819055507019f0028ec1ffffffffffffffffffffffff600160226080811015156200014b57fe5b01819055507018ded91f0e7fffffffffffffffffffffff600160236080811015156200017357fe5b01819055507017d8ec7f0417ffffffffffffffffffffff600160246080811015156200019b57fe5b01819055507016ddc6556cdbffffffffffffffffffffff60016025608081101515620001c357fe5b01819055507015ecf52776a1ffffffffffffffffffffff60016026608081101515620001eb57fe5b01819055507015060c256cb2ffffffffffffffffffffff600160276080811015156200021357fe5b0181905550701428a2f98d72ffffffffffffffffffffff600160286080811015156200023b57fe5b01819055507013545598e5c23fffffffffffffffffffff600160296080811015156200026357fe5b0181905550701288c4161ce1dfffffffffffffffffffff6001602a6080811015156200028b57fe5b01819055507011c592761c666fffffffffffffffffffff6001602b608081101515620002b357fe5b018190555070110a688680a757ffffffffffffffffffff6001602c608081101515620002db57fe5b0181905550701056f1b5bedf77ffffffffffffffffffff6001602d6080811015156200030357fe5b0181905550700faadceceeff8bffffffffffffffffffff6001602e6080811015156200032b57fe5b0181905550700f05dc6b27edadffffffffffffffffffff6001602f6080811015156200035357fe5b0181905550700e67a5a25da4107fffffffffffffffffff600160306080811015156200037b57fe5b0181905550700dcff115b14eedffffffffffffffffffff60016031608081101515620003a357fe5b0181905550700d3e7a392431239fffffffffffffffffff60016032608081101515620003cb57fe5b0181905550700cb2ff529eb71e4fffffffffffffffffff60016033608081101515620003f357fe5b0181905550700c2d415c3db974afffffffffffffffffff600160346080811015156200041b57fe5b0181905550700bad03e7d883f69bffffffffffffffffff600160356080811015156200044357fe5b0181905550700b320d03b2c343d5ffffffffffffffffff600160366080811015156200046b57fe5b0181905550700abc25204e02828dffffffffffffffffff600160376080811015156200049357fe5b0181905550700a4b16f74ee4bb207fffffffffffffffff60016038608081101515620004bb57fe5b01819055507009deaf736ac1f569ffffffffffffffffff60016039608081101515620004e357fe5b0181905550700976bd9952c7aa957fffffffffffffffff6001603a6080811015156200050b57fe5b01819055507009131271922eaa606fffffffffffffffff6001603b6080811015156200053357fe5b01819055507008b380f3558668c46fffffffffffffffff6001603c6080811015156200055b57fe5b0181905550700857ddf0117efa215bffffffffffffffff6001603d6080811015156200058357fe5b01819055507007ffffffffffffffffffffffffffffffff6001603e608081101515620005ab57fe5b01819055507007abbf6f6abb9d087fffffffffffffffff6001603f608081101515620005d357fe5b018190555070075af62cbac95f7dfa7fffffffffffffff60016040608081101515620005fb57fe5b018190555070070d7fb7452e187ac13fffffffffffffff600160416080811015156200062357fe5b01819055507006c3390ecc8af379295fffffffffffffff600160426080811015156200064b57fe5b018190555070067c00a3b07ffc01fd6fffffffffffffff600160436080811015156200067357fe5b0181905550700637b647c39cbb9d3d27ffffffffffffff600160446080811015156200069b57fe5b01819055507005f63b1fc104dbd39587ffffffffffffff60016045608081101515620006c357fe5b01819055507005b771955b36e12f7235ffffffffffffff60016046608081101515620006eb57fe5b018190555070057b3d49dda84556d6f6ffffffffffffff600160476080811015156200071357fe5b018190555070054183095b2c8ececf30ffffffffffffff600160486080811015156200073b57fe5b018190555070050a28be635ca2b888f77fffffffffffff600160496080811015156200076357fe5b01819055507004d5156639708c9db33c3fffffffffffff6001604a6080811015156200078b57fe5b01819055507004a23105873875bd52dfdfffffffffffff6001604b608081101515620007b357fe5b0181905550700471649d87199aa990756fffffffffffff6001604c608081101515620007db57fe5b01819055507004429a21a029d4c1457cfbffffffffffff6001604d6080811015156200080357fe5b0181905550700415bc6d6fb7dd71af2cb3ffffffffffff6001604e6080811015156200082b57fe5b01819055507003eab73b3bbfe282243ce1ffffffffffff6001604f6080811015156200085357fe5b01819055507003c1771ac9fb6b4c18e229ffffffffffff600160506080811015156200087b57fe5b0181905550700399e96897690418f785257fffffffffff60016051608081101515620008a357fe5b0181905550700373fc456c53bb779bf0ea9fffffffffff60016052608081101515620008cb57fe5b018190555070034f9e8e490c48e67e6ab8bfffffffffff60016053608081101515620008f357fe5b018190555070032cbfd4a7adc790560b3337ffffffffff600160546080811015156200091b57fe5b018190555070030b50570f6e5d2acca94613ffffffffff600160556080811015156200094357fe5b01819055507002eb40f9f620fda6b56c2861ffffffffff600160566080811015156200096b57fe5b01819055507002cc8340ecb0d0f520a6af58ffffffffff600160576080811015156200099357fe5b01819055507002af09481380a0a35cf1ba02ffffffffff60016058608081101515620009bb57fe5b0181905550700292c5bdd3b92ec810287b1b3fffffffff60016059608081101515620009e357fe5b0181905550700277abdcdab07d5a77ac6d6b9fffffffff6001605a60808110151562000a0b57fe5b018190555070025daf6654b1eaa55fd64df5efffffffff6001605b60808110151562000a3357fe5b0181905550700244c49c648baa98192dce88b7ffffffff6001605c60808110151562000a5b57fe5b018190555070022ce03cd5619a311b2471268bffffffff6001605d60808110151562000a8357fe5b0181905550700215f77c045fbe885654a44a0fffffffff6001605e60808110151562000aab57fe5b01819055507001ffffffffffffffffffffffffffffffff6001605f60808110151562000ad357fe5b01819055507001eaefdbdaaee7421fc4d3ede5ffffffff6001606060808110151562000afb57fe5b01819055507001d6bd8b2eb257df7e8ca57b09bfffffff6001606160808110151562000b2357fe5b01819055507001c35fedd14b861eb0443f7f133fffffff6001606260808110151562000b4b57fe5b01819055507001b0ce43b322bcde4a56e8ada5afffffff6001606360808110151562000b7357fe5b018190555070019f0028ec1fff007f5a195a39dfffffff6001606460808110151562000b9b57fe5b018190555070018ded91f0e72ee74f49b15ba527ffffff6001606560808110151562000bc357fe5b018190555070017d8ec7f04136f4e5615fd41a63ffffff6001606660808110151562000beb57fe5b018190555070016ddc6556cdb84bdc8d12d22e6fffffff6001606760808110151562000c1357fe5b018190555070015ecf52776a1155b5bd8395814f7fffff6001606860808110151562000c3b57fe5b018190555070015060c256cb23b3b3cc3754cf40ffffff6001606960808110151562000c6357fe5b01819055507001428a2f98d728ae223ddab715be3fffff6001606a60808110151562000c8b57fe5b018190555070013545598e5c23276ccf0ede68034fffff6001606b60808110151562000cb357fe5b01819055507001288c4161ce1d6f54b7f61081194fffff6001606c60808110151562000cdb57fe5b018190555070011c592761c666aa641d5a01a40f17ffff6001606d60808110151562000d0357fe5b0181905550700110a688680a7530515f3e6e6cfdcdffff6001606e60808110151562000d2b57fe5b01819055507001056f1b5bedf75c6bcb2ce8aed428ffff6001606f60808110151562000d5357fe5b01819055506ffaadceceeff8a0890f3875f008277fff6001607060808110151562000d7a57fe5b01819055506ff05dc6b27edad306388a600f6ba0bfff6001607160808110151562000da157fe5b01819055506fe67a5a25da41063de1495d5b18cdbfff6001607260808110151562000dc857fe5b01819055506fdcff115b14eedde6fc3aa5353f2e4fff6001607360808110151562000def57fe5b01819055506fd3e7a3924312399f9aae2e0f868f8fff6001607460808110151562000e1657fe5b01819055506fcb2ff529eb71e41582cccd5a1ee26fff6001607560808110151562000e3d57fe5b01819055506fc2d415c3db974ab32a51840c0b67edff6001607660808110151562000e6457fe5b01819055506fbad03e7d883f69ad5b0a186184e06bff6001607760808110151562000e8b57fe5b01819055506fb320d03b2c343d4829abd6075f0cc5ff6001607860808110151562000eb257fe5b01819055506fabc25204e02828d73c6e80bcdb1a95bf6001607960808110151562000ed957fe5b01819055506fa4b16f74ee4bb2040a1ec6c15fbbf2df6001607a60808110151562000f0057fe5b01819055506f9deaf736ac1f569deb1b5ae3f36c130f6001607b60808110151562000f2757fe5b01819055506f976bd9952c7aa957f5937d790ef650376001607c60808110151562000f4e57fe5b01819055506f9131271922eaa6064b73a22d0bd4f2bf6001607d60808110151562000f7557fe5b01819055506f8b380f3558668c46c91c49a2f8e967b96001607e60808110151562000f9c57fe5b01819055506f857ddf0117efa215952912839f6473e66001607f60808110151562000fc357fe5b018190555033608160006101000a81548173ffffffffffffffffffffffffffffffffffffffff021916908373ffffffffffffffffffffffffffffffffffffffff160217905550608160009054906101000a900473ffffffffffffffffffffffffffffffffffffffff1673ffffffffffffffffffffffffffffffffffffffff16600073ffffffffffffffffffffffffffffffffffffffff167f8be0079c531659141344cd1fd0a4f28419497f9722a3daafe3b4186f6b6457e060405160405180910390a3620010a633608554600102620010ac640100000000026401000000009004565b620013c9565b600073ffffffffffffffffffffffffffffffffffffffff168273ffffffffffffffffffffffffffffffffffffffff1614151515620010e957600080fd5b6200110e81608454620012236401000000000262001b38179091906401000000009004565b6084819055506200117681608260008573ffffffffffffffffffffffffffffffffffffffff1673ffffffffffffffffffffffffffffffffffffffff16815260200190815260200160002054620012236401000000000262001b38179091906401000000009004565b608260008473ffffffffffffffffffffffffffffffffffffffff1673ffffffffffffffffffffffffffffffffffffffff168152602001908152602001600020819055508173ffffffffffffffffffffffffffffffffffffffff16600073ffffffffffffffffffffffffffffffffffffffff167fddf252ad1be2c89b69c2b068fc378daa952ba7f163c4a11628f55a4df523b3ef836040518082815260200191505060405180910390a35050565b60008082840190508381101515156200123b57600080fd5b8091505092915050565b828054600181600116156101000203166002900490600052602060002090601f016020900481019282601f106200128857805160ff1916838001178555620012b9565b82800160010185558215620012b9579182015b82811115620012b85782518255916020019190600101906200129b565b5b509050620012c891906200135b565b5090565b82805482825590600052602060002090810192821562001348579160200282015b82811115620013475782518260006101000a81548173ffffffffffffffffffffffffffffffffffffffff021916908373ffffffffffffffffffffffffffffffffffffffff16021790555091602001919060010190620012ed565b5b50905062001357919062001383565b5090565b6200138091905b808211156200137c57600081600090555060010162001362565b5090565b90565b620013c691905b80821115620013c257600081816101000a81549073ffffffffffffffffffffffffffffffffffffffff0219169055506001016200138a565b5090565b90565b6137a280620013d96000396000f3fe608060405260043610610200576000357c01000000000000000000000000000000000000000000000000000000009004806370a082311161011f578063a9059cbb116100b2578063dd62ed3e11610081578063dd62ed3e14610af0578063e06de90114610b75578063f2fde38b14610ba0578063f51e181a14610bf157610200565b8063a9059cbb14610a1a578063b6dd8d5814610a8d578063bbbf226914610a97578063cad0338c14610ac557610200565b806390f0c2ea116100ee57806390f0c2ea1461089d57806395d89b41146108ec578063a10954fe1461097c578063a457c2d7146109a757610200565b806370a082311461079b578063715018a6146108005780638da5cb5b146108175780638f32d59b1461086e57610200565b8063395093511161019757806354fd4d501161016657806354fd4d50146106505780635df3504e146106e05780635f7731c71461070b5780636051666f1461077057610200565b806339509351146104e157806340c10f191461055457806342966c68146105a257806349f9b0f7146105dd57610200565b806323b872dd116101d357806323b872dd1461035b57806328c3d701146103ee57806329a00e7c1461043d578063313ce567146104b057610200565b806306fdde0314610202578063095ea7b3146102925780630c7d5cd81461030557806318160ddd14610330575b005b34801561020e57600080fd5b50610217610c1c565b6040518080602001828103825283818151815260200191508051906020019080838360005b8381101561025757808201518184015260208101905061023c565b50505050905090810190601f1680156102845780820380516001836020036101000a031916815260200191505b509250505060405180910390f35b34801561029e57600080fd5b506102eb600480360360408110156102b557600080fd5b81019080803573ffffffffffffffffffffffffffffffffffffffff16906020019092919080359060200190929190505050610c55565b604051808215151515815260200191505060405180910390f35b34801561031157600080fd5b5061031a610c6c565b6040518082815260200191505060405180910390f35b34801561033c57600080fd5b50610345610c72565b6040518082815260200191505060405180910390f35b34801561036757600080fd5b506103d46004803603606081101561037e57600080fd5b81019080803573ffffffffffffffffffffffffffffffffffffffff169060200190929190803573ffffffffffffffffffffffffffffffffffffffff16906020019092919080359060200190929190505050610c7c565b604051808215151515815260200191505060405180910390f35b3480156103fa57600080fd5b506104276004803603602081101561041157600080fd5b8101908080359060200190929190505050610d2d565b6040518082815260200191505060405180910390f35b34801561044957600080fd5b5061049a6004803603608081101561046057600080fd5b810190808035906020019092919080359060200190929190803563ffffffff16906020019092919080359060200190929190505050610d4d565b6040518082815260200191505060405180910390f35b3480156104bc57600080fd5b506104c5610e53565b604051808260ff1660ff16815260200191505060405180910390f35b3480156104ed57600080fd5b5061053a6004803603604081101561050457600080fd5b81019080803573ffffffffffffffffffffffffffffffffffffffff16906020019092919080359060200190929190505050610e58565b604051808215151515815260200191505060405180910390f35b6105a06004803603604081101561056a57600080fd5b81019080803573ffffffffffffffffffffffffffffffffffffffff16906020019092919080359060200190929190505050610efd565b005b3480156105ae57600080fd5b506105db600480360360208110156105c557600080fd5b8101908080359060200190929190505050610f84565b005b3480156105e957600080fd5b5061063a6004803603608081101561060057600080fd5b810190808035906020019092919080359060200190929190803563ffffffff16906020019092919080359060200190929190505050610fdc565b6040518082815260200191505060405180910390f35b34801561065c57600080fd5b50610665611111565b6040518080602001828103825283818151815260200191508051906020019080838360005b838110156106a557808201518184015260208101905061068a565b50505050905090810190601f1680156106d25780820380516001836020036101000a031916815260200191505b509250505060405180910390f35b3480156106ec57600080fd5b506106f56111af565b6040518082815260200191505060405180910390f35b34801561071757600080fd5b5061075a6004803603602081101561072e57600080fd5b81019080803573ffffffffffffffffffffffffffffffffffffffff1690602001909291905050506111b5565b6040518082815260200191505060405180910390f35b34801561077c57600080fd5b50610785611259565b6040518082815260200191505060405180910390f35b3480156107a757600080fd5b506107ea600480360360208110156107be57600080fd5b81019080803573ffffffffffffffffffffffffffffffffffffffff16906020019092919050505061125f565b6040518082815260200191505060405180910390f35b34801561080c57600080fd5b506108156112a8565b005b34801561082357600080fd5b5061082c61137c565b604051808273ffffffffffffffffffffffffffffffffffffffff1673ffffffffffffffffffffffffffffffffffffffff16815260200191505060405180910390f35b34801561087a57600080fd5b506108836113a6565b604051808215151515815260200191505060405180910390f35b3480156108a957600080fd5b506108d6600480360360208110156108c057600080fd5b81019080803590602001909291905050506113fe565b6040518082815260200191505060405180910390f35b3480156108f857600080fd5b5061090161141e565b6040518080602001828103825283818151815260200191508051906020019080838360005b83811015610941578082015181840152602081019050610926565b50505050905090810190601f16801561096e5780820380516001836020036101000a031916815260200191505b509250505060405180910390f35b34801561098857600080fd5b50610991611457565b6040518082815260200191505060405180910390f35b3480156109b357600080fd5b50610a00600480360360408110156109ca57600080fd5b81019080803573ffffffffffffffffffffffffffffffffffffffff1690602001909291908035906020019092919050505061145d565b604051808215151515815260200191505060405180910390f35b348015610a2657600080fd5b50610a7360048036036040811015610a3d57600080fd5b81019080803573ffffffffffffffffffffffffffffffffffffffff16906020019092919080359060200190929190505050611502565b604051808215151515815260200191505060405180910390f35b610a95611519565b005b610ac360048036036020811015610aad57600080fd5b810190808035906020019092919050505061159a565b005b348015610ad157600080fd5b50610ada6116c3565b6040518082815260200191505060405180910390f35b348015610afc57600080fd5b50610b5f60048036036040811015610b1357600080fd5b81019080803573ffffffffffffffffffffffffffffffffffffffff169060200190929190803573ffffffffffffffffffffffffffffffffffffffff1690602001909291905050506116c9565b6040518082815260200191505060405180910390f35b348015610b8157600080fd5b50610b8a611750565b6040518082815260200191505060405180910390f35b348015610bac57600080fd5b50610bef60048036036020811015610bc357600080fd5b81019080803573ffffffffffffffffffffffffffffffffffffffff169060200190929190505050611756565b005b348015610bfd57600080fd5b50610c06611775565b6040518082815260200191505060405180910390f35b6040805190810160405280600f81526020017f4b657269756d204372797374616c73000000000000000000000000000000000081525081565b6000610c6233848461177b565b6001905092915050565b60875481565b6000608454905090565b6000610c898484846118de565b610d228433610d1d85608360008a73ffffffffffffffffffffffffffffffffffffffff1673ffffffffffffffffffffffffffffffffffffffff16815260200190815260200160002060003373ffffffffffffffffffffffffffffffffffffffff1673ffffffffffffffffffffffffffffffffffffffff16815260200190815260200160002054611aae90919063ffffffff16565b61177b565b600190509392505050565b6000610d46610d3a610c72565b60865460875485610d4d565b9050919050565b60008085118015610d5e5750600084115b8015610d70575060008363ffffffff16115b8015610d8b5750620f424063ffffffff168363ffffffff1611155b1515610d9657600080fd5b6000821415610da85760009050610e4b565b620f424063ffffffff168363ffffffff161415610deb57610de484610dd68488611ad090919063ffffffff16565b611b0e90919063ffffffff16565b9050610e4b565b6000806000610e038786611b3890919063ffffffff16565b9050610e14818888620f4240611b59565b809350819450505060008260ff16610e35858b611ad090919063ffffffff16565b908060020a820491505090508881039450505050505b949350505050565b601281565b6000610ef33384610eee85608360003373ffffffffffffffffffffffffffffffffffffffff1673ffffffffffffffffffffffffffffffffffffffff16815260200190815260200160002060008973ffffffffffffffffffffffffffffffffffffffff1673ffffffffffffffffffffffffffffffffffffffff16815260200190815260200160002054611b3890919063ffffffff16565b61177b565b6001905092915050565b600081111515610f75576040517f08c379a000000000000000000000000000000000000000000000000000000000815260040180806020018281038252601e8152602001807f4d7573742073656e6420657468657220746f2062757920746f6b656e732e000081525060200191505060405180910390fd5b610f7f8282611d3d565b505050565b6000610f8f82611df2565b90503373ffffffffffffffffffffffffffffffffffffffff166108fc829081150290604051600060405180830381858888f19350505050158015610fd7573d6000803e3d6000fd5b505050565b60008085118015610fed5750600084115b8015610fff575060008363ffffffff16115b801561101a5750620f424063ffffffff168363ffffffff1611155b80156110265750848211155b151561103157600080fd5b60008214156110435760009050611109565b8482141561105357839050611109565b620f424063ffffffff168363ffffffff1614156110965761108f856110818487611ad090919063ffffffff16565b611b0e90919063ffffffff16565b9050611109565b600080600084880390506110af8882620f424089611b59565b809350819450505060006110cc8489611ad090919063ffffffff16565b905060008360ff16899060020a029050611101856110f38385611aae90919063ffffffff16565b611b0e90919063ffffffff16565b955050505050505b949350505050565b60008054600181600116156101000203166002900480601f0160208091040260200160405190810160405280929190818152602001828054600181600116156101000203166002900480156111a75780601f1061117c576101008083540402835291602001916111a7565b820191906000526020600020905b81548152906001019060200180831161118a57829003601f168201915b505050505081565b608d5481565b6000806000905060008090505b608d5481101561124f578373ffffffffffffffffffffffffffffffffffffffff16608c828154811015156111f257fe5b9060005260206000200160009054906101000a900473ffffffffffffffffffffffffffffffffffffffff1673ffffffffffffffffffffffffffffffffffffffff1614156112425781806001019250505b80806001019150506111c2565b5080915050919050565b60885481565b6000608260008373ffffffffffffffffffffffffffffffffffffffff1673ffffffffffffffffffffffffffffffffffffffff168152602001908152602001600020549050919050565b6112b06113a6565b15156112bb57600080fd5b600073ffffffffffffffffffffffffffffffffffffffff16608160009054906101000a900473ffffffffffffffffffffffffffffffffffffffff1673ffffffffffffffffffffffffffffffffffffffff167f8be0079c531659141344cd1fd0a4f28419497f9722a3daafe3b4186f6b6457e060405160405180910390a36000608160006101000a81548173ffffffffffffffffffffffffffffffffffffffff021916908373ffffffffffffffffffffffffffffffffffffffff160217905550565b6000608160009054906101000a900473ffffffffffffffffffffffffffffffffffffffff16905090565b6000608160009054906101000a900473ffffffffffffffffffffffffffffffffffffffff1673ffffffffffffffffffffffffffffffffffffffff163373ffffffffffffffffffffffffffffffffffffffff1614905090565b600061141761140b610c72565b60865460875485610fdc565b9050919050565b6040805190810160405280600381526020017f4b4d43000000000000000000000000000000000000000000000000000000000081525081565b60865481565b60006114f833846114f385608360003373ffffffffffffffffffffffffffffffffffffffff1673ffffffffffffffffffffffffffffffffffffffff16815260200190815260200160002060008973ffffffffffffffffffffffffffffffffffffffff1673ffffffffffffffffffffffffffffffffffffffff16815260200190815260200160002054611aae90919063ffffffff16565b61177b565b6001905092915050565b600061150f3384846118de565b6001905092915050565b6115216113a6565b151561152c57600080fd5b6000608854608d54023073ffffffffffffffffffffffffffffffffffffffff16310390503373ffffffffffffffffffffffffffffffffffffffff166108fc829081150290604051600060405180830381858888f19350505050158015611596573d6000803e3d6000fd5b5050565b60885481023410151515611616576040517f08c379a000000000000000000000000000000000000000000000000000000000815260040180806020018281038252601a8152602001807f4e6f7420656e6f756768207061696420666f72206d696e696e6700000000000081525060200191505060405180910390fd5b608954608d54101515611691576040517f08c379a000000000000000000000000000000000000000000000000000000000815260040180806020018281038252600e8152602001807f506c616e65742069732066756c6c00000000000000000000000000000000000081525060200191505060405180910390fd5b61169b3382610efd565b60008090505b818110156116bf576116b233611f26565b80806001019150506116a1565b5050565b608a5481565b6000608360008473ffffffffffffffffffffffffffffffffffffffff1673ffffffffffffffffffffffffffffffffffffffff16815260200190815260200160002060008373ffffffffffffffffffffffffffffffffffffffff1673ffffffffffffffffffffffffffffffffffffffff16815260200190815260200160002054905092915050565b60895481565b61175e6113a6565b151561176957600080fd5b61177281611fbc565b50565b60855481565b600073ffffffffffffffffffffffffffffffffffffffff168273ffffffffffffffffffffffffffffffffffffffff16141515156117b757600080fd5b600073ffffffffffffffffffffffffffffffffffffffff168373ffffffffffffffffffffffffffffffffffffffff16141515156117f357600080fd5b80608360008573ffffffffffffffffffffffffffffffffffffffff1673ffffffffffffffffffffffffffffffffffffffff16815260200190815260200160002060008473ffffffffffffffffffffffffffffffffffffffff1673ffffffffffffffffffffffffffffffffffffffff168152602001908152602001600020819055508173ffffffffffffffffffffffffffffffffffffffff168373ffffffffffffffffffffffffffffffffffffffff167f8c5be1e5ebec7d5bd14f71427d1e84f3dd0314c0f7b2291e5b200ac8c7c3b925836040518082815260200191505060405180910390a3505050565b600073ffffffffffffffffffffffffffffffffffffffff168273ffffffffffffffffffffffffffffffffffffffff161415151561191a57600080fd5b61196c81608260008673ffffffffffffffffffffffffffffffffffffffff1673ffffffffffffffffffffffffffffffffffffffff16815260200190815260200160002054611aae90919063ffffffff16565b608260008573ffffffffffffffffffffffffffffffffffffffff1673ffffffffffffffffffffffffffffffffffffffff16815260200190815260200160002081905550611a0181608260008573ffffffffffffffffffffffffffffffffffffffff1673ffffffffffffffffffffffffffffffffffffffff16815260200190815260200160002054611b3890919063ffffffff16565b608260008473ffffffffffffffffffffffffffffffffffffffff1673ffffffffffffffffffffffffffffffffffffffff168152602001908152602001600020819055508173ffffffffffffffffffffffffffffffffffffffff168373ffffffffffffffffffffffffffffffffffffffff167fddf252ad1be2c89b69c2b068fc378daa952ba7f163c4a11628f55a4df523b3ef836040518082815260200191505060405180910390a3505050565b6000828211151515611abf57600080fd5b600082840390508091505092915050565b600080831415611ae35760009050611b08565b60008284029050828482811515611af657fe5b04141515611b0357600080fd5b809150505b92915050565b60008082111515611b1e57600080fd5b60008284811515611b2b57fe5b0490508091505092915050565b6000808284019050838110151515611b4f57600080fd5b8091505092915050565b60008070020000000000000000000000000000000086101515611be4576040517f08c379a00000000000000000000000000000000000000000000000000000000081526004018080602001828103825260188152602001807f626173654e2065786365656473206d61782076616c75652e000000000000000081525060200191505060405180910390fd5b848610151515611c5c576040517f08c379a000000000000000000000000000000000000000000000000000000000815260040180806020018281038252601c8152602001807f4261736573203c203120617265206e6f7420737570706f727465642e0000000081525060200191505060405180910390fd5b600080866f800000000000000000000000000000008902811515611c7c57fe5b04905070015bf0a8b1457695355fb8ac404e7a79e3811015611ca857611ca1816120b8565b9150611cb4565b611cb181612688565b91505b60008563ffffffff168763ffffffff168402811515611ccf57fe5b049050700800000000000000000000000000000000811015611d0257611cf4816127cd565b607f94509450505050611d34565b6000611d0d82612d8d565b9050611d2a81607f0360ff1683908060020a820491505082612e52565b8195509550505050505b94509492505050565b60008082111515611db6576040517f08c379a00000000000000000000000000000000000000000000000000000000081526004018080602001828103825260198152602001807f4465706f736974206d757374206265206e6f6e2d7a65726f2e0000000000000081525060200191505060405180910390fd5b6000611dc183610d2d565b9050611dcd84826132f5565b611de283608654611b3890919063ffffffff16565b6086819055508091505092915050565b60008082111515611e6b576040517f08c379a00000000000000000000000000000000000000000000000000000000081526004018080602001828103825260188152602001807f416d6f756e74206d757374206265206e6f6e2d7a65726f2e000000000000000081525060200191505060405180910390fd5b81611e753361125f565b10151515611eeb576040517f08c379a000000000000000000000000000000000000000000000000000000000815260040180806020018281038252601c8152602001807f496e73756666696369656e7420746f6b656e7320746f206275726e2e0000000081525060200191505060405180910390fd5b6000611ef6836113fe565b9050611f0d81608654611aae90919063ffffffff16565b608681905550611f1d338461344b565b80915050919050565b80608c608d54815481101515611f3857fe5b9060005260206000200160006101000a81548173ffffffffffffffffffffffffffffffffffffffff021916908373ffffffffffffffffffffffffffffffffffffffff160217905550611f966001608d54611b3890919063ffffffff16565b608d81905550608954608d541415611fb957611fb06135a1565b6000608d819055505b50565b600073ffffffffffffffffffffffffffffffffffffffff168173ffffffffffffffffffffffffffffffffffffffff1614151515611ff857600080fd5b8073ffffffffffffffffffffffffffffffffffffffff16608160009054906101000a900473ffffffffffffffffffffffffffffffffffffffff1673ffffffffffffffffffffffffffffffffffffffff167f8be0079c531659141344cd1fd0a4f28419497f9722a3daafe3b4186f6b6457e060405160405180910390a380608160006101000a81548173ffffffffffffffffffffffffffffffffffffffff021916908373ffffffffffffffffffffffffffffffffffffffff16021790555050565b6000806000905060008060006fd3094c70f034de4b96ff7d5b6f99fcd886101515612123576f40000000000000000000000000000000840193506fd3094c70f034de4b96ff7d5b6f99fcd86f80000000000000000000000000000000870281151561211f57fe5b0495505b6fa45af1e1f40c333b3de1db4dd55f29a786101515612182576f20000000000000000000000000000000840193506fa45af1e1f40c333b3de1db4dd55f29a76f80000000000000000000000000000000870281151561217e57fe5b0495505b6f910b022db7ae67ce76b441c27035c6a1861015156121e1576f10000000000000000000000000000000840193506f910b022db7ae67ce76b441c27035c6a16f8000000000000000000000000000000087028115156121dd57fe5b0495505b6f88415abbe9a76bead8d00cf112e4d4a886101515612240576f08000000000000000000000000000000840193506f88415abbe9a76bead8d00cf112e4d4a86f80000000000000000000000000000000870281151561223c57fe5b0495505b6f84102b00893f64c705e841d5d4064bd38610151561229f576f04000000000000000000000000000000840193506f84102b00893f64c705e841d5d4064bd36f80000000000000000000000000000000870281151561229b57fe5b0495505b6f8204055aaef1c8bd5c3259f4822735a2861015156122fe576f02000000000000000000000000000000840193506f8204055aaef1c8bd5c3259f4822735a26f8000000000000000000000000000000087028115156122fa57fe5b0495505b6f810100ab00222d861931c15e39b44e998610151561235d576f01000000000000000000000000000000840193506f810100ab00222d861931c15e39b44e996f80000000000000000000000000000000870281151561235957fe5b0495505b6f808040155aabbbe9451521693554f733861015156123bb576e800000000000000000000000000000840193506f808040155aabbbe9451521693554f7336f8000000000000000000000000000000087028115156123b757fe5b0495505b6f80000000000000000000000000000000860392508291506f800000000000000000000000000000008384028115156123f057fe5b0490507001000000000000000000000000000000008370010000000000000000000000000000000003830281151561242457fe5b04840193506f8000000000000000000000000000000081830281151561244657fe5b049150700200000000000000000000000000000000836faaaaaaaaaaaaaaaaaaaaaaaaaaaaaaaa03830281151561247957fe5b04840193506f8000000000000000000000000000000081830281151561249b57fe5b049150700300000000000000000000000000000000836f999999999999999999999999999999990383028115156124ce57fe5b04840193506f800000000000000000000000000000008183028115156124f057fe5b049150700400000000000000000000000000000000836f9249249249249249249249249249249203830281151561252357fe5b04840193506f8000000000000000000000000000000081830281151561254557fe5b049150700500000000000000000000000000000000836f8e38e38e38e38e38e38e38e38e38e38e03830281151561257857fe5b04840193506f8000000000000000000000000000000081830281151561259a57fe5b049150700600000000000000000000000000000000836f8ba2e8ba2e8ba2e8ba2e8ba2e8ba2e8b0383028115156125cd57fe5b04840193506f800000000000000000000000000000008183028115156125ef57fe5b049150700700000000000000000000000000000000836f89d89d89d89d89d89d89d89d89d89d8903830281151561262257fe5b04840193506f8000000000000000000000000000000081830281151561264457fe5b049150700800000000000000000000000000000000836f8888888888888888888888888888888803830281151561267757fe5b048401935083945050505050919050565b600080600090506000839050700100000000000000000000000000000000811015156127015760006126d46f80000000000000000000000000000000838115156126ce57fe5b04613660565b90508060ff1682908060020a820491505091506f800000000000000000000000000000008160ff16029250505b6f80000000000000000000000000000000811115612796576000607f90505b60008160ff161115612794576f8000000000000000000000000000000082830281151561274957fe5b0491507001000000000000000000000000000000008210151561278857600182908060020a820491505091506001810360ff1660019060020a02830192505b80600190039050612720565b505b6f05b9de1d10bf4103d647b0955897ba806f03f80fe03f80fe03f80fe03f80fe03f883028115156127c357fe5b0492505050919050565b600080600090506000806f10000000000000000000000000000000858115156127f257fe5b0691508190506f8000000000000000000000000000000082820281151561281557fe5b0490506710e1b3be415a00008102830192506f8000000000000000000000000000000082820281151561284457fe5b0490506705a0913f6b1e00008102830192506f8000000000000000000000000000000082820281151561287357fe5b049050670168244fdac780008102830192506f800000000000000000000000000000008282028115156128a257fe5b049050664807432bc180008102830192506f800000000000000000000000000000008282028115156128d057fe5b049050660c0135dca040008102830192506f800000000000000000000000000000008282028115156128fe57fe5b0490506601b707b1cdc0008102830192506f8000000000000000000000000000000082820281151561292c57fe5b0490506536e0f639b8008102830192506f8000000000000000000000000000000082820281151561295957fe5b049050650618fee9f8008102830192506f8000000000000000000000000000000082820281151561298657fe5b049050649c197dcc008102830192506f800000000000000000000000000000008282028115156129b257fe5b049050640e30dce4008102830192506f800000000000000000000000000000008282028115156129de57fe5b04905064012ebd13008102830192506f80000000000000000000000000000000828202811515612a0a57fe5b0490506317499f008102830192506f80000000000000000000000000000000828202811515612a3557fe5b0490506301a9d4808102830192506f80000000000000000000000000000000828202811515612a6057fe5b049050621c63808102830192506f80000000000000000000000000000000828202811515612a8a57fe5b0490506201c6388102830192506f80000000000000000000000000000000828202811515612ab457fe5b049050611ab88102830192506f80000000000000000000000000000000828202811515612add57fe5b04905061017c8102830192506f80000000000000000000000000000000828202811515612b0657fe5b04905060148102830192506f80000000000000000000000000000000828202811515612b2e57fe5b04905060018102830192506f80000000000000000000000000000000826721c3677c82b4000085811515612b5e57fe5b040101925060006f100000000000000000000000000000008616141515612bb25770018ebef9eac820ae8682b9793ac6d1e7767001c3d6a24ed82218787d624d3e5eba95f98402811515612bae57fe5b0492505b60006f200000000000000000000000000000008616141515612c01577001368b2fc6f9609fe7aceb46aa619baed470018ebef9eac820ae8682b9793ac6d1e7788402811515612bfd57fe5b0492505b60006f400000000000000000000000000000008616141515612c4f576fbc5ab1b16779be3575bd8f0520a9f21f7001368b2fc6f9609fe7aceb46aa619baed58402811515612c4b57fe5b0492505b60006f800000000000000000000000000000008616141515612c9c576f454aaa8efe072e7f6ddbab84b40a55c96fbc5ab1b16779be3575bd8f0520a9f21e8402811515612c9857fe5b0492505b60007001000000000000000000000000000000008616141515612cea576f0960aadc109e7a3bf4578099615711ea6f454aaa8efe072e7f6ddbab84b40a55c58402811515612ce657fe5b0492505b60007002000000000000000000000000000000008616141515612d37576e2bf84208204f5977f9a8cf01fdce3d6f0960aadc109e7a3bf4578099615711d78402811515612d3357fe5b0492505b60007004000000000000000000000000000000008616141515612d82576d03c6ab775dd0b95b4cbee7e65d116e2bf84208204f5977f9a8cf01fdc3078402811515612d7e57fe5b0492505b829350505050919050565b600080602090506000607f90505b8060ff166001830160ff161015612df0576000600282840160ff16811515612dbf57fe5b0490508460018260ff16608081101515612dd557fe5b0154101515612de657809250612dea565b8091505b50612d9b565b8360018260ff16608081101515612e0357fe5b0154101515612e16578092505050612e4d565b8360018360ff16608081101515612e2957fe5b0154101515612e3c578192505050612e4d565b60001515612e4657fe5b6000925050505b919050565b60008083905060008090508360ff16858302908060020a820491505091506f03442c4e6074a82f1797f72ac00000008202810190508360ff16858302908060020a820491505091506f0116b96f757c380fb287fd0e400000008202810190508360ff16858302908060020a820491505091506e45ae5bdd5f0e03eca1ff43900000008202810190508360ff16858302908060020a820491505091506e0defabf91302cd95b9ffda500000008202810190508360ff16858302908060020a820491505091506e02529ca9832b22439efff9b80000008202810190508360ff16858302908060020a820491505091506d54f1cf12bd04e516b6da880000008202810190508360ff16858302908060020a820491505091506d0a9e39e257a09ca2d6db510000008202810190508360ff16858302908060020a820491505091506d012e066e7b839fa050c3090000008202810190508360ff16858302908060020a820491505091506c1e33d7d926c329a1ad1a8000008202810190508360ff16858302908060020a820491505091506c02bee513bdb4a6b19b5f8000008202810190508360ff16858302908060020a820491505091506b3a9316fa79b88eccf2a000008202810190508360ff16858302908060020a820491505091506b048177ebe1fa8123752000008202810190508360ff16858302908060020a820491505091506a5263fe90242dcbacf000008202810190508360ff16858302908060020a820491505091506a057e22099c030d941000008202810190508360ff16858302908060020a820491505091506957e22099c030d94100008202810190508360ff16858302908060020a8204915050915069052b6b545699763100008202810190508360ff16858302908060020a82049150509150684985f67696bf7480008202810190508360ff16858302908060020a820491505091506803dea12ea99e4980008202810190508360ff16858302908060020a820491505091506731880f2214b6e0008202810190508360ff16858302908060020a8204915050915067025bcff56eb360008202810190508360ff16858302908060020a82049150509150661b722e10ab10008202810190508360ff16858302908060020a820491505091506601317c700770008202810190508360ff16858302908060020a82049150509150650cba84aafa008202810190508360ff16858302908060020a820491505091506482573a0a008202810190508360ff16858302908060020a820491505091506405035ad9008202810190508360ff16858302908060020a82049150509150632f881b008202810190508360ff16858302908060020a820491505091506301b293408202810190508360ff16858302908060020a82049150509150620efc408202810190508360ff16858302908060020a82049150509150617fe08202810190508360ff16858302908060020a820491505091506104208202810190508360ff16858302908060020a8204915050915060218202810190508360ff16858302908060020a8204915050915060018202810190508360ff1660019060020a02856f0688589cc0e9505e2f2fee5580000000838115156132e857fe5b0401019250505092915050565b600073ffffffffffffffffffffffffffffffffffffffff168273ffffffffffffffffffffffffffffffffffffffff161415151561333157600080fd5b61334681608454611b3890919063ffffffff16565b60848190555061339e81608260008573ffffffffffffffffffffffffffffffffffffffff1673ffffffffffffffffffffffffffffffffffffffff16815260200190815260200160002054611b3890919063ffffffff16565b608260008473ffffffffffffffffffffffffffffffffffffffff1673ffffffffffffffffffffffffffffffffffffffff168152602001908152602001600020819055508173ffffffffffffffffffffffffffffffffffffffff16600073ffffffffffffffffffffffffffffffffffffffff167fddf252ad1be2c89b69c2b068fc378daa952ba7f163c4a11628f55a4df523b3ef836040518082815260200191505060405180910390a35050565b600073ffffffffffffffffffffffffffffffffffffffff168273ffffffffffffffffffffffffffffffffffffffff161415151561348757600080fd5b61349c81608454611aae90919063ffffffff16565b6084819055506134f481608260008573ffffffffffffffffffffffffffffffffffffffff1673ffffffffffffffffffffffffffffffffffffffff16815260200190815260200160002054611aae90919063ffffffff16565b608260008473ffffffffffffffffffffffffffffffffffffffff1673ffffffffffffffffffffffffffffffffffffffff16815260200190815260200160002081905550600073ffffffffffffffffffffffffffffffffffffffff168273ffffffffffffffffffffffffffffffffffffffff167fddf252ad1be2c89b69c2b068fc378daa952ba7f163c4a11628f55a4df523b3ef836040518082815260200191505060405180910390a35050565b600060895460885402905060006135ba608b54836136ff565b90506135cf8183611aae90919063ffffffff16565b915060006135e8608a5484611b0e90919063ffffffff16565b905060008090505b608a5481101561365a57600061360760895461372f565b905061364c608c8281548110151561361b57fe5b9060005260206000200160009054906101000a900473ffffffffffffffffffffffffffffffffffffffff1684610efd565b5080806001019150506135f0565b50505050565b60008060009050600083905061010081101561369f575b600181111561369a57600181908060020a82049150509050600182019150613677565b6136f5565b6000608090505b60008160ff1611156136f3578060ff1660019060020a02821015156136dc578060ff1682908060020a8204915050915080831792505b60018160ff16908060020a820491505090506136a6565b505b8192505050919050565b600061372760646137198585611ad090919063ffffffff16565b611b0e90919063ffffffff16565b905092915050565b60008142446040516020018083815260200182815260200192505050604051602081830303815290604052805190602001206001900481151561376e57fe5b06905091905056fea165627a7a723058206ed3f62beaa1c569e860defb4998629b75708c3a9e5efa91017a9b83bfc6faf60029",
  "source": "pragma solidity ^0.5.2;\r\n\r\n// GAME\r\nimport \"openzeppelin-solidity/contracts/math/SafeMath.sol\";\r\nimport \"openzeppelin-solidity/contracts/ownership/Ownable.sol\";\r\n\r\n// TOKEN\r\nimport \"./ContinuousToken.sol\";\r\n\r\ncontract SpaceMiners is Ownable, ContinuousToken {\r\n\r\n  using SafeMath for uint;\r\n\r\n  uint public PRICE_TO_MINE = 20 finney;\r\n  uint public PLANET_CAPACITY = 10;\r\n  uint public NUM_WINNERS = 3;\r\n  uint OWNER_FEE_PERCENT = 5;\r\n  address[] miners = new address[](PLANET_CAPACITY);\r\n  uint public planetPopulation = 0;\r\n\r\n  string public constant name = \"Kerium Crystals\";\r\n  string public constant symbol = \"KMC\";\r\n  uint8 public constant decimals = 18;\r\n\r\n  function getNumUsersMinersOnPlanet(address miner) public view returns (uint) {\r\n    uint count = 0;\r\n    for (uint i = 0; i < planetPopulation; i++) {\r\n      if (miners[i] == miner) {\r\n        count++;\r\n      }\r\n    }\r\n    return count;\r\n  }\r\n\r\n  function sendSingleMinerToPlanet(address miner) internal {\r\n    miners[planetPopulation] = miner;\r\n    planetPopulation = planetPopulation.add(1);\r\n    if (planetPopulation == PLANET_CAPACITY) {\r\n      rewardMiners();\r\n      planetPopulation = 0;\r\n    }\r\n  }\r\n\r\n  function sendMinersToPlanet(uint numMiners) public payable {\r\n    require(msg.value >= numMiners * PRICE_TO_MINE, \"Not enough paid for mining\");\r\n    require(planetPopulation < PLANET_CAPACITY, \"Planet is full\");\r\n    mint(msg.sender, numMiners);\r\n    for (uint i = 0; i < numMiners; i++) {\r\n      sendSingleMinerToPlanet(msg.sender);\r\n    }\r\n  }\r\n\r\n  function percentOfValue(uint percent, uint value) pure internal returns (uint) {\r\n    return (value.mul(percent)).div(100);\r\n  }\r\n\r\n  function getRandom(uint cap) view internal returns (uint) {\r\n    return uint256(keccak256(abi.encodePacked(block.timestamp, block.difficulty))) % cap;\r\n  }\r\n\r\n  function rewardMiners() internal {\r\n    // First take OWNER_FEE_PERCENT\r\n    uint roundEarnings = PRICE_TO_MINE * PLANET_CAPACITY;\r\n    uint ownerFee = percentOfValue(OWNER_FEE_PERCENT, roundEarnings);\r\n    roundEarnings = roundEarnings.sub(ownerFee);\r\n    uint rewardAmount = roundEarnings.div(NUM_WINNERS);\r\n    for (uint i = 0; i < NUM_WINNERS; i++) {\r\n      uint rnd = getRandom(PLANET_CAPACITY);\r\n      mint(miners[rnd], rewardAmount);\r\n    }\r\n  }\r\n\r\n  function cashOutOwnerFee() public payable onlyOwner {\r\n    uint ownerHoldings = address(this).balance - (planetPopulation * PRICE_TO_MINE);\r\n    msg.sender.transfer(ownerHoldings);\r\n  }\r\n\r\n  function() external payable {}\r\n\r\n}",
  "sourcePath": "D:/dapps/space-miners/contracts/SpaceMiners.sol",
  "compiler": {
    "name": "solc",
    "version": "0.5.2+commit.1df8f40c.Emscripten.clang"
  },
  "schemaVersion": "3.0.6",
  "updatedAt": "2019-05-21T02:59:55.641Z",
  "devdoc": {
    "methods": {
      "allowance(address,address)": {
        "details": "Function to check the amount of tokens that an owner allowed to a spender.",
        "params": {
          "owner": "address The address which owns the funds.",
          "spender": "address The address which will spend the funds."
        },
        "return": "A uint256 specifying the amount of tokens still available for the spender."
      },
      "approve(address,uint256)": {
        "details": "Approve the passed address to spend the specified amount of tokens on behalf of msg.sender. Beware that changing an allowance with this method brings the risk that someone may use both the old and the new allowance by unfortunate transaction ordering. One possible solution to mitigate this race condition is to first reduce the spender's allowance to 0 and set the desired value afterwards: https://github.com/ethereum/EIPs/issues/20#issuecomment-263524729",
        "params": {
          "spender": "The address which will spend the funds.",
          "value": "The amount of tokens to be spent."
        }
      },
      "balanceOf(address)": {
        "details": "Gets the balance of the specified address.",
        "params": {
          "owner": "The address to query the balance of."
        },
        "return": "A uint256 representing the amount owned by the passed address."
      },
      "calculatePurchaseReturn(uint256,uint256,uint32,uint256)": {
        "details": "given a continuous token supply, reserve token balance, reserve ratio, and a deposit amount (in the reserve token),\r calculates the return for a given conversion (in the continuous token)\r    * Formula:\r Return = _supply * ((1 + _depositAmount / _reserveBalance) ^ (_reserveRatio / MAX_RESERVE_RATIO) - 1)\r ",
        "params": {
          "_depositAmount": "deposit amount, in reserve token\r ",
          "_reserveBalance": "total reserve token balance\r",
          "_reserveRatio": "reserve ratio, represented in ppm, 1-1000000\r",
          "_supply": "continuous token total supply\r"
        },
        "return": "purchase return amount\r"
      },
      "calculateSaleReturn(uint256,uint256,uint32,uint256)": {
        "details": "given a continuous token supply, reserve token balance, reserve ratio and a sell amount (in the continuous token),\r calculates the return for a given conversion (in the reserve token)\r    * Formula:\r Return = _reserveBalance * (1 - (1 - _sellAmount / _supply) ^ (1 / (_reserveRatio / MAX_RESERVE_RATIO)))\r ",
        "params": {
          "_reserveBalance": "total reserve token balance\r",
          "_reserveRatio": "constant reserve ratio, represented in ppm, 1-1000000\r",
          "_sellAmount": "sell amount, in the continuous token itself\r ",
          "_supply": "continuous token total supply\r"
        },
        "return": "sale return amount\r"
      },
      "decreaseAllowance(address,uint256)": {
        "details": "Decrease the amount of tokens that an owner allowed to a spender. approve should be called when _allowed[msg.sender][spender] == 0. To decrement allowed value is better to use this function to avoid 2 calls (and wait until the first transaction is mined) From MonolithDAO Token.sol Emits an Approval event.",
        "params": {
          "spender": "The address which will spend the funds.",
          "subtractedValue": "The amount of tokens to decrease the allowance by."
        }
      },
      "increaseAllowance(address,uint256)": {
        "details": "Increase the amount of tokens that an owner allowed to a spender. approve should be called when _allowed[msg.sender][spender] == 0. To increment allowed value is better to use this function to avoid 2 calls (and wait until the first transaction is mined) From MonolithDAO Token.sol Emits an Approval event.",
        "params": {
          "addedValue": "The amount of tokens to increase the allowance by.",
          "spender": "The address which will spend the funds."
        }
      },
      "isOwner()": {
        "return": "true if `msg.sender` is the owner of the contract."
      },
      "owner()": {
        "return": "the address of the owner."
      },
      "renounceOwnership()": {
        "details": "Allows the current owner to relinquish control of the contract. It will not be possible to call the functions with the `onlyOwner` modifier anymore."
      },
      "totalSupply()": {
        "details": "Total number of tokens in existence"
      },
      "transfer(address,uint256)": {
        "details": "Transfer token to a specified address",
        "params": {
          "to": "The address to transfer to.",
          "value": "The amount to be transferred."
        }
      },
      "transferFrom(address,address,uint256)": {
        "details": "Transfer tokens from one address to another. Note that while this function emits an Approval event, this is not required as per the specification, and other compliant implementations may not emit the event.",
        "params": {
          "from": "address The address which you want to send tokens from",
          "to": "address The address which you want to transfer to",
          "value": "uint256 the amount of tokens to be transferred"
        }
      },
      "transferOwnership(address)": {
        "details": "Allows the current owner to transfer control of the contract to a newOwner.",
        "params": {
          "newOwner": "The address to transfer ownership to."
        }
      }
    }
  },
  "userdoc": {
    "methods": {
      "renounceOwnership()": {
        "notice": "Renouncing ownership will leave the contract without an owner, thereby removing any functionality that is only available to the owner."
      }
    }
  }
}